:100000000C9464030C948C180C94B9180C948C0305
:100010000C948C030C948C030C948C030C948C0324
:100020000C948C030C948C030C948C030C948C0314
:100030000C948C030C948C030C948C030C948C0304
:100040000C94E6180C948C030C948C030C948C0385
:100050000C948C030C948C030C948C030C948C03E4
:100060000C948C030C948C0300000000003E5B4F4A
:100070005B3E3E6B4F6B3E1C3E7C3E1C183C7E3C08
:10008000181C577D571C1C5E7F5E1C00183C180016
:10009000FFE7C3E7FF0018241800FFE7DBE7FF30A6
:1000A000483A060E2629792926407F050507407F14
:1000B00005253F5A3CE73C5A7F3E1C1C08081C1C87
:1000C0003E7F14227F22145F5F005F5F06097F017D
:1000D0007F006689956A606060606094A2FFA29468
:1000E00008047E040810207E201008082A1C080836
:1000F0001C2A08081E101010100C1E0C1E0C303884
:100100003E3830060E3E0E06000000000000005F84
:1001100000000007000700147F147F14242A7F2AA0
:100120001223130864623649562050000807030062
:10013000001C2241000041221C002A1C7F1C2A08AE
:10014000083E080800807030000808080808000011
:1001500060600020100804023E5149453E00427F85
:10016000400072494949462141494D331814127FD4
:100170001027454545393C4A494931412111090774
:100180003649494936464949291E000014000000F5
:1001900040340000000814224114141414140041C7
:1001A00022140802015909063E415D594E7C121184
:1001B000127C7F494949363E414141227F414141BC
:1001C0003E7F494949417F090909013E4141517337
:1001D0007F0808087F00417F41002040413F017FA8
:1001E000081422417F404040407F021C027F7F0470
:1001F00008107F3E4141413E7F090909063E4151B9
:10020000215E7F09192946264949493203017F01A8
:10021000033F4040403F1F2040201F3F4038403FA9
:10022000631408146303047804036159494D4300BF
:100230007F4141410204081020004141417F0402F6
:10024000010204404040404000030708002054548D
:1002500078407F284444383844444428384444286B
:100260007F385454541800087E090218A4A49C78BE
:100270007F0804047800447D40002040403D007F1A
:100280001028440000417F40007C047804787C08FA
:100290000404783844444438FC18242418182424CE
:1002A00018FC7C08040408485454542404043F44B3
:1002B000243C4040207C1C2040201C3C4030403CE2
:1002C00044281028444C9090907C4464544C440042
:1002D00008364100000077000000413608000201A6
:1002E0000204023C2623263C1EA1A161123A404092
:1002F000207A38545455592155557941225454780F
:1003000042215554784020545579400C1E527212A7
:100310003955555559395454545939555454580030
:1003200000457C410002457D420001457C407D1234
:1003300011127DF0282528F07C5455450020545496
:100340007C547C0A097F4932494949323A44444441
:100350003A324A4848303A4141217A3A424020787C
:10036000009DA0A07D3D4242423D3D4040403D3C7D
:1003700024FF2424487E4943662B2FFC2F2BFF09A2
:1003800029F620C0887E0903205454794100004496
:100390007D413048484A32384040227A007A0A0A81
:1003A000727D0D19317D2629292F282629292926F4
:1003B00030484D4020380808080808080808382F39
:1003C00010C8ACBA2F102834FA00007B00000814C3
:1003D0002A142222142A14085500550055AA55AA99
:1003E00055AAFF55FF55FF000000FF00101010FF39
:1003F00000141414FF001010FF00FF1010F010F094
:10040000141414FC001414F700FF0000FF00FF1484
:1004100014F404FC141417101F10101F101F1414D0
:10042000141F00101010F0000000001F101010101A
:100430001F10101010F010000000FF10101010100E
:1004400010101010FF10000000FF140000FF00FF4C
:1004500000001F10170000FC04F4141417101714E8
:1004600014F404F40000FF00F7141414141414140A
:10047000F700F7141414171410101F101F1414147D
:10048000F4141010F010F000001F101F0000001FE7
:1004900014000000FC140000F010F01010FF10FF1A
:1004A000141414FF141010101F00000000F010FFAF
:1004B000FFFFFFFFF0F0F0F0F0FFFFFF0000000093
:1004C00000FFFF0F0F0F0F0F3844443844FC4A4A17
:1004D0004A347E02020606027E027E0263554941CC
:1004E000633844443C04407E201E2006027E020203
:1004F00099A5E7A5991C2A492A1C4C7201724C3017
:100500004A4D4D303048784830BC625A463D3E49ED
:100510004949007E0101017E2A2A2A2A2A44445F91
:10052000444440514A444040444A51400000FF0185
:1005300003E080FF000008086B6B08361236243693
:10054000060F090F060000181800000010100030F8
:1005500040FF0101001F01011E00191D1712003C80
:100560003C3C3C0000000000005EBCE2613FDD83DB
:10057000C29C7E20A3FD1F419DC3217FFCA2401E83
:100580005F01E3BD3E6082DC237D9FC1421CFEA073
:10059000E1BF5D0380DE3C62BEE0025CDF81633D63
:1005A0007C22C09E1D43A1FF4618FAA427799BC553
:1005B00084DA3866E5BB5907DB856739BAE4065843
:1005C0001947A5FB7826C49A653BD987045AB8E633
:1005D000A7F91B45C6987A24F8A6441A99C7257B23
:1005E0003A6486D85B05E7B98CD2306EEDB3510F13
:1005F0004E10F2AC2F7193CD114FADF3702ECC9203
:10060000D38D6F31B2EC0E50AFF1134DCE90722CF2
:100610006D33D18F0C52B0EE326C8ED0530DEFB1E2
:10062000F0AE4C1291CF2D73CA947628ABF51749D2
:100630000856B4EA6937D58B5709EBB536688AD4C2
:1006400095CB2977F4AA4816E9B7550B88D6346AB2
:100650002B7597C94A14F6A8742AC896154BA9F7A2
:10066000B6E80A54D7896B35000000080002010083
:10067000000304070000000000000000010204085D
:1006800010204080010204081020010204081020FC
:100690000404040404040404020202020202030328
:1006A00003030303000000002300260029000000CC
:1006B0000000250028002B00000000002400270077
:1006C0002A003D066518490711241FBECFEFD8E068
:1006D000DEBFCDBF11E0A0E0B1E0EAE7F4E402C084
:1006E00005900D92AA36B107D9F723E0AAE6B1E04A
:1006F00001C01D92A83CB207E1F716E0C6ECD6E0B7
:1007000004C02297FE010E94AF1FC23CD107C9F767
:100710000E94911A0C9430220C940000DC01ED919F
:10072000FD918081ED91FD919081ED91FD916C9114
:1007300063708E2309F064609F2309F06860EBEA20
:10074000F3E0E60FF11D659565956D936D917D91D3
:100750008D919D91099423C01AC012C016C010C07B
:100760001EC009C014C013C006C019C009C00DC006
:1007700007C00DC014C062507040804090400BC054
:10078000615070408040904006C06E5F01C06F5F56
:100790007F4F8F4F9F4F9E938E937E936E930895BE
:1007A00080918603909187030C948E03809184033B
:1007B000909185030C948E0380918303823030F4F2
:1007C000F89488E793E00E948E0301C0F89480912A
:1007D0007F0390918003A0918103B091820378946C
:1007E0000497A105B1051CF08FEF9FEF1BC080910E
:1007F0008303823030F4F89488E793E00E948E03FC
:1008000001C0F89480917F0390918003A0918103AF
:10081000B091820378948D3F9F4FAF4FBF4F8CF4C0
:1008200081E090E09093770380937603F8941092A0
:100830007F031092800310928103109282037894B8
:1008400004C0109277031092760380917603909102
:10085000770308958130910559F483E891E00E946F
:10086000C50820E030E040E05FE30E946D1D0CC051
:10087000019621F583E891E00E94C50820E030E070
:1008800040E05FE30E946C1DAB01BC0183E891E096
:100890000E94BF0883E891E00E94C508AB01BC013B
:1008A0008AE691E00E942D0983E891E00E94C50844
:1008B000AB01BC0180EE92E00C94E6170895CF9353
:1008C000DF9300D000D000D0CDB7DEB780EE92E04D
:1008D0000E94C41787EB92E00E94171867E071E04E
:1008E000CE0101960E94F11CBE016F5F7F4F8EE822
:1008F00092E00E943618CE0101960E94831C6CE0A3
:1009000071E0CE0101960E94F11CBE016F5F7F4F26
:100910008CE392E00E943618CE0101960E94831C5F
:1009200060E171E0CE0101960E94F11CBE016F5F93
:100930007F4F85E692E00E943618CE0101960E9414
:10094000831C68EC70E080E090E00E945F192696BE
:100950000FB6F894DEBF0FBECDBFDF91CF910895E3
:10096000CF93DF9300D000D000D0CDB7DEB78EE8B4
:1009700092E00E9417188CE392E00E94171885E617
:1009800092E00E94171883E891E00E94C508AB012D
:10099000BC0180EE92E00E94E61765E171E0CE01B5
:1009A00001960E94F11CBE016F5F7F4F87EB92E0C2
:1009B0000E943618CE0101960E94831C83E891E0C4
:1009C0000E94CB084AE0BC01CE0101960E943F1D67
:1009D000BE016F5F7F4F89E093E00E943618CE0121
:1009E00001960E94831C68EC70E080E090E00E9419
:1009F0005F1926960FB6F894DEBF0FBECDBFDF910C
:100A0000CF910895CF93DF9300D000D000D0CDB721
:100A1000DEB769E573E0CE0101960E941E1DBE019E
:100A20006F5F7F4F8EE892E00E943618CE010196EC
:100A30000E94831C6FE573E0CE0101960E941E1D8B
:100A4000BE016F5F7F4F8CE392E00E943618CE01AB
:100A500001960E94831C65E673E0CE0101960E9418
:100A60001E1DBE016F5F7F4F85E692E00E94361823
:100A7000CE0101960E94831C26960FB6F894DEBF25
:100A80000FBECDBFDF91CF910895CF93DF9369E57E
:100A900073E083E593E00E94071D89E593E0EC0194
:100AA000269623E0C93ED20729F0BE010E94071D09
:100AB000CE01F5CF63E573E089EE93E0DF91CF914E
:100AC0000C94071DCF93DF9369EE73E083E593E009
:100AD0000E94071DC0E0D0E0BE016D517C4FCE01E9
:100AE00087519C4F0E94071D2697CA368FEFD80763
:100AF00099F763E573E089E593E0DF91CF910C947A
:100B0000071D8F929F92AF92BF92CF92DF92EF928A
:100B1000FF92CF930E94DC030E942A04809071030D
:100B200090907203A0907303B090740383E891E0F7
:100B30000E94B9086B017C01C80CD91CEA1CFB1C83
:100B40000E9430196C157D058E059F0568F182E3C2
:100B500093E00E942C1460E082E393E00E94201551
:100B6000AB01BC0183E891E00E94AD0883E891E00D
:100B70000E94B308AB01BC018AE691E00E942709FC
:100B800083E891E00E94B308AB01BC018AEE91E0DA
:100B90000E94E6170E9430196093710370937203EC
:100BA00080937303909374038AE691E00E94330963
:100BB00085E991E00E944D17811121C080910601C5
:100BC00081112DC01CC085E991E00E944D178093D2
:100BD00006010E94DC038F3F2FEF920761F50E9410
:100BE00045050E94020585E991E00E944D17882382
:100BF00039F180917503882331F30E94B00485E9AF
:100C000091E00E944D1780930601CF91FF90EF90E5
:100C1000DF90CF90BF90AF909F908F90089564E148
:100C200070E080E090E00E945F190E945F041092E3
:100C30007503C1E0DECF0197B1F60E946205D1CF06
:100C4000809106018823A9F264E170E080E090E0E1
:100C50000E945F19C0937503CCCFCF93DF93EC0153
:100C60004E960E94831CCE0144960E94831CCE01A6
:100C70000296DF91CF910C94831C0F931F93CF9317
:100C8000DF9362E082E00E94F61962E083E00E9456
:100C9000F619E2E9F6E0E491F0E0EE0FFF1FEC5503
:100CA000F94F859194919093790380937803EEE7BF
:100CB000F6E0E491E0937C03E3E9F6E0E491F0E010
:100CC000EE0FFF1FEC55F94F8591949190937B03A4
:100CD00080937A03EFE7F6E0E491E0937D031092CE
:100CE0007F0310928003109281031092820380EDA3
:100CF00097E00E948719E0917803F0917903908141
:100D000080917C03982381E009F480E0E0917A03EC
:100D1000F0917B03908120917D03922309F0826002
:100D200080937E03C8E7D3E0D0938503C093840308
:100D300041E050E066ED73E080E00E946C1881E0D5
:100D400080938303D0938703C093860341E050E0F0
:100D500060ED73E00E946C188091830390E001962F
:100D600080938303C9E5D3E06AE571E0CE010E9478
:100D7000F11C269683E0C137D807B1F76AE571E028
:100D800083E593E00E94F11C67E085E493E00E9414
:100D90007D1665E473E082E393E00E945F110FEF3C
:100DA0001FEF24E030E048EC50E068EC70E089E0B0
:100DB00093E00E94921727E030E044E650E062E3BF
:100DC00070E080EE92E00E94921721E030E04BE963
:100DD00050E069ED70E087EB92E00E94921725E009
:100DE00030E044E650E064E670E08EE892E00E9475
:100DF000921722E030E043E750E06AE070E085E6D9
:100E000092E00E94921722E030E043E750E060EF6A
:100E100070E08CE392E00E94921727E030E044E615
:100E200050E062E370E083E192E00E94921724E0D8
:100E300030E044E150E064E170E08AEE91E00E942D
:100E4000921721E030E045E350E06FE570E081EC7F
:100E500091E00E94921721E030E048E250E068EC17
:100E600070E088E991E00E94921764E070E085E903
:100E700091E00E94441720E130E04EE050E06FE046
:100E800070E08AE691E0DF91CF911F910F910C9471
:100E9000CF0888E991E00E942D0681EC91E00E9444
:100EA0002D068AEE91E00E942D0683E192E00E94D9
:100EB0002D068CE392E00E942D0685E692E00E94CA
:100EC0002D068EE892E00E942D0687EB92E00E94AC
:100ED0002D0680EE92E00E942D0689E093E00E94AC
:100EE0002D0683E593E00E94831C8BE693E00E942D
:100EF000831C85E693E00E94831C8FE593E00E94AB
:100F0000831C89E593E00C94831C4F925F926F924F
:100F10007F92AF92BF92CF92DF92EF92FF920F93A8
:100F20001F93CF93DF93CDB7DEB72A970FB6F89410
:100F3000DEBF0FBECDBF67E071E089E593E00E94A0
:100F4000271D6CE071E08FE593E00E94271D60E1B2
:100F500071E085E693E00E94271D6CE171E08BE66D
:100F600093E00E94271D83E891E00E948B0883E8AC
:100F700091E00E94CB0883E891E00E94B908162F07
:100F8000072FF82EE92E83E891E00E94A7085B0165
:100F90006C0183E891E00E94C5082B013C0183E8C5
:100FA00091E00E94B3089B01AC0183E891E02F839C
:100FB000388749875A870E94CB08EF92FF920F9398
:100FC0001F93830172012F81388549855A85BC01A1
:100FD0008AE691E00E94D70882E393E00E945A13C8
:100FE00089E893E00E947F0D85E991E00E9448170F
:100FF00068EC70E080E090E00E945F196BE082E3B3
:1010000093E00E94E81282E393E00E942C1460E0D7
:1010100070E089E893E00E94C00C63E089E893E007
:101020000E942E1183E891E00E94CB084AE0BC01A7
:10103000CE0101960E943F1DBE016F5F7F4F89E088
:1010400093E00E943618CE0101960E94831C65E150
:1010500071E0CE0101960E94F11CBE016F5F7F4FCF
:1010600087EB92E00E943618CE0101960E94831C05
:1010700083E891E00E94C508AB01BC0180EE92E0DC
:101080000E94E61760E082E393E00E942015AB0126
:10109000BC0183E891E00E94AD0883E891E00E94E2
:1010A000B308AB01BC018AE691E00E94270983E8FE
:1010B00091E00E94B308AB01BC018AEE91E00E946E
:1010C000E61760E271E0CE0101960E94F11CBE01BC
:1010D0006F5F7F4F81EC91E00E943618CE01019640
:1010E0000E94831C0F900F900F900F902A960FB6BE
:1010F000F894DEBF0FBECDBFDF91CF911F910F914E
:10110000FF90EF90DF90CF90BF90AF907F906F9067
:101110005F904F900895FC0140E050E060E07FE375
:10112000408351836283738340E157E260E070E063
:10113000408751876287738740E050E068EC71E434
:101140004487558766877787118A108A0895FC013E
:1011500060817181828193810895FC01448355836C
:10116000668377830895FC01648175818681978108
:101170000895FC0160857185828593850895FC0141
:1011800044875587668777870895FC016485758550
:10119000868597850895FC01808991890895FC01D1
:1011A00071836083538342833583248308958F92B0
:1011B0009F92AF92BF92CF92DF92EF92FF920F93E6
:1011C0001F93CF93DF93CDB7DEB74C018F859889FE
:1011D000A989BA89F401778B668B22873387448784
:1011E0005587E28AF38A048B158BA682B782C08664
:1011F000D18686879787A08BB18B108E61E0808126
:101200000E94F61960E0F40180810E942F1A61E0CB
:10121000F40182810E94F61960E0F40182810E944B
:101220002F1A61E0F40184810E94F61960E0F40154
:101230008481DF91CF911F910F91FF90EF90DF900C
:10124000CF90BF90AF909F908F900C942F1AFC017D
:1012500042875387648775870895FC01428B538BBF
:10126000648B758B08958F929F92AF92BF92CF92AD
:10127000DF92EF92FF92CF93DF93EC018E899F89EB
:10128000009731F460E088810E942F1A60E024C04A
:101290008130910509F040C0CA84DB84EC84FD8470
:1012A0002E813F81488559856A897B898C899D89F2
:1012B0000E946D1D4B015C019B01AC01C701B60191
:1012C0000E94201F18166CF4888D81110AC061E0FD
:1012D00088810E942F1A61E08A810E942F1A60E0A3
:1012E00041C0A5019401C701B6010E94D11D181685
:1012F0000CF44DC0888D81114AC060E088810E9445
:101300002F1A60E08A810E942F1A60E08C810E946F
:101310002F1A81E0888F3BC00297C9F5CA84DB840D
:10132000EC84FD842E813F81488559856A897B89BB
:101330008C899D890E946C1D4B015C019B01AC0155
:10134000C701B6010E94D11D87FF19C0888D811188
:1013500016C061E088810E942F1A60E08A810E9495
:101360002F1A61E08C81DF91CF91FF90EF90DF9099
:10137000CF90BF90AF909F908F900C942F1AA501A3
:101380009401C701B6010E94201F87FFB3CFDF91F0
:10139000CF91FF90EF90DF90CF90BF90AF909F9054
:1013A0008F9008952F923F924F925F926F927F920B
:1013B0008F929F92AF92BF92CF92DF92EF92FF9265
:1013C0000F931F93CF93DF9300D000D0CDB7DEB73C
:1013D0004C017C836B836A015901C8018701AC0110
:1013E0004C195D0957FF03C051954195510995016D
:1013F0006B817C81261B370B37FF03C0319521950C
:10140000310922242394312C2417350714F0212C80
:10141000312C2114310459F03A2D2B2D5C01832FEE
:10142000922F3B812C81DC82CB82C32ED22EAB81CA
:10143000BC81AA16BB065CF43C2D2D2D6C01832FBC
:10144000922F3B812C81BC82AB82A32EB22E250130
:10145000EB81FC814E1A5F0A3C016C187D0877FE17
:1014600003C0719461947108720157FE03C0FFEFCD
:10147000EF1AFF0AF594E794C816D9062CF421E078
:1014800030E03A83298324C06FEF7FEF7A8369834A
:101490001FC0D401ED91FC910480F581E02D9801ED
:1014A00021143104D9F04B815C81B601C401099546
:1014B000E618F708F7FE06C0E981FA81CE0EDF1EB6
:1014C000E40CF51C2B813C812F5F3F4F3C832B8329
:1014D0006B817C81A616B706E4F604C0A6016B8179
:1014E0007C81E4CF0F900F900F900F90DF91CF9100
:1014F0001F910F91FF90EF90DF90CF90BF90AF9032
:101500009F908F907F906F905F904F903F902F9023
:1015100008956F927F928F929F92AF92BF92CF92D7
:10152000DF92EF92FF920F931F93CF93DF93EC0123
:101530005B016A0139014801E881F9810284F38580
:10154000E02D87010995E881F981A601480D591D13
:10155000415051090284F385E02D9301B501CE017C
:101560000995E881F9810084F185E02D9401A601B7
:10157000B501CE010995E881F981B501660D771DA8
:10158000615071090084F185E02D9401A601CE011E
:101590000995DF91CF911F910F91FF90EF90DF9010
:1015A000CF90BF90AF909F908F907F906F90089555
:1015B000EF92FF920F931F93DC01ED91FC91240FAA
:1015C000351F215031090680F781E02D780189010E
:1015D0009B0109951F910F91FF90EF900895EF9255
:1015E000FF920F931F93DC01ED91FC91260F371FA3
:1015F000215031090680F781E02D78018A01099593
:101600001F910F91FF90EF9008956F927F928F92AC
:101610009F92AF92BF92CF92DF92EF92FF920F9381
:101620001F93CF93DF935C014A0169013801EB01FD
:10163000C60ED71ECC15DD0574F4D501ED91FC91D5
:101640000084F185E02D87019301A401BE01C5014D
:1016500009952196EFCFDF91CF911F910F91FF90C8
:10166000EF90DF90CF90BF90AF909F908F907F9042
:101670006F900895EF92FF920F931F93DC01ED910D
:10168000FC9111971A960D911C911B9718962D910C
:101690003C9119970684F785E02D7B0140E050E0EE
:1016A00060E070E009951F910F91FF90EF90089511
:1016B0000895FC01138212828CE291E09183808371
:1016C0007583648357834683718760875387428716
:1016D000158A158614861786168621E0248B8FEFCF
:1016E0009FEF938B828B918B808B268B178A08952B
:1016F0002F923F924F925F926F927F928F929F9222
:10170000AF92BF92CF92DF92EF92FF920F931F930F
:10171000CF93DF93CDB7DEB72C970FB6F894DEBF2B
:101720000FBECDBF9C878B873A0118870F83FA863F
:10173000E986CD82DC0118968D919C9119976817E6
:1017400079070CF09EC01A968D919C911B974817B3
:1017500059070CF096C08C2C912CCB01B6E0CB9E97
:10176000800D911D1124181619060CF08AC0C401B1
:10177000E3E0880F991FEA95E1F7840F951F18168B
:1017800019060CF07EC0AB85BC8557968C918111F3
:1017900003C0203B08F02F5F5B016B011C8258E601
:1017A000452E50E0552E461A570AB5E02B9F400CA7
:1017B000511C1124EC81E53031F0F201EA0DFB1DE2
:1017C00024912B8301C01B827A82698213011E82BD
:1017D0003B8130FF13C0AB85BC85ED91FC91BD8191
:1017E000B13031F40480F581E02D2F81388519C0A6
:1017F0000684F785E02DEF80F8841EC0E985FA8520
:101800002F813885E217F307F9F0AB85BC85ED91A0
:10181000FC91BD81B13059F40480F581E02D29851A
:101820003A85A101B5018B859C8509950DC006847B
:10183000F785E02DE984FA848401940149815A8175
:10184000B6018B859C850995EB81E695EB83FE813E
:10185000FF5FFE8329813A81280D391D3A83298350
:101860003FEF231A330AF83009F0B2CF4C814F5FB3
:101870004C83C80CD91C8FEFA81AB80A463009F05F
:1018800099CF2C960FB6F894DEBF0FBECDBFDF9177
:10189000CF911F910F91FF90EF90DF90CF90BF906D
:1018A000AF909F908F907F906F905F904F903F9000
:1018B0002F900895CF92EF92FF920F931F93CF93A3
:1018C000DF93EC01262F6A3049F42C898E859F85A1
:1018D00038E0239F800D911D112432C06D30A1F19D
:1018E000EA88FB88088919894E855F856C857D8526
:1018F000CC880E94780B2C89422F50E08C859D85E6
:1019000036E0239F800D911D11249D878C872E89A1
:101910002223D1F06AEF64039001659F300D1124FA
:1019200068857985260F371F281739076CF4F3E08F
:10193000440F551FFA95E1F78E859F85840F951FFB
:101940009F878E871D861C8681E090E0DF91CF9176
:101950001F910F91FF90EF90CF900895FC01758734
:101960006487578746870895611101C061E0FC01D3
:10197000648B0895FC01738B628B718B608B08956F
:10198000EF92FF920F931F93DC01ED91FC91119761
:101990001A960D911C911B9718962D913C911997B1
:1019A0000684F785E02D7B0140E050E060E070E0C8
:1019B00009951F910F91FF90EF900895EF92FF927C
:1019C0000F931F93CF93DF931F92CDB7DEB77C01A8
:1019D000062F142F40E451E060EF70E029830E944D
:1019E000590B84E491E0F7019183808304A315A34C
:1019F000298126A381E0818F11A617A20F90DF9184
:101A0000CF911F910F91FF90EF900895FC01818D70
:101A1000811122C088E090E030E8A28DB38D22A52C
:101A2000432F462321F04C91422B4C9304C04C9100
:101A3000209524232C93A48DB58D2C9143A5242B84
:101A40002C93A48DB58D4C9123A5209524232C9304
:101A50003695019711F708956EBD0DB407FEFDCFC1
:101A60000895CF93DF93EC01EE8DFF8D90818DA5CE
:101A7000809589238083EC8DFD8D90818BA5809549
:101A800089238083EAA1FBA190818CA5809589237D
:101A90008083CE010E94060DEAA1FBA180819CA556
:101AA000892B8083DF91CF910895662311F061E245
:101AB00001C060E20C94310DCF93DF93EC01EE8D09
:101AC000FF8D80819DA5892B8083EC8DFD8D90817C
:101AD0008BA5809589238083EAA1FBA190818CA5A9
:101AE000809589238083CE010E94060DEAA1FBA187
:101AF00080819CA5892B8083DF91CF910895CF931E
:101B0000DF93EC0161E08EA10E94F61960E08EA1E6
:101B10000E942F1A61E08DA10E94F61961E08CA14C
:101B20000E94F6194CA150E0FA01E057F94FE491F8
:101B3000F0E0EE0FFF1FE255F94F859194919BA3C2
:101B40008AA32DA130E0F901E057F94F849190E08C
:101B5000880F991F8255994FFC01859194919F8F11
:101B60008E8FFA01E458F94F44914CA7F901E458DB
:101B7000F94F24912DA7898D882379F00E945C1755
:101B80008CB58C7F8CBD8DB581608DBD8CB58F7D06
:101B90008CBD8CB5837F8CBD41C061E089A50E945E
:101BA000F61961E08FA10E94F61960E088A50E94F5
:101BB000F61949A550E0FA01E057F94FE491F0E039
:101BC000EE0FFF1FE255F94FA591B491BD8FAC8F79
:101BD0002FA130E0F901E057F94F849190E0880F90
:101BE000991F8255994FFC01859194919B8F8A8F03
:101BF000FA01E458F94F44914BA7F901E458F94F21
:101C000024912AA78C919BA5909589238C93EA8D8A
:101C1000FB8D90818AA580958923808361E08EA1C8
:101C20000E942F1A65E070E080E090E00E945F194A
:101C300060E08EA10E942F1A64E170E080E090E0E5
:101C40000E945F1961E08EA10E942F1A66E970E080
:101C500080E090E00E945F196FEECE010E94310D8E
:101C600063E0CE010E945C0D60E8CE010E945C0D35
:101C700062E0CE010E945C0D6FECCE010E94310D3E
:101C800060E0CE010E945C0D61ECCE010E945C0D13
:101C900060E3CE010E945C0D6DEECE010E94310D1D
:101CA00064E6CE010E945C0D63E0CE010E945C0DF3
:101CB00062E1CE010E945C0D61E8CE010E945C0DE4
:101CC00068EECE010E94310D65E8CE010E945C0DE8
:101CD00060E0CE010E945C0D68E7CE010E945C0DC1
:101CE0006BECCE010E94310D69E3CE010E945C0DC8
:101CF0006CE2CE010E945C0D60E0CE010E945C0DA2
:101D000064E3CE010E945C0D62E0CE010E945C0D96
:101D100067EFCE010E94310D60E2CE010E945C0DA2
:101D20006AEECE010E94310D60E0CE010E945C0D92
:101D300060E0CE010E945C0D60ECCE010E94310D8E
:101D400063E2CE010E945C0D61ECCE010E94310D78
:101D500060E1CE010E945C0D65ECCE010E94310D68
:101D60006EE3CE010E945C0D68E2CE010E945C0D24
:101D700067ECCE010E94310D66E8CE010E945C0D39
:101D800066E3CE010E94310D68E4CE010E945C0D35
:101D90006AE3CE010E94310D65E5CE010E945C0D23
:101DA00061EBCE010E94310D60E0CE010E945C0D1E
:101DB00068E1CE010E945C0D66EBCE010E94310D00
:101DC00068E0CE010E945C0D62E8CE010E945C0DCD
:101DD00067E2CE010E945C0D62EFCE010E94310DE0
:101DE00060E0CE010E945C0D66E2CE010E94310DE2
:101DF00061E0CE010E945C0D60EECE010E94310DCB
:101E00006FE0CE010E945C0D61E3CE010E945C0D8B
:101E10006BE2CE010E945C0D6CE0CE010E945C0D75
:101E20006EE0CE010E945C0D68E0CE010E945C0D68
:101E30006EE4CE010E945C0D61EFCE010E945C0D4C
:101E400067E3CE010E945C0D67E0CE010E945C0D4D
:101E500060E1CE010E945C0D63E0CE010E945C0D4A
:101E60006EE0CE010E945C0D69E0CE010E945C0D27
:101E700060E0CE010E945C0D61EECE010E94310D4A
:101E800060E0CE010E945C0D6EE0CE010E945C0D10
:101E900064E1CE010E945C0D63E0CE010E945C0D06
:101EA00061E1CE010E945C0D67E0CE010E945C0DF5
:101EB00061E3CE010E945C0D61ECCE010E945C0DDD
:101EC00068E4CE010E945C0D68E0CE010E945C0DCA
:101ED0006FE0CE010E945C0D6CE0CE010E945C0DB3
:101EE00061E3CE010E945C0D66E3CE010E945C0DB1
:101EF0006FE0CE010E945C0D61E1CE010E94310DC8
:101F000068E770E080E090E00E945F1969E2CE012E
:101F1000DF91CF910C94310DCF92DF92FF920F930E
:101F20001F93CF93DF9300D000D01F92CDB7DEB7C1
:101F30006C01F62E6AE22B833A834D835C837983AE
:101F40000E94310D7981672FC6010E945C0D6F2DB3
:101F5000C6010E945C0D3A81632FC6010E945C0D90
:101F60002B81622FC6010E945C0D6BE2C6010E94AC
:101F7000310D5C81652FC6010E945C0D4D81642F7F
:101F8000C6010E945C0D612FC6010E945C0D602F8E
:101F9000C6010E945C0D6CE2C6010F900F900F907D
:101FA0000F900F90DF91CF911F910F91FF90DF90D5
:101FB000CF900C94310DEF92FF920F931F93CF931C
:101FC000DF93EC01F22EE32E77FD2FC028853985B3
:101FD0006217730754F557FD28C02A853B854217C1
:101FE00053071CF58A010F5F1F4F9B012F5F3F4F67
:101FF0000E948C0FEE8DFF8D80819DA5892B8083A3
:10200000EAA1FBA190818CA58095892380836E2D08
:10201000CE010E94060D6F2DCE010E94060DEAA191
:10202000FBA180819CA5892B8083DF91CF911F919B
:102030000F91FF90EF900895CF92DF92EF92FF9271
:102040000F931F93CF93DF93EC017901D02EC12E14
:102050008885998568177907CCF58A859B85481707
:102060005907A4F59A012E0D3F1D821793071CF402
:102070007C01E41AF50A8A010E0D1F1D0150110999
:102080009B01CE010E948C0FEE8DFF8D80819DA55E
:10209000892B8083EAA1FBA190818CA5809589235F
:1020A0008083E114F10461F06C2DCE010E94060DD5
:1020B0006D2DCE010E94060D81E0E81AF108F1CFE6
:1020C000EAA1FBA180819CA5892B8083DF91CF9120
:1020D0001F910F91FF90EF90DF90CF900895CF92D6
:1020E000DF92EF92FF920F931F93CF93DF93EC0158
:1020F0007901D02EC12E8885998568177907CCF58E
:102100002A853B8542175307A4F59B012E0D3F1DE1
:10211000821793071CF47C01E61AF70A9B012E0D27
:102120003F1D215031098A01CE010E948C0FEE8D96
:10213000FF8D80819DA5892B8083EAA1FBA19081E1
:102140008CA5809589238083E114F10461F06C2DC6
:10215000CE010E94060D6D2DCE010E94060D81E07C
:10216000E81AF108F1CFEAA1FBA180819CA5892B97
:102170008083DF91CF911F910F91FF90EF90DF90BF
:10218000CF900895AF92BF92CF92DF92EF92FF92DD
:102190000F931F93CF93DF93EC01690158012885BA
:1021A0003985621773070CF04EC08A859B854817E6
:1021B00059070CF048C0FB01EC0DFD1D2E173F0721
:1021C0001CF46901C61AD70A9A012A0D3B1D821711
:1021D00093071CF45C01A41AB50A8A010A0D1B1DA1
:1021E000015011099B012C0D3D1D21503109CE01DB
:1021F0000E948C0FEE8DFF8D80819DA5892B8083A1
:10220000EAA1FBA190818CA58095892380831A1473
:102210001B049CF48601101611065CF46F2DCE0190
:102220000E94060D6E2DCE010E94060D015011096F
:10223000F2CF81E0A81AB108EACFEAA1FBA1808120
:102240009CA5892B8083DF91CF911F910F91FF90E7
:10225000EF90DF90CF90BF90AF9008951F93CF93F2
:10226000DF93EC01162F66E30E94310D612F63703E
:102270006D8B623041F0633089F0613011F068E4B9
:1022800003C068E20CC068E8CE010E945C0D80EFDC
:1022900090E09987888780E491E00AC068EECE01DB
:1022A0000E945C0D80E491E09987888780EF90E040
:1022B0009B878A87DF91CF911F9108950895FC0134
:1022C0008EE591E1928B818B7683658314821082F7
:1022D00089E0818381E0828383830895CF93DF93B4
:1022E000EB0167E0CE010E94381791E02F81821345
:1022F00090E0892FDF91CF910895EF92FF920F9395
:102300001F93CF93DF93EC018B01E42E8D819E818F
:102310000E946B16F12CB8018D819E810E94A0163F
:10232000882359F0FE1006C0B801CE010E946E113C
:10233000811104C0F394EF1470F780E0DF91CF9126
:102340001F910F91FF90EF900895EF92FF920F93DE
:102350001F93CF93DF9300D0CDB7DEB77C018A0106
:10236000FC018581968169837A830E944415698185
:102370007A81F701858196810E943F1640E06EEBDD
:10238000F701858196810E94E115F701858196818B
:102390000E942316F8018083F701858196810E94AF
:1023A0002316F8018183F701858196810E94231607
:1023B000F8018283F701858196810E942316F80136
:1023C0008383F701858196810E942316F801848317
:1023D000F701858196810E942316F8018583F70114
:1023E000858196810E942316F8018683F7018581F5
:1023F00096810E942316F8018783F70185819681D3
:102400000E942316F8018087F701858196810F903D
:102410000F90DF91CF911F910F91FF90EF900C944F
:102420004415CF93DF93EA010E94A51168E0CE0125
:102430000E94381791E02885821390E0892FDF9160
:10244000CF910895EF92FF920F931F93CF93DF9355
:10245000EC017B018A018D819E810E944415B701A8
:102460008D819E810E943F1640E06EE48D819E81A9
:102470000E94E11540E0F80162818D819E810E94F9
:10248000E11540E0F80163818D819E810E94E11594
:10249000F7018081803139F040E0F80164818D815D
:1024A0009E810E94E1158D819E810E944415488184
:1024B00068E48D819E810E94E1158881882331F036
:1024C0006AE070E080E090E00E945F198D819E815B
:1024D000DF91CF911F910F91FF90EF900C944415D5
:1024E000EF92FF921F93CF93DF9300D0CDB7DEB76B
:1024F0007C01FC018581968169837A830E94441561
:1025000069817A81F701858196810E943F1640E0BA
:1025100064EBF701858196810E94E115F7018581C1
:1025200096810E94B615182FF701858196810E9429
:10253000441581E0111180E00F900F90DF91CF9151
:102540001F91FF90EF900895EF92FF920F931F93CA
:10255000CF93DF93CDB7DEB72A970FB6F894DEBFDF
:102560000FBECDBF7C018B01242FAE014F5F5F4FAB
:102570002A870E9411122A858823D1F0F8018081D0
:102580008031C1F02B3041F02C3021F02A3031F471
:102590008FE305C08FE703C08FE501C08FE18D8316
:1025A000AE014F5F5F4FB801C7010E94221202C007
:1025B00080E001C081E02A960FB6F894DEBF0FBE1E
:1025C000CDBFDF91CF911F910F91FF90EF900895B4
:1025D000EF92FF920F931F93CF93DF93CDB7DEB7A8
:1025E00028970FB6F894DEBF0FBECDBF8C016930BF
:1025F00020F06D3018F06CE001C069E0F8016183F3
:10260000E12CF12CF801848190E0E816F9069CF4A5
:102610004E2DBE016F5F7F4FC8010E947D11F801F2
:102620004181BE016F5F7F4FC8010E94A412FFEF7E
:10263000EF1AFF0AE7CF28960FB6F894DEBF0FBE59
:10264000CDBFDF91CF911F910F91FF90EF90089533
:10265000CF93DF93CDB7DEB729970FB6F894DEBFDF
:102660000FBECDBFFB0120812031D1F0AE014F5F05
:102670005F4F0E941112882379F08D818F3351F0C2
:1026800018F48F3169F008C08F3541F08F3721F48D
:102690008CE007C08AE005C080E003C08BE001C089
:1026A00089E029960FB6F894DEBF0FBECDBFDF914B
:1026B000CF910895EF92FF920F931F93CF93DF93E3
:1026C000CDB7DEB761970FB6F894DEBF0FBECDBFB2
:1026D0008C01FC01858196810E946B16F8011482A1
:1026E000FF24F394BE01665F7F4FF80185819681D8
:1026F0000E94A0168823C9F1BE01665F7F4FC80102
:102700000E946E11882371F3F8018081811108C045
:10271000BE01665F7F4FC8010E947012811122C006
:10272000AE014F5F5F4FBE01665F7F4FC8010E94E1
:10273000A511F801E180BE01665F7F4FC8010E94CC
:1027400028138E1518F4F801818106C0BE01665F5A
:102750007F4FC8010E942813F801818384818F5F15
:102760008483C0CFF801F082DBCF61960FB6F89476
:10277000DEBF0FBECDBFDF91CF911F910F91FF90B4
:10278000EF900895CF93DF93CDB7DEB729970FB6BB
:10279000F894DEBF0FBECDBFAE014F5F5F4F0E940A
:1027A000A51181E09981911101C080E029960FB6B1
:1027B000F894DEBF0FBECDBFDF91CF910895CF92C9
:1027C000DF92EF92FF920F931F93CF93DF93EC0171
:1027D0008B01452BE1F08B818823C9F08881811121
:1027E00016C00E9430196B017C0160E070E0CE01E0
:1027F0000E94C21381110BC00E9430196C197D090F
:102800008E099F096E3E72408105910570F3F801B3
:1028100080818A3049F08B3061F0893079F46EE53F
:1028200070E080E090E00EC06CEB70E080E090E043
:1028300009C067E771E080E090E004C06EEE72E0EE
:1028400080E090E0DF91CF911F910F91FF90EF908A
:10285000DF90CF900C945F19CF93DF93EC018D81C3
:102860009E810E9444158D819E810E946716488139
:1028700064E48D819E810E94E1158A81882351F054
:10288000BE016F5F7F4F40E050E0CE01DF91CF91FE
:102890000C94DF13DF91CF9108958F929F92AF92A6
:1028A000BF92CF92DF92EF92FF921F93CF93DF936D
:1028B000FB01EA01698170E0762F66278881682B29
:1028C00080818232B1F18832A1F1803109F078C083
:1028D0001F8175956795882777FD8095982F0E94B1
:1028E000701E20E030E040E85EE30E946C1D6B014A
:1028F0007C01612F70E08E81681B7109882777FD4C
:102900008095982F0E94701E4B015C01612F70E032
:1029100080E090E00E946E1E9B01AC01C501B401F5
:102920000E94D51D9B01AC01C701B6010E946D1D1F
:1029300043C08C818F3381F198F48F3109F040C00E
:1029400093E0759567959A95E1F7882777FD8095CF
:10295000982F0E94701E20E030E040E05FE32AC024
:102960008F3569F08F3761F5882777FD8095982F2F
:102970000E94701E20E030E040E85DE31BC07595CA
:102980006795882777FD8095982F0E94701E20E01C
:1029900030E040E05EE30EC07595679575956795EC
:1029A000882777FD8095982F0E94701E20E030E0E8
:1029B00040E85EE30E94241F562F472F382F292F0F
:1029C000652F742F832F922FDF91CF911F91FF904E
:1029D000EF90DF90CF90BF90AF909F908F90089531
:1029E000EF92FF920F931F93CF93DF93CDB7DEB794
:1029F00029970FB6F894DEBF0FBECDBF8C017B01C7
:102A0000AE014F5F5F4F0E941112882341F0AE016B
:102A10004F5F5F4FB701C8010E944D1404C060E0D2
:102A200070E08EEF92EC29960FB6F894DEBF0FBEE1
:102A3000CDBFDF91CF911F910F91FF90EF9008953F
:102A40000F931F93CF93DF93CDB7DEB728970FB6C1
:102A5000F894DEBF0FBECDBF8C01462FBE016F5F65
:102A60007F4F0E947D11BE016F5F7F4FC8010E94A2
:102A7000F01428960FB6F894DEBF0FBECDBFDF91DD
:102A8000CF911F910F910895FF920F931F93CF93B2
:102A9000DF93FC010081C181D281F8948981F02EFD
:102AA000F0948F21898378941DE7115029F182E0F9
:102AB00090E00E94871988818023B9F3F8948A8175
:102AC0008F218A838981802B8983789480EE91E09D
:102AD0000E948719F89489818F21898386E490E088
:102AE0000E9487198881802311E009F010E0789412
:102AF0008AE991E00E948719812FDF91CF911F9180
:102B00000F91FF9008951F93CF93DF93FC011081E5
:102B1000C181D281912F909560FF12C0F8948A8173
:102B200089238A838981812B89838AE090E00E94AE
:102B300087198A81812B8A83789487E390E011C07A
:102B4000F8948A8189238A838981812B898381E40E
:102B500090E00E9487198A81812B8A83789485E08E
:102B600090E0DF91CF911F910C9487190F931F93E1
:102B7000CF93DF93FC011081C181D281F8948981C8
:102B8000812B89838A81012F009580238A8383E0AA
:102B900090E00E9487198981802389838AE090E0F0
:102BA0000E948719C881789485E390E00E94871974
:102BB0001C2381E009F480E0DF91CF911F910F91F8
:102BC0000895CF92DF92EF92FF920F931F93CF93CE
:102BD000DF931F92CDB7DEB76C01E62E08E010E060
:102BE000FF24F39461E09F2D9E2109F460E0C6016B
:102BF00049830E948315FF0C015011094981011579
:102C0000110581F7411115C0F894D6011196ED9187
:102C1000FC91129791818C918095892381831196E3
:102C2000ED91FC91129792818C91809589238283FA
:102C300078940F90DF91CF911F910F91FF90EF90BB
:102C4000DF90CF900895EF92FF920F931F93CF9351
:102C5000DF938C01C8E0D0E0F12CEE24E394C801AE
:102C60000E94B6158111FE28EE0C2197C1F78F2D19
:102C7000DF91CF911F910F91FF90EF900895CF9228
:102C8000DF92FF920F931F93CF93DF931F92CDB7E5
:102C9000DEB78C01F62E40E065E579830E94E115F0
:102CA000CF2C7981D72E88E0F82EF60161916F0143
:102CB00040E0C8010E94E115FA94B9F70F90DF9146
:102CC000CF911F910F91FF90DF90CF90089540E03A
:102CD0006CEC0C94E115FC0113861586148627E034
:102CE00030E0DF01A20FB31F13961C9221153105AE
:102CF00019F021503109F5CF08951F93CF93DF9339
:102D0000EC01162F60E0812F0E94F619612F70E010
:102D1000FB01E458F94FE491E883FB01E057F94FD8
:102D2000E491F0E0EE0FFF1FEC55F94F859194917F
:102D30009A838983CE01DF91CF911F910C946B16FA
:102D4000AF92BF92CF92DF92EF92FF920F931F93B9
:102D5000CF93DF931F92CDB7DEB75C01E62ED72E5F
:102D6000FC01858581115DC0C5010E94441581115A
:102D700005C0F5011386158614866EC040E060EF2D
:102D8000C5010E94E11501E0F12CC12C11E0C50143
:102D90000E94B615682FC50169830E94B615698126
:102DA000613019F48130B9F433C02F2D30E068134D
:102DB0001BC0F5018385181730F4E20FF31F8381E0
:102DC000802349F402C0181731F060E0193058F43C
:102DD000F501148708C0F501EF0DF11D8381802BEB
:102DE000838361E009C0C12EF501E20FF31F8381E7
:102DF000902F909589238383C5010E9483151F5FBF
:102E0000000F11F4F39401E0F7E0FF1508F0BFCFD5
:102E1000113438F0F501C386C11018C081E08587F0
:102E200015C0F50113861586148680E0EE2DFD2D64
:102E300020E030E0D501A20FB31F13969C9191932F
:102E40002F5F3F4F28303105A9F706C0F501838178
:102E5000882339F381E0EACF0F90DF91CF911F9162
:102E60000F91FF90EF90DF90CF90BF90AF900895BB
:102E7000DC0180E0615038F0ED91E827F0E0E8599E
:102E8000FA4F8491F7CF0895FC0171836083089510
:102E900062E0FC0180810C94F619CF93DF93EC0182
:102EA00088810E94651A21E0892B09F420E02A8399
:102EB000822FDF91CF910895CF93CFB7F89480916F
:102EC0008803811127C0EAE9F6E08491E6E8F6E09C
:102ED0009491E82FF0E0EE0FFF1FE854F94FA59111
:102EE000B4918C91892321F461E08AE00E942F1A29
:102EF00061E08AE00E94F6198CB580618CBD8CB5CA
:102F000080648CBD61E08DE00E94F61961E08BE089
:102F10000E94F619809188038F5F80938803CFBF4A
:102F2000CF910895AF92BF92CF92DF92EF92FF922E
:102F30000F931F93CF93DF93EC017B016A0159013B
:102F40006AE571E002960E94F11C6AE571E0CE012B
:102F500044960E94F11C6AE571E0CE014E960E94F3
:102F6000F11CF986E886DB86CA86BD86AC861F879B
:102F70000E87DF91CF911F910F91FF90EF90DF901F
:102F8000CF90BF90AF900895CF93DF93EC014A8527
:102F90005B856885798589E893E00E94AE0C6C8535
:102FA00089E893E00E94B40C60E070E089E893E067
:102FB0000E94BA0C4A8D5B8D6C8D7D8D22E030E0D5
:102FC00089E893E0DF91CF910C94811CCF93DF933C
:102FD000EC01488B598B6A8B7B8B0E94C4174A8506
:102FE0005B856885798589E893E00E94AE0C6C85E5
:102FF00089E893E00E94B40C6E857F8589E893E0B0
:103000000E94BA0C488959896A897B8922E030E09C
:1030100089E893E00E94811C88899989AA89BB89E3
:103020008A8F9B8FAC8FBD8FDF91CF910895CF9307
:10303000DF93EC014A855B856885798589E893E0B3
:103040000E94AE0C6C8589E893E00E94B40C60E0AD
:1030500070E089E893E00E94BA0CBE01625E7F4F87
:1030600089E893E0DF91CF910C94DE1A0F931F93C0
:10307000CF93DF93EC018C010C5E1F4FC8010E94BF
:10308000071DCE010E9417184A855B8568857985E2
:1030900089E893E00E94AE0C6C8589E893E00E9479
:1030A000B40C6E857F8589E893E00E94BA0CB80164
:1030B00089E893E00E94DE1AB801CE014E96DF91B6
:1030C000CF911F910F910C94071D28E049E06AE011
:1030D00089E893E00C94DE0C8230E8F4E82FF0E00D
:1030E000EE0FFF1FE954FC4F71836083813041F084
:1030F000809169008C7F842B80936900E89A089501
:1031000080916900440F551F440F551F837F842B06
:1031100080936900E99A08951F920F920FB60F925B
:1031200011242F933F934F935F936F937F938F93CC
:103130009F93AF93BF93EF93FF938091B7039091C9
:10314000B803892B29F0E091B703F091B8030995F2
:10315000FF91EF91BF91AF919F918F917F916F916F
:103160005F914F913F912F910F900FBE0F901F9045
:1031700018951F920F920FB60F9211242F933F9321
:103180004F935F936F937F938F939F93AF93BF936F
:10319000EF93FF938091B9039091BA03892B29F0A3
:1031A000E091B903F091BA030995FF91EF91BF91B6
:1031B000AF919F918F917F916F915F914F913F91CF
:1031C0002F910F900FBE0F901F9018951F920F9286
:1031D0000FB60F9211242F933F938F939F93AF932A
:1031E000BF938091BC039091BD03A091BE03B091A9
:1031F000BF033091BB0323E0230F2D3720F401964A
:10320000A11DB11D05C026E8230F0296A11DB11D09
:103210002093BB038093BC039093BD03A093BE0394
:10322000B093BF038091C0039091C103A091C203EA
:10323000B091C3030196A11DB11D8093C00390936B
:10324000C103A093C203B093C303BF91AF919F91F9
:103250008F913F912F910F900FBE0F901F90189557
:103260002FB7F8946091BC037091BD038091BE03A9
:103270009091BF032FBF08953FB7F8948091C0038A
:103280009091C103A091C203B091C30326B5A89B3E
:1032900005C02F3F19F00196A11DB11D3FBF662744
:1032A000782F892F9A2F620F711D811D911D42E089
:1032B000660F771F881F991F4A95D1F70895CF92FF
:1032C000DF92EF92FF92CF93DF936B017C010E941C
:1032D0003C19EB01C114D104E104F10489F00E940E
:1032E0006B1D0E943C196C1B7D0B683E734090F374
:1032F00081E0C81AD108E108F108C851DC4FEACFD3
:10330000DF91CF91FF90EF90DF90CF9008958230C2
:10331000910538F0880F991F880F991F059701971D
:10332000F1F70895789484B5826084BD84B5816096
:1033300084BD85B5826085BD85B5816085BDEEE6BD
:10334000F0E0808181608083E1E8F0E0108280819C
:1033500082608083808181608083E0E8F0E080810A
:1033600081608083E1EBF0E0808184608083E0EB2A
:10337000F0E0808181608083EAE7F0E08081846012
:10338000808380818260808380818160808380816E
:10339000806880831092C1000895833081F028F402
:1033A000813099F08230A1F008958730A9F08830FB
:1033B000B9F08430D1F4809180008F7D03C080917A
:1033C00080008F7780938000089584B58F7702C046
:1033D00084B58F7D84BD08958091B0008F7703C040
:1033E0008091B0008F7D8093B0000895CF93DF93DC
:1033F00090E0FC01E458F94F2491FC01E057F94FAB
:103400008491882349F190E0880F991FFC01E854CA
:10341000F94FA591B4918255994FFC01C591D49172
:103420009FB7611108C0F8948C91209582238C93EA
:10343000888182230AC0623051F4F8948C91322F33
:10344000309583238C938881822B888304C0F894E1
:103450008C91822B8C939FBFDF91CF9108950F9316
:103460001F93CF93DF931F92CDB7DEB7282F30E0A5
:10347000F901E859F94F8491F901E458F94F149191
:10348000F901E057F94F04910023C9F0882321F096
:1034900069830E94CD196981E02FF0E0EE0FFF1FD4
:1034A000E255F94FA591B4919FB7F8948C916111B1
:1034B00003C01095812301C0812B8C939FBF0F9077
:1034C000DF91CF911F910F910895CF93DF93282F14
:1034D00030E0F901E859F94F8491F901E458F94FC6
:1034E000D491F901E057F94FC491CC2391F08111A7
:1034F0000E94CD19EC2FF0E0EE0FFF1FEC55F94FB5
:10350000A591B4912C912D2381E090E021F480E0ED
:1035100002C080E090E0DF91CF9108950E94A42145
:1035200008950E9492190E94901A0E948507C0E097
:10353000D0E00E9481052097E1F30E940000F9CFBE
:10354000CF92DF92EF92FF920F931F93CF93DF936F
:103550006C017A01EB01E60EF71E00E010E0CE15DB
:10356000DF0561F06991D601ED91FC910190F08148
:10357000E02DC6010995080F191FF1CFC801DF9191
:10358000CF911F910F91FF90EF90DF90CF90089512
:103590006115710581F0DB010D900020E9F7AD01A7
:1035A00041505109461B570BDC01ED91FC91028003
:1035B000F381E02D099480E090E00895DC01ED9125
:1035C000FC91DB0114964D915C9115976D917C9166
:1035D0000280F381E02D0994DC01ED91FC910190D2
:1035E000F081E02D09948F929F92AF92BF92CF927B
:1035F000DF92EF92FF920F931F93CF93DF93CDB79C
:10360000DEB7A1970FB6F894DEBF0FBECDBF7C0129
:10361000C42EE52FCB01D22E19A221E02D1510F0DA
:103620002AE0D22E8E010F5D1F4F8D2C912CA12CE4
:10363000B12C6C2D7E2FA50194010E948B1F8C2D27
:10364000D29E80191124015011098A3014F4805D32
:1036500001C0895CF80180832115310541055105C0
:1036600021F0C22EE32FCA01E4CFB801C7010E94A6
:10367000C81AA1960FB6F894DEBF0FBECDBFDF917A
:10368000CF911F910F91FF90EF90DF90CF90BF905F
:10369000AF909F908F900895CF92DF92EF92FF921C
:1036A0000F931F93CF93DF93EC016A017B012115E8
:1036B000310579F4E881F9810190F081E02D642FE2
:1036C000DF91CF911F910F91FF90EF90DF90CF90FE
:1036D00009942A303105E9F477FF1AC06DE20E949F
:1036E000EC1A8C0144275527BA014C195D096E0963
:1036F0007F092AE0CE010E94F31A800F911FDF910B
:10370000CF911F910F91FF90EF90DF90CF90089590
:103710002AE0B701A601CE01DF91CF911F910F9151
:10372000FF90EF90DF90CF900C94F31A4F925F923E
:103730006F927F928F929F92AF92BF92CF92DF92C1
:10374000EF92FF920F931F93CF93DF93EC016A01E7
:103750007B01B22E9A01AB01C701B6010E94871FFF
:10376000882319F06BE571E027C026013701E89442
:1037700077F82FEF3FEF4FE75FE7C301B2010E94F9
:10378000871F81110DC02FEF3FEF4FE75FE7C301A8
:10379000B2010E94D11D18161CF46FE571E00CC037
:1037A0002FEF3FEF4FE75FE4C701B6010E94201FF4
:1037B0001816ACF463E671E0CE01DF91CF911F9152
:1037C0000F91FF90EF90DF90CF90BF90AF909F90C0
:1037D0008F907F906F905F904F900C94C81A2FEF4E
:1037E0003FEF4FE75FECC701B6010E94D11D87FD97
:1037F000E1CF20E030E0A901C701B6010E94D11D50
:1038000087FF0AC06DE2CE010E94EC1A8C01F7FA24
:10381000F094F7F8F09402C000E010E0A12C60E012
:1038200070E080E09FE3AB1441F020E030E040E244
:1038300051E40E94D51DA394F6CF9B01AC01C701B2
:10384000B6010E946D1D6B017C010E94421E2B017E
:103850003C010E946E1E9B01AC01C701B6010E9493
:103860006C1D6B017C012AE0B301A201CE010E9414
:10387000F31A080F191FBB2039F067E671E0CE017B
:103880000E94C81A080F191F7B2C772041F120E0F5
:1038900030E040E251E4C701B6010E94241F6B01F1
:1038A0007C010E943D1E4B01AA2497FCA094BA2CD7
:1038B0002AE030E0B501A401CE010E944C1B080FA4
:1038C000191FC501B4010E94701E9B01AC01C70104
:1038D000B6010E946C1D6B017C017A94D6CFC801A1
:1038E000DF91CF911F910F91FF90EF90DF90CF90DC
:1038F000BF90AF909F908F907F906F905F904F9010
:1039000008950C94961BFC01808191810C944B20AE
:10391000CF93DF93EC0188819981009711F00E9489
:103920004B20198218821D821C821B821A82DF9111
:10393000CF9108950F931F93CF93DF93EC018B01E9
:103940006F5F7F4F888199810E94DA20009731F064
:10395000998388831B830A8381E001C080E0DF9123
:10396000CF911F910F910895CF93DF93EC01888140
:103970009981892B29F08A819B818617970760F4AA
:10398000CE010E949A1C882341F08C819D81892B55
:1039900019F4E881F981108281E0DF91CF910895D7
:1039A000EF92FF920F931F93CF93DF93EC017B0174
:1039B0008A01BA010E94B41C811104C0CE010E9488
:1039C000881C07C01D830C83B701888199810E94E0
:1039D000B221CE01DF91CF911F910F91FF90EF9017
:1039E0000895FC01118210821382128215821482C2
:1039F0006115710559F0FB0101900020E9F7AF0155
:103A000041505109461B570B0C94D01C0895CF937D
:103A1000DF93EC01FB018617970761F060817181EC
:103A20006115710529F0448155810E94D01C02C0A6
:103A30000E94881CCE01DF91CF910895FC01118274
:103A4000108213821282158214820C94071DCF9368
:103A5000DF93EC016115710561F0FB01019000201D
:103A6000E9F7AF0141505109461B570B0E94D01C8A
:103A700002C00E94881CCE01DF91CF9108950F9360
:103A80001F93CF93DF93CDB7DEB762970FB6F8944D
:103A9000DEBF0FBECDBF8C01CB01F80111821082B9
:103AA000138212821582148250E0BE016F5F7F4F35
:103AB0000E94B921BE016F5F7F4FC8010E94271D80
:103AC00062960FB6F894DEBF0FBECDBFDF91CF91E7
:103AD0001F910F91089508955058BB27AA270ED023
:103AE00075C166D130F06BD120F031F49F3F11F4F5
:103AF0001EF45BC10EF4E095E7FB51C1E92F77D1CD
:103B000080F3BA17620773078407950718F071F4FA
:103B10009EF58FC10EF4E0950B2EBA2FA02D0B0150
:103B2000B90190010C01CA01A0011124FF27591B02
:103B300099F0593F50F4503E68F11A16F040A22F08
:103B4000232F342F4427585FF3CF46953795279579
:103B5000A795F0405395C9F77EF41F16BA0B620B78
:103B6000730B840BBAF09150A1F0FF0FBB1F661FBF
:103B7000771F881FC2F70EC0BA0F621F731F841F02
:103B800048F4879577956795B795F7959E3F08F028
:103B9000B3CF9395880F08F09927EE0F97958795E7
:103BA0000895D9D008F481E008950CD00FC107D151
:103BB00040F0FED030F021F45F3F19F0F0C0511119
:103BC00039C1F3C014D198F39923C9F35523B1F344
:103BD000951B550BBB27AA2762177307840738F07C
:103BE0009F5F5F4F220F331F441FAA1FA9F333D0DB
:103BF0000E2E3AF0E0E830D091505040E695001C8F
:103C0000CAF729D0FE2F27D0660F771F881FBB1F4A
:103C1000261737074807AB07B0E809F0BB0B802D24
:103C2000BF01FF2793585F4F2AF09E3F510568F070
:103C3000B6C000C15F3FECF3983EDCF38695779504
:103C40006795B795F7959F5FC9F7880F911D969572
:103C5000879597F90895E1E0660F771F881FBB1FCE
:103C6000621773078407BA0720F0621B730B840B7B
:103C7000BA0BEE1F88F7E095089504D06894B1114F
:103C8000D9C00895BCD088F09F5790F0B92F9927DC
:103C9000B751A0F0D1F0660F771F881F991F1AF057
:103CA000BA95C9F712C0B13081F0C3D0B1E0089520
:103CB000C0C0672F782F8827B85F39F0B93FCCF3A1
:103CC000869577956795B395D9F73EF4909580954D
:103CD000709561957F4F8F4F9F4F0895E89409C06D
:103CE00097FB3EF490958095709561957F4F8F4F2F
:103CF0009F4F9923A9F0F92F96E9BB279395F69545
:103D0000879577956795B795F111F8CFFAF4BB0FC2
:103D100011F460FF1BC06F5F7F4F8F4F9F4F16C026
:103D2000882311F096E911C0772321F09EE8872FB0
:103D3000762F05C0662371F096E8862F70E060E06C
:103D40002AF09A95660F771F881FDAF7880F9695E5
:103D5000879597F90895990F0008550FAA0BE0E889
:103D6000FEEF16161706E807F907C0F0121613063D
:103D7000E407F50798F0621B730B840B950B39F47D
:103D80000A2661F0232B242B252B21F408950A26E3
:103D900009F4A140A6958FEF811D811D089597F923
:103DA0009F6780E870E060E008959FEF80EC0895E1
:103DB00000240A941616170618060906089500240A
:103DC0000A9412161306140605060895092E039484
:103DD000000C11F4882352F0BB0F40F4BF2B11F4F8
:103DE00060FF04C06F5F7F4F8F4F9F4F089557FD57
:103DF0009058440F551F59F05F3F71F04795880F59
:103E000097FB991F61F09F3F79F0879508951216EF
:103E100013061406551FF2CF4695F1DF08C016169B
:103E200017061806991FF1CF86957105610508944C
:103E30000895E894BB2766277727CB0197F9089563
:103E40008ADF08F48FEF08950BD0C0CFB1DF28F0E0
:103E5000B6DF18F0952309F0A2CFA7CF1124EACF3F
:103E6000C6DFA0F3959FD1F3950F50E0551F629FD9
:103E7000F001729FBB27F00DB11D639FAA27F00DC3
:103E8000B11DAA1F649F6627B00DA11D661F829FEA
:103E90002227B00DA11D621F739FB00DA11D621FCF
:103EA000839FA00D611D221F749F3327A00D611DEC
:103EB000231F849F600D211D822F762F6A2F1124CE
:103EC0009F5750408AF0E1F088234AF0EE0FFF1F21
:103ED000BB1F661F771F881F91505040A9F79E3F58
:103EE000510570F05CCFA6CF5F3FECF3983EDCF35A
:103EF000869577956795B795F795E7959F5FC1F795
:103F0000FE2B880F911D9695879597F9089523DFCD
:103F1000880B990B0895A1E21A2EAA1BBB1BFD0169
:103F20000DC0AA1FBB1FEE1FFF1FA217B307E40798
:103F3000F50720F0A21BB30BE40BF50B661F771FF0
:103F4000881F991F1A9469F76095709580959095D0
:103F50009B01AC01BD01CF010895EE0FFF1F05903D
:103F6000F491E02D0994CF93DF938230910510F402
:103F700082E090E0E091C603F091C70320E030E0DA
:103F8000A0E0B0E0309739F14081518148175907DE
:103F9000B8F04817590771F482819381109729F07E
:103FA00013969C938E9312972CC09093C703809383
:103FB000C60327C02115310531F04217530718F009
:103FC000A901DB0101C0EF019A01BD01DF010280FF
:103FD000F381E02DD7CF21153105F9F0281B390BDE
:103FE0002430310580F48A819B816115710521F0AF
:103FF000FB019383828304C09093C7038093C6031D
:10400000FE01329644C0FE01E20FF31F81939193AB
:1040100022503109398328833AC02091C40330915A
:10402000C503232B41F42091020130910301309309
:10403000C5032093C4032091000130910101211593
:10404000310541F42DB73EB740910401509105016F
:10405000241B350BE091C403F091C503E217F3076D
:10406000A0F42E1B3F0B2817390778F0AC014E5FE8
:104070005F4F2417350748F04E0F5F1F5093C5035D
:104080004093C4038193919302C0E0E0F0E0CF013C
:10409000DF91CF910895CF93DF93009709F487C004
:1040A000FC01329713821282C091C603D091C703DC
:1040B000209781F420813181280F391F8091C4031A
:1040C0009091C5038217930779F5F093C503E093A8
:1040D000C4036DC0DE0120E030E0AE17BF0750F42E
:1040E00012964D915C9113979D014115510509F16F
:1040F000DA01F3CFB383A28340815181840F951FEE
:104100008A179B0771F48D919C911197840F951FCD
:1041100002969183808312968D919C91139793833D
:1041200082832115310529F4F093C703E093C60378
:104130003EC0D9011396FC93EE9312974D915D9179
:10414000A40FB51FEA17FB0779F480819181840FD2
:10415000951F0296D90111969C938E93828193812B
:1041600013969C938E931297E0E0F0E08A819B81F6
:10417000009719F0FE01EC01F9CFCE0102962881DB
:104180003981820F931F2091C4033091C5032817F2
:10419000390769F4309729F41092C7031092C603C7
:1041A00002C013821282D093C503C093C403DF916F
:1041B000CF910895A0E0B0E0E0EEF0E20C94FD2194
:1041C000EC01CB01209719F40E94B31FB8C0FE0187
:1041D000E60FF71F9E0122503109E217F30708F49A
:1041E000ACC0D9010D911C91119706171707B8F0B3
:1041F0000530110508F49FC0A80144505109461725
:10420000570708F498C002501109061B170B0193B9
:1042100011936D937C93CF010E944B208CC05B0166
:10422000A01AB10A4E01800E911EA091C603B09152
:10423000C703612C712C60E070E0109709F449C04D
:10424000A815B905C9F5ED90FC901197670142E0FA
:10425000C40ED11CCA14DB0478F147018A189B08EC
:10426000640142E0C40ED11C1296BC9012971396C2
:10427000AC91B5E0CB16D10440F0B282A383918219
:104280008082D9018D939C9309C00E5F1F4F0E0D44
:104290001F1DF90111830083EB2DFA2F61157105A4
:1042A00031F0DB011396FC93EE93129744C0F09328
:1042B000C703E093C6033FC06D917C9111976616CA
:1042C000770608F43B01BD0112960D90BC91A02D1C
:1042D000B4CF6091C4037091C50368157905E9F402
:1042E00068167906D0F44091000150910101411502
:1042F000510541F44DB75EB760910401709105011D
:10430000461B570BE417F507C0F4F093C503E09381
:10431000C403F901918380830EC00E94B31F7C0106
:10432000009759F0A801BE010E94A921CE010E9468
:104330004B20C70104C0CE0102C080E090E0CDB7A1
:10434000DEB7EEE00C94192281E090E0F8940C9432
:104350003022FB01DC0102C001900D92415050401F
:10436000D8F70895FB01DC0101900D920020E1F7E0
:1043700008954532510520F4423010F00C94C421C8
:10438000FB011082CB010895BB274A3031F49923F9
:1043900022F4BDE2909581959F4F0C94D021BB27CC
:1043A000FB015527AA27880F991FAA1FA41710F0F1
:1043B000A41B83955051B9F7A05DAA3308F0A95DFD
:1043C000A193009779F7B111B1931192CB010C949D
:1043D000E921DC01FC01672F71917723E1F7329726
:1043E00004C07C916D9370836291AE17BF07C8F3D0
:1043F00008952F923F924F925F926F927F928F9289
:104400009F92AF92BF92CF92DF92EF92FF920F9363
:104410001F93CF93DF93CDB7DEB7CA1BDB0B0FB66D
:10442000F894DEBF0FBECDBF09942A88398848882A
:104430005F846E847D848C849B84AA84B984C884C0
:10444000DF80EE80FD800C811B81AA81B981CE0FB7
:10445000D11D0FB6F894DEBF0FBECDBFED0108959C
:1044600016E0C6ECD6E004C0FE010E94AF1F229603
:0A447000C83CD107C9F7F894FFCF4C
:10447A000000C8038000014D6F6465005365740035
:10448A0045786974005441524745540046616E00AC
:10449A00414D4249454E5400000000005A0CA01AF2
:1044AA008E1AD209D80AEF0A890A050B3A0B580B59
:1044BA00000000005A0CA01ADB0FD2091C106F1062
:1044CA00890AC210C00C550D0D0A006E616E006992
:0A44DA006E66006F7666002E00008B
:00000001FF
