:100000000C9464030C945C1E0C94891E0C948C0359
:100010000C948C030C948C030C948C030C948C0324
:100020000C948C030C948C030C948C030C948C0314
:100030000C948C030C948C030C948C030C948C0304
:100040000C94B61E0C948C030C948C030C948C03AF
:100050000C948C030C948C030C948C030C948C03E4
:100060000C948C030C948C0300000000003E5B4F4A
:100070005B3E3E6B4F6B3E1C3E7C3E1C183C7E3C08
:10008000181C577D571C1C5E7F5E1C00183C180016
:10009000FFE7C3E7FF0018241800FFE7DBE7FF30A6
:1000A000483A060E2629792926407F050507407F14
:1000B00005253F5A3CE73C5A7F3E1C1C08081C1C87
:1000C0003E7F14227F22145F5F005F5F06097F017D
:1000D0007F006689956A606060606094A2FFA29468
:1000E00008047E040810207E201008082A1C080836
:1000F0001C2A08081E101010100C1E0C1E0C303884
:100100003E3830060E3E0E06000000000000005F84
:1001100000000007000700147F147F14242A7F2AA0
:100120001223130864623649562050000807030062
:10013000001C2241000041221C002A1C7F1C2A08AE
:10014000083E080800807030000808080808000011
:1001500060600020100804023E5149453E00427F85
:10016000400072494949462141494D331814127FD4
:100170001027454545393C4A494931412111090774
:100180003649494936464949291E000014000000F5
:1001900040340000000814224114141414140041C7
:1001A00022140802015909063E415D594E7C121184
:1001B000127C7F494949363E414141227F414141BC
:1001C0003E7F494949417F090909013E4141517337
:1001D0007F0808087F00417F41002040413F017FA8
:1001E000081422417F404040407F021C027F7F0470
:1001F00008107F3E4141413E7F090909063E4151B9
:10020000215E7F09192946264949493203017F01A8
:10021000033F4040403F1F2040201F3F4038403FA9
:10022000631408146303047804036159494D4300BF
:100230007F4141410204081020004141417F0402F6
:10024000010204404040404000030708002054548D
:1002500078407F284444383844444428384444286B
:100260007F385454541800087E090218A4A49C78BE
:100270007F0804047800447D40002040403D007F1A
:100280001028440000417F40007C047804787C08FA
:100290000404783844444438FC18242418182424CE
:1002A00018FC7C08040408485454542404043F44B3
:1002B000243C4040207C1C2040201C3C4030403CE2
:1002C00044281028444C9090907C4464544C440042
:1002D00008364100000077000000413608000201A6
:1002E0000204023C2623263C1EA1A161123A404092
:1002F000207A38545455592155557941225454780F
:1003000042215554784020545579400C1E527212A7
:100310003955555559395454545939555454580030
:1003200000457C410002457D420001457C407D1234
:1003300011127DF0282528F07C5455450020545496
:100340007C547C0A097F4932494949323A44444441
:100350003A324A4848303A4141217A3A424020787C
:10036000009DA0A07D3D4242423D3D4040403D3C7D
:1003700024FF2424487E4943662B2FFC2F2BFF09A2
:1003800029F620C0887E0903205454794100004496
:100390007D413048484A32384040227A007A0A0A81
:1003A000727D0D19317D2629292F282629292926F4
:1003B00030484D4020380808080808080808382F39
:1003C00010C8ACBA2F102834FA00007B00000814C3
:1003D0002A142222142A14085500550055AA55AA99
:1003E00055AAFF55FF55FF000000FF00101010FF39
:1003F00000141414FF001010FF00FF1010F010F094
:10040000141414FC001414F700FF0000FF00FF1484
:1004100014F404FC141417101F10101F101F1414D0
:10042000141F00101010F0000000001F101010101A
:100430001F10101010F010000000FF10101010100E
:1004400010101010FF10000000FF140000FF00FF4C
:1004500000001F10170000FC04F4141417101714E8
:1004600014F404F40000FF00F7141414141414140A
:10047000F700F7141414171410101F101F1414147D
:10048000F4141010F010F000001F101F0000001FE7
:1004900014000000FC140000F010F01010FF10FF1A
:1004A000141414FF141010101F00000000F010FFAF
:1004B000FFFFFFFFF0F0F0F0F0FFFFFF0000000093
:1004C00000FFFF0F0F0F0F0F3844443844FC4A4A17
:1004D0004A347E02020606027E027E0263554941CC
:1004E000633844443C04407E201E2006027E020203
:1004F00099A5E7A5991C2A492A1C4C7201724C3017
:100500004A4D4D303048784830BC625A463D3E49ED
:100510004949007E0101017E2A2A2A2A2A44445F91
:10052000444440514A444040444A51400000FF0185
:1005300003E080FF000008086B6B08361236243693
:10054000060F090F060000181800000010100030F8
:1005500040FF0101001F01011E00191D1712003C80
:100560003C3C3C0000000000005EBCE2613FDD83DB
:10057000C29C7E20A3FD1F419DC3217FFCA2401E83
:100580005F01E3BD3E6082DC237D9FC1421CFEA073
:10059000E1BF5D0380DE3C62BEE0025CDF81633D63
:1005A0007C22C09E1D43A1FF4618FAA427799BC553
:1005B00084DA3866E5BB5907DB856739BAE4065843
:1005C0001947A5FB7826C49A653BD987045AB8E633
:1005D000A7F91B45C6987A24F8A6441A99C7257B23
:1005E0003A6486D85B05E7B98CD2306EEDB3510F13
:1005F0004E10F2AC2F7193CD114FADF3702ECC9203
:10060000D38D6F31B2EC0E50AFF1134DCE90722CF2
:100610006D33D18F0C52B0EE326C8ED0530DEFB1E2
:10062000F0AE4C1291CF2D73CA947628ABF51749D2
:100630000856B4EA6937D58B5709EBB536688AD4C2
:1006400095CB2977F4AA4816E9B7550B88D6346AB2
:100650002B7597C94A14F6A8742AC896154BA9F7A2
:10066000B6E80A54D7896B35000000080002010083
:10067000000304070000000000000000010204085D
:1006800010204080010204081020010204081020FC
:100690000404040404040404020202020202030328
:1006A00003030303000000002300260029000000CC
:1006B0000000250028002B00000000002400270077
:1006C0002A001F0B351E5B0C11241FBECFEFD8E094
:1006D000DEBFCDBF11E0A0E0B1E0E2E9FFE402C07F
:1006E00005900D92A43AB107D9F724E0A4EAB1E04D
:1006F00001C01D92A236B207E1F716E0C6ECD6E0C3
:1007000004C02297FE010E947225C23CD107C9F79E
:100710000E9461200C94BC270C940000DC01ED9138
:10072000FD918081ED91FD919081ED91FD916C9114
:1007300063708E2309F064609F2309F06860EBEA20
:10074000F3E0E60FF11D659565956D936D917D91D3
:100750008D919D91099423C01AC012C016C010C07B
:100760001EC009C014C013C006C019C009C00DC006
:1007700007C00DC014C062507040804090400BC054
:10078000615070408040904006C06E5F01C06F5F56
:100790007F4F8F4F9F4F9E938E937E936E930895BE
:1007A00080912004909121040C948E0380911E046A
:1007B00090911F040C948E03CF93DF9300D000D050
:1007C00000D0CDB7DEB78DEB91E00E94920E813064
:1007D000910571F02CF4892BF9F467E071E00DC0FC
:1007E0008230910541F00397B9F465E171E005C0ED
:1007F0006BE071E002C060E171E0CE0101960E9401
:10080000C122BE016F5F7F4F8CE493E00E94061E01
:10081000CE0101960E94532226960FB6F894DEBFB1
:100820000FBECDBFDF91CF91089580911D0482301E
:1008300030F4F89482E194E00E948E0301C0F894B1
:100840008091190490911A04A0911B04B0911C048A
:1008500078940497A105B1051CF08FEF9FEF1BC0A2
:1008600080911D04823030F4F89482E194E00E947B
:100870008E0301C0F8948091190490911A04A091FC
:100880001B04B0911C0478948D3F9F4FAF4FBF4F16
:100890008CF481E090E09093110480931004F8941C
:1008A0001092190410921A0410921B0410921C0446
:1008B000789404C0109211041092100480911004D6
:1008C000909111040895CF92DF92EF92FF928130C0
:1008D000910589F48DEB91E00E94880E6B017C01FB
:1008E0008DEB91E00E94520E9B01AC01C701B60155
:1008F0000E94302314C08F3F2FEF920771F58DEBCC
:1009000091E00E94880E6B017C018DEB91E00E94CA
:10091000520E9B01AC01C701B6010E942F23AB010F
:10092000BC018DEB91E00E94820E8DEB91E00E9464
:10093000880EAB01BC0184EA91E00E94FA0E8DEBB7
:1009400091E00E94880EAB01BC0183E293E0FF902E
:10095000EF90DF90CF900C94B61D892B71F48DEB46
:1009600091E00E94880EAB01BC0184EA91E0FF9007
:10097000EF90DF90CF900C94FA0EFF90EF90DF9005
:10098000CF90089581309105E1F48DEB91E00E94C4
:10099000520E20E030E040E45FE30E94E3241816AA
:1009A0002CF440E050E060E87FE32CC08DEB91E058
:1009B0000E94520E20E030E040E85EE30E943023C7
:1009C0001FC08F3F2FEF920759F58DEB91E00E94EA
:1009D000520E20E030E040E05FE30E94942387FF66
:1009E00005C040E050E060E87EE30CC08DEB91E094
:1009F0000E94520E20E030E040E85EE30E942F2388
:100A0000AB01BC018DEB91E00E944C0E8DEB91E0AF
:100A10000E94520EAB01BC0183E293E00C94B61D20
:100A2000892B51F48DEB91E00E94520EAB01BC0179
:100A30008DEB91E00C944C0E089581309105E1F41A
:100A40008DEB91E00E94460E20E030E040E45FE351
:100A50000E94E32418162CF440E050E060E87FE3A5
:100A60002CC08DEB91E00E94460E20E030E040E883
:100A70005EE30E9430231FC08F3F2FEF9207A9F53E
:100A80008DEB91E00E94460E20E030E040E05FE315
:100A90000E94942387FF05C040E050E060E87EE3B9
:100AA0000CC08DEB91E00E94460E20E030E040E863
:100AB0005EE30E942F23AB01BC018DEB91E00E940D
:100AC000400E8DEB91E00E94460EAB01BC0184EA22
:100AD00091E00E94EE0E8DEB91E00E94460EAB017C
:100AE000BC0183E293E00C94B61D892BA1F48DEB3D
:100AF00091E00E94460EAB01BC018DEB91E00E949B
:100B0000400E8DEB91E00E94460EAB01BC0184EAE1
:100B100091E00C94EE0E0895CF92DF92EF92FF9247
:100B20008130910511F58DEB91E00E945E0E20E081
:100B300030E048EE51E40E94E32418162CF440E023
:100B400050E060EF71E438C08DEB91E00E945E0EE2
:100B50006B017C018DEB91E00E94520E9B01AC0178
:100B6000C701B6010E94302325C08F3F2FEF9207A7
:100B7000A9F58DEB91E00E945E0E2DEC3CEC48EC6B
:100B800051E40E94942387FF05C040E050E068ECE8
:100B900071E412C08DEB91E00E945E0E6B017C014E
:100BA0008DEB91E00E94520E9B01AC01C701B60192
:100BB0000E942F23AB01BC018DEB91E00E94580EE7
:100BC0008DEB91E00E945E0EAB01BC0183E293E0ED
:100BD000FF90EF90DF90CF900C94B61D892B71F4AD
:100BE0008DEB91E00E945E0EAB01BC018DEB91E0BC
:100BF000FF90EF90DF90CF900C94580EFF90EF9005
:100C0000DF90CF900895CF92DF92EF92FF928130E4
:100C1000910511F58DEB91E00E946A0E20E030E025
:100C200048EB51E40E94E32418162CF440E050E015
:100C300060EC71E438C08DEB91E00E946A0E6B01AC
:100C40007C018DEB91E00E94520E9B01AC01C7012B
:100C5000B6010E94302325C08F3F2FEF9207A9F5E0
:100C60008DEB91E00E946A0E2DEC3CEC40E951E4E2
:100C70000E94942387FF05C040E050E060E971E4E2
:100C800012C08DEB91E00E946A0E6B017C018DEB2E
:100C900091E00E94520E9B01AC01C701B6010E9477
:100CA0002F23AB01BC018DEB91E00E94640E8DEB14
:100CB00091E00E946A0EAB01BC0183E293E0FF90D9
:100CC000EF90DF90CF900C94B61D892B71F48DEBD3
:100CD00091E00E946A0EAB01BC018DEB91E0FF90A8
:100CE000EF90DF90CF900C94640EFF90EF90DF9028
:100CF000CF900895CF93DF9300D000D000D0CDB730
:100D0000DEB783E293E00E94941D8AEF92E00E9496
:100D1000E71D60EF73E0CE0101960E94EE22BE0156
:100D20006F5F7F4F81ED92E00E94061ECE0101961B
:100D30000E94532266EF73E0CE0101960E94EE22DC
:100D4000BE016F5F7F4F8FE792E00E94061ECE01CB
:100D500001960E9453226AEE73E0CE0101960E9432
:100D6000EE22BE016F5F7F4F88EA92E00E94061E6E
:100D7000CE0101960E94532268EC70E080E090E082
:100D80000E942F1F26960FB6F894DEBF0FBECDBF70
:100D9000DF91CF910895CF93DF9300D000D000D0A2
:100DA000CDB7DEB781ED92E00E94E71D8FE792E0BC
:100DB0000E94E71D88EA92E00E94E71D8DEB91E01A
:100DC0000E94880EAB01BC0183E293E00E94B61D35
:100DD0006CE973E0CE0101960E94EE22BE016F5FC6
:100DE0007F4F8AEF92E00E94061ECE0101960E947C
:100DF00053220E94DC0368EC70E080E090E00E94E7
:100E00002F1F26960FB6F894DEBF0FBECDBFDF9121
:100E1000CF9108950F931F93CF93DF9300D000D00D
:100E200000D0CDB7DEB78C01BC016A5F7F4FCE0129
:100E300001960E94EE22BE016F5F7F4F81ED92E02E
:100E40000E94061ECE0101960E945322B801645FE3
:100E50007F4FCE0101960E94EE22BE016F5F7F4F51
:100E60008FE792E00E94061ECE0101960E94532257
:100E7000B801CE0101960E94EE22BE016F5F7F4F46
:100E800088EA92E00E94061ECE0101960E9453223B
:100E900026960FB6F894DEBF0FBECDBFDF91CF917F
:100EA0001F910F910895AF92BF92CF92DF92EF9270
:100EB000FF920F931F93CF93DF93EC017B01BC0153
:100EC00082E094E00E94D722CE0100E010E05701BA
:100ED00021E0A21AB1086C0126E0C20ED11C0A154D
:100EE0001B053CF4B6010E94D7220F5F1F4FC601BD
:100EF000F2CF26E02E9DC0012F9D900D1124069764
:100F000062E074E08C0F9D1FDF91CF911F910F91D4
:100F1000FF90EF90DF90CF90BF90AF900C94D722CE
:100F2000EF92FF920F931F93CF93DF938C017B017E
:100F300086E0869FE001879FD00D1124BE01665098
:100F40007109600F711F82E094E00E94D722C00FE8
:100F5000D11F81E0E81AF1082697F7FC07C0BE010F
:100F600066507109CE010E94D722F3CF62E074E08F
:100F7000C801DF91CF911F910F91FF90EF900C94DA
:100F8000D722CF938DEB91E00E94520EAB01BC01B2
:100F900083E293E00E94B61DC1E0809108048111B4
:100FA00023C08DE094E00E941D1D809306010E94E5
:100FB00015040E94C20464E170E080E090E00E94A9
:100FC0002F1F8DE094E00E941D1D8111E6CF8091BE
:100FD0000601882311F364E170E080E090E00E9454
:100FE0002F1FC0930804D9CFCF910895CF938DEBD5
:100FF00091E00E94460EAB01BC0183E293E00E94A7
:10100000B61DC1E080910804811123C08DE094E0F9
:101010000E941D1D809306010E9415040E941D055B
:1010200064E170E080E090E00E942F1F8DE094E08A
:101030000E941D1D8111E6CF80910601882311F3C6
:1010400064E170E080E090E00E942F1FC0930804EC
:10105000D9CFCF910895CF938DEB91E00E945E0E92
:10106000AB01BC0183E293E00E94B61DC1E0809118
:101070000804811123C08DE094E00E941D1D80931F
:1010800006010E9415040E948C0564E170E080E076
:1010900090E00E942F1F8DE094E00E941D1D8111A1
:1010A000E6CF80910601882311F364E170E080E0CF
:1010B00090E00E942F1FC0930804D9CFCF910895CC
:1010C000CF938DEB91E00E946A0EAB01BC0183E2ED
:1010D00093E00E94B61DC1E080910804811123C0F5
:1010E0008DE094E00E941D1D809306010E9415046E
:1010F0000E94030664E170E080E090E00E942F1FF0
:101100008DE094E00E941D1D8111E6CF80910601C3
:10111000882311F364E170E080E090E00E942F1FCB
:10112000C0930804D9CFCF91089568ED73E082E0B1
:1011300094E00E94D72269E171E082E094E00E948D
:101140000F2381112FC06EE171E082E094E00E94D4
:101150000F23811113C063E271E082E094E00E94EA
:101160000F2381110EC068E271E082E094E00E94DA
:101170000F238823B9F060E070E005C061E070E003
:1011800002C062E070E08DEB91E00E948E0E8DEB6C
:1011900091E00E94920EBC0184EA91E00E94000F4F
:1011A0000E94DC0381E080930804089582ED93E0BF
:1011B0000E940A078091080481113EC08DE094E0EE
:1011C0000E941D1D809306010E9415048F3F2FEF82
:1011D000920749F0019789F464E070E082ED93E0B2
:1011E0000E94900706C064E070E082ED93E00E94E8
:1011F000530782ED93E00E940A078DE094E00E947D
:101200001D1D8111D7CF80910601882399F264E1D9
:1012100070E080E090E00E942F1F81ED92E00E943C
:10122000E71D8FE792E00E94E71D88EA92E00E94A6
:10123000E71D0E949508BECF089568EA73E082E03A
:1012400094E00E94D72269E171E082E094E00E947C
:101250000F23811124C06CE271E082E094E00E94CF
:101260000F2381110BC061E371E082E094E00E94E2
:101270000F238823A1F063E070E002C060E070E01B
:101280008DEB91E00E948E0E8DEB91E00E94920E0C
:10129000BC0184EA91E00E94000F0E94DC0381E01F
:1012A00080930804089582EA93E00E940A078091DF
:1012B000080481113EC08DE094E00E941D1D8093C2
:1012C00006010E9415048F3F2FEF920749F0019706
:1012D00089F463E070E082EA93E00E94900706C020
:1012E00063E070E082EA93E00E94530782EA93E0B1
:1012F0000E940A078DE094E00E941D1D8111D7CF46
:1013000080910601882399F264E170E080E090E02A
:101310000E942F1F81ED92E00E94E71D8FE792E06F
:101320000E94E71D88EA92E00E94E71D0E941D09C5
:10133000BECF08956AEB73E082E094E00E94D7226A
:1013400069E171E082E094E00E940F2381112BC0DB
:1013500064E371E082E094E00E940F2381111BC0DE
:101360006AE371E082E094E00E940F23811116C0CD
:101370006EE371E082E094E00E940F23811111C0BE
:1013800062E471E082E094E00E940F23882359F028
:101390000E94C10708C00E94F60705C00E942B08E2
:1013A00002C00E94600881E080930804089584EBE5
:1013B00093E00E940A078091080481113EC08DE0ED
:1013C00094E00E941D1D809306010E9415048F3F2A
:1013D0002FEF920749F0019789F465E070E084EB04
:1013E00093E00E94900706C065E070E084EB93E014
:1013F0000E94530784EB93E00E940A078DE094E07B
:101400000E941D1D8111D7CF80910601882399F27A
:1014100064E170E080E090E00E942F1F81ED92E097
:101420000E94E71D8FE792E00E94E71D88EA92E0A4
:101430000E94E71D0E949A09BECF089560EF73E0F5
:1014400082E094E00E94D72269E171E082E094E0BA
:101450000E940F23811118C067E471E082E094E0DC
:101460000E940F23811114C06CE471E082E094E0CB
:101470000E940F2381110EC060E571E082E094E0CC
:101480000E940F23811108C081E080930804089511
:101490000C94D6080C94D7090C9453098091080435
:1014A00081113EC08DE094E00E941D1D80930601D5
:1014B0000E9415048F3F2FEF920749F0019789F49E
:1014C00064E070E08AEE93E00E94900706C064E05A
:1014D00070E08AEE93E00E9453078AEE93E00E9448
:1014E0000A078DE094E00E941D1D8111D7CF8091E5
:1014F0000601882399F264E170E080E090E00E94A8
:101500002F1F81ED92E00E94E71D8FE792E00E947D
:10151000E71D88EA92E00E94E71D0E941E0ABECFE6
:1015200008958F929F92AF92BF92CF92DF92EF92E7
:10153000FF920E9415040E94630480900904909019
:101540000A04A0900B04B0900C048DEB91E00E9473
:101550007C0E6B017C01C80CD91CEA1CFB1C0E9490
:10156000001F6C157D058E059F0568F185E793E0EA
:101570000E94FC1960E085E793E00E94F01AAB013D
:10158000BC018DEB91E00E94700E8DEB91E00E940A
:10159000760EAB01BC0184EA91E00E94F40E8DEB63
:1015A00091E00E94760EAB01BC018DE292E00E94B8
:1015B000B61D0E94001F6093090470930A04809373
:1015C0000B0490930C0484EA91E00E94040F8DE0D8
:1015D00094E00E941D1D811104C0809106018111BB
:1015E0000FC08DE094E00E941D1D80930601FF90C6
:1015F000EF90DF90CF90BF90AF909F908F90089525
:1016000064E170E080E090E00E942F1F0E947A0663
:10161000109208040E944E0A0E94CB06E2CFCF939C
:10162000DF93EC014E960E945322CE0144960E9415
:101630005322CE010296DF91CF910C9453220F9347
:101640001F93CF93DF9362E082E00E94C61F62E0A7
:1016500083E00E94C61FE2E9F6E0E491F0E0EE0FBD
:10166000FF1FEC55F94F859194919093130480934B
:101670001204EEE7F6E0E491E0931604E3E9F6E005
:10168000E491F0E0EE0FFF1FEC55F94F8591949136
:101690009093150480931404EFE7F6E0E491E0934F
:1016A00017041092190410921A0410921B0410923D
:1016B0001C0480ED97E00E94571FE0911204F09106
:1016C0001304908180911604982381E009F480E04E
:1016D000E0911404F0911504908120911704922355
:1016E00009F0826080931804C2E1D4E0D0931F0413
:1016F000C0931E0441E050E066ED73E080E00E947C
:101700003C1E81E080931D04D0932104C0932004EB
:1017100041E050E060ED73E00E943C1E80911D04AA
:1017200090E0019680931D0464E070E08DE094E009
:101730000E94141D65E971E082E094E00E94C122DC
:10174000CAEED3E065E971E0CE010E94C12226967F
:1017500084E0C230D807B1F7C2EDD3E065E971E0AB
:10176000CE010E94C122269683E0CA3ED807B1F777
:10177000C4EBD3E065E971E0CE010E94C122269658
:1017800083E0C23DD807B1F7C2EAD3E065E971E072
:10179000CE010E94C122269683E0C43BD807B1F750
:1017A00065E971E086E993E00E94C12265E971E094
:1017B0008CE993E00E94C12267E088E893E00E94F0
:1017C0004D1C68E873E085E793E00E942F170FEF48
:1017D0001FEF24E030E048EC50E068EC70E08CE46F
:1017E00093E00E94621D27E030E044E650E062E3AF
:1017F00070E083E293E00E94621D21E030E04BE95B
:1018000050E069ED70E08AEF92E00E94621D24E0F2
:1018100030E044E650E064E670E081ED92E00E9442
:10182000621D22E030E043E750E06AE070E088EAC1
:1018300092E00E94621D22E030E043E750E060EF5A
:1018400070E08FE792E00E94621D27E030E044E6FE
:1018500050E062E370E086E592E00E94621D24E0C1
:1018600030E044E150E064E170E08DE292E00E94FB
:10187000621D21E030E045E350E06FE570E084E078
:1018800092E00E94621D21E030E048E250E068EC06
:1018900070E08BED91E00E94621D20E130E04EE0AF
:1018A00050E06FE070E084EA91E0DF91CF911F910A
:1018B0000F910C94960ECF93DF938BED91E00E94E5
:1018C0000F0B84E092E00E940F0B8DE292E00E94E9
:1018D0000F0B86E592E00E940F0B8FE792E00E94CB
:1018E0000F0B88EA92E00E940F0B81ED92E00E94BC
:1018F0000F0B8AEF92E00E940F0B83E293E00E94AD
:101900000F0B8CE493E00E940F0B8CE993E00E9494
:10191000532286E993E00E9453228EEA93E00E94CC
:10192000532288EA93E00E94532282EA93E00E94C5
:101930005322C2EDD3E02697CE010E94532283E0CA
:10194000C43BD807C1F784EE93E00E9453228EED8A
:1019500093E00E94532288ED93E00E94532282ED8F
:1019600093E00E9453228CEF93E00E94532286EF73
:1019700093E00E94532280EF93E00E9453228AEE6C
:1019800093E00E94532282E094E0DF91CF910C9487
:1019900053224F925F926F927F92AF92BF92CF92FB
:1019A000DF92EF92FF920F931F93CF93DF93CDB708
:1019B000DEB72A970FB6F894DEBF0FBECDBF67E43F
:1019C00071E08AEE93E00E94F7226CE471E080EF10
:1019D00093E00E94F72269E171E086EF93E00E94B4
:1019E000F72260E571E08CEF93E00E94F72263E25A
:1019F00071E082ED93E00E94F7226EE171E088EDE4
:101A000093E00E94F72268E271E08EED93E00E947D
:101A1000F72269E171E084EE93E00E94F72264E32B
:101A200071E084EB93E00E94F72262E471E08AEBBC
:101A300093E00E94F7226EE371E080EC93E00E9455
:101A4000F7226AE371E086EC93E00E94F72269E1F5
:101A500071E08CEC93E00E94F72261E371E082EA8E
:101A600093E00E94F7226CE271E088EA93E00E9422
:101A7000F72269E171E08EEA93E00E94F72264E5C3
:101A800071E086E993E00E94F7226CE571E08CE951
:101A900093E00E94F7228DEB91E00E94100E8DEBF7
:101AA00091E00E94920E8DEB91E00E947C0E162F29
:101AB000072FF82EE92E8DEB91E00E94460E5B0178
:101AC0006C018DEB91E00E94880E2B013C018DEBA7
:101AD00091E00E94760E9B01AC018DEB91E02F838B
:101AE000388749875A870E94920EEF92FF920F9390
:101AF0001F93830172012F81388549855A85BC0166
:101B000084EA91E00E949E0E85E793E00E942A19E4
:101B100083E294E00E944F138DE094E00E94181D30
:101B200068EC70E080E090E00E942F1F6BE085E79A
:101B300093E00E94B81885E793E00E94FC1960E0EA
:101B400070E083E294E00E94901263E083E294E00C
:101B50000E94FE160E94DC038DEB91E00E94880E2D
:101B6000AB01BC0183E293E00E94B61D6CE973E017
:101B7000CE0101960E94EE22BE016F5F7F4F8AEF79
:101B800092E00E94061ECE0101960E94532260E060
:101B900085E793E00E94F01AAB01BC018DEB91E068
:101BA0000E94700E8DEB91E00E94760EAB01BC019D
:101BB00084EA91E00E94F40E8DEB91E00E94760E93
:101BC000AB01BC018DE292E00E94B61D66E973E0B4
:101BD000CE0101960E94EE22BE016F5F7F4F84E02E
:101BE00092E00E94061ECE0101960E9453220F90A1
:101BF0000F900F900F902A960FB6F894DEBF0FBE8D
:101C0000CDBFDF91CF911F910F91FF90EF90DF90AB
:101C1000CF90BF90AF907F906F905F904F9008955E
:101C2000FC0140E050E060E07FE340835183628349
:101C30007383448355836683778340E157E260E092
:101C400070E0448B558B668B778B40E050E068ECFE
:101C500071E4408F518F628F738F158E148E40E028
:101C600050E060EF71E4408751876287738740E0FE
:101C700050E060E971E44487558766877787089567
:101C8000FC0140835183628373830895FC0160816A
:101C90007181828193810895FC0144835583668319
:101CA00077830895FC016481758186819781089509
:101CB000FC0140875187628773870895FC01608526
:101CC0007185828593850895FC01448755876687D1
:101CD00077870895FC0164857585868597850895C5
:101CE000FC01408B518B628B738B0895FC016089E2
:101CF0007189828993890895FC016489758986892F
:101D000097890895FC01408F518F628F738F0895DA
:101D1000FC01608D718D828D938D0895FC01758F0E
:101D2000648F0895FC01848D958D0895FC01718365
:101D30006083538342833583248308958F929F92D7
:101D4000AF92BF92CF92DF92EF92FF920F931F93C9
:101D5000CF93DF93CDB7DEB74C018F859889A989E2
:101D6000BA89F401778B668B22873387448755873E
:101D7000E28AF38A048B158BA682B782C086D1864D
:101D800086879787A08BB18B108E61E080810E943F
:101D9000C61F60E0F40180810E94FF1F61E0F40132
:101DA00082810E94C61F60E0F40182810E94FF1FB1
:101DB00061E0F40184810E94C61F60E0F401848127
:101DC000DF91CF911F910F91FF90EF90DF90CF9017
:101DD000BF90AF909F908F900C94FF1FFC014683A3
:101DE0005783608771870895FC0142875387648712
:101DF00075870895FC01428B538B648B758B089516
:101E0000FC01778B668B08958F929F92AF92BF9261
:101E1000CF92DF92EF92FF92CF93DF93EC018E8906
:101E20009F89009711F460E06DC081309105B1F594
:101E3000CA84DB84EC84FD842E813F8148855985EA
:101E40006A897B898C899D890E9430234B015C01C2
:101E50009B01AC01C701B6010E94E324181634F4BB
:101E600061E088810E94FF1F61E050C0A5019401DC
:101E7000C701B6010E94942318160CF458C060E004
:101E800088810E94FF1F60E08A810E94FF1F60E03E
:101E90008C810E94FF1F81E0888F49C082309105AC
:101EA00059F5CA84DB84EC84FD842E813F8148850A
:101EB00059856A897B898C899D890E942F234B01D2
:101EC0005C019B01AC01C701B6010E94942387FF0E
:101ED0000AC061E088810E94FF1F60E08A810E9441
:101EE000FF1F61E017C0A5019401C701B6010E9460
:101EF000E32487FD1CC0C3CF0397C9F4888D8111EB
:101F000016C061E088810E94FF1F60E08A810E9404
:101F1000FF1F60E08C81DF91CF91FF90EF90DF9009
:101F2000CF90BF90AF909F908F900C94FF1FDF9148
:101F3000CF91FF90EF90DF90CF90BF90AF909F90A8
:101F40008F9008952F923F924F925F926F927F925F
:101F50008F929F92AF92BF92CF92DF92EF92FF92B9
:101F60000F931F93CF93DF9300D000D0CDB7DEB790
:101F70004C017C836B836A015901C8018701AC0164
:101F80004C195D0957FF03C05195419551099501C1
:101F90006B817C81261B370B37FF03C03195219560
:101FA000310922242394312C2417350714F0212CD5
:101FB000312C2114310459F03A2D2B2D5C01832F43
:101FC000922F3B812C81DC82CB82C32ED22EAB811F
:101FD000BC81AA16BB065CF43C2D2D2D6C01832F11
:101FE000922F3B812C81BC82AB82A32EB22E250185
:101FF000EB81FC814E1A5F0A3C016C187D0877FE6C
:1020000003C0719461947108720157FE03C0FFEF21
:10201000EF1AFF0AF594E794C816D9062CF421E0CC
:1020200030E03A83298324C06FEF7FEF7A8369839E
:102030001FC0D401ED91FC910480F581E02D980141
:1020400021143104D9F04B815C81B601C40109959A
:10205000E618F708F7FE06C0E981FA81CE0EDF1E0A
:10206000E40CF51C2B813C812F5F3F4F3C832B837D
:102070006B817C81A616B706E4F604C0A6016B81CD
:102080007C81E4CF0F900F900F900F90DF91CF9154
:102090001F910F91FF90EF90DF90CF90BF90AF9086
:1020A0009F908F907F906F905F904F903F902F9078
:1020B00008956F927F928F929F92AF92BF92CF922C
:1020C000DF92EF92FF920F931F93CF93DF93EC0178
:1020D0005B016A0139014801E881F9810284F385D5
:1020E000E02D87010995E881F981A601480D591D68
:1020F000415051090284F385E02D9301B501CE01D1
:102100000995E881F9810084F185E02D9401A6010B
:10211000B501CE010995E881F981B501660D771DFC
:10212000615071090084F185E02D9401A601CE0172
:102130000995DF91CF911F910F91FF90EF90DF9064
:10214000CF90BF90AF909F908F907F906F900895A9
:10215000EF92FF920F931F93DC01ED91FC91240FFE
:10216000351F215031090680F781E02D7801890162
:102170009B0109951F910F91FF90EF900895EF92A9
:10218000FF920F931F93DC01ED91FC91260F371FF7
:10219000215031090680F781E02D78018A010995E7
:1021A0001F910F91FF90EF9008956F927F928F9201
:1021B0009F92AF92BF92CF92DF92EF92FF920F93D6
:1021C0001F93CF93DF935C014A0169013801EB0152
:1021D000C60ED71ECC15DD0574F4D501ED91FC912A
:1021E0000084F185E02D87019301A401BE01C501A2
:1021F00009952196EFCFDF91CF911F910F91FF901D
:10220000EF90DF90CF90BF90AF909F908F907F9096
:102210006F900895EF92FF920F931F93DC01ED9161
:10222000FC9111971A960D911C911B9718962D9160
:102230003C9119970684F785E02D7B0140E050E042
:1022400060E070E009951F910F91FF90EF90089565
:102250000895FC011382128287E691E091838083C6
:10226000758364835783468371876087538742876A
:10227000158A158614861786168621E0248B8FEF23
:102280009FEF938B828B918B808B268B178A08957F
:102290002F923F924F925F926F927F928F929F9276
:1022A000AF92BF92CF92DF92EF92FF920F931F9364
:1022B000CF93DF93CDB7DEB72C970FB6F894DEBF80
:1022C0000FBECDBF9C878B873A0118870F83FA8694
:1022D000E986CD82DC0118968D919C91199768173B
:1022E00079070CF09EC01A968D919C911B97481708
:1022F00059070CF096C08C2C912CCB01B6E0CB9EEC
:10230000800D911D1124181619060CF08AC0C40105
:10231000E3E0880F991FEA95E1F7840F951F1816DF
:1023200019060CF07EC0AB85BC8557968C91811147
:1023300003C0203B08F02F5F5B016B011C8258E655
:10234000452E50E0552E461A570AB5E02B9F400CFB
:10235000511C1124EC81E53031F0F201EA0DFB1D36
:1023600024912B8301C01B827A82698213011E8211
:102370003B8130FF13C0AB85BC85ED91FC91BD81E5
:10238000B13031F40480F581E02D2F81388519C0FA
:102390000684F785E02DEF80F8841EC0E985FA8574
:1023A0002F813885E217F307F9F0AB85BC85ED91F5
:1023B000FC91BD81B13059F40480F581E02D29856F
:1023C0003A85A101B5018B859C8509950DC00684D0
:1023D000F785E02DE984FA848401940149815A81CA
:1023E000B6018B859C850995EB81E695EB83FE8193
:1023F000FF5FFE8329813A81280D391D3A832983A5
:102400003FEF231A330AF83009F0B2CF4C814F5F07
:102410004C83C80CD91C8FEFA81AB80A463009F0B3
:1024200099CF2C960FB6F894DEBF0FBECDBFDF91CB
:10243000CF911F910F91FF90EF90DF90CF90BF90C1
:10244000AF909F908F907F906F905F904F903F9054
:102450002F900895CF92EF92FF920F931F93CF93F7
:10246000DF93EC01262F6A3049F42C898E859F85F5
:1024700038E0239F800D911D112432C06D30A1F1F1
:10248000EA88FB88088919894E855F856C857D857A
:10249000CC880E9448112C89422F50E08C859D8564
:1024A00036E0239F800D911D11249D878C872E89F6
:1024B0002223D1F06AEF64039001659F300D11244F
:1024C00068857985260F371F281739076CF4F3E0E4
:1024D000440F551FFA95E1F78E859F85840F951F50
:1024E0009F878E871D861C8681E090E0DF91CF91CB
:1024F0001F910F91FF90EF90CF900895FC01758789
:102500006487578746870895611101C061E0FC0127
:10251000648B0895FC01738B628B718B608B0895C3
:10252000EF92FF920F931F93DC01ED91FC911197B5
:102530001A960D911C911B9718962D913C91199705
:102540000684F785E02D7B0140E050E060E070E01C
:1025500009951F910F91FF90EF900895EF92FF92D0
:102560000F931F93CF93DF931F92CDB7DEB77C01FC
:10257000062F142F40E451E060EF70E029830E94A1
:1025800029118FE791E0F7019183808304A315A3BC
:10259000298126A381E0818F11A617A20F90DF91D8
:1025A000CF911F910F91FF90EF900895FC01818DC5
:1025B000811122C088E090E030E8A28DB38D22A581
:1025C000432F462321F04C91422B4C9304C04C9155
:1025D000209524232C93A48DB58D2C9143A5242BD9
:1025E0002C93A48DB58D4C9123A5209524232C9359
:1025F0003695019711F708956EBD0DB407FEFDCF16
:102600000895CF93DF93EC01EE8DFF8D90818DA522
:10261000809589238083EC8DFD8D90818BA580959D
:1026200089238083EAA1FBA190818CA580958923D1
:102630008083CE010E94D612EAA1FBA180819CA5D5
:10264000892B8083DF91CF910895662311F061E299
:1026500001C060E20C940113CF93DF93EC01EE8D87
:10266000FF8D80819DA5892B8083EC8DFD8D9081D0
:102670008BA5809589238083EAA1FBA190818CA5FD
:10268000809589238083CE010E94D612EAA1FBA106
:1026900080819CA5892B8083DF91CF910895CF9372
:1026A000DF93EC0161E08EA10E94C61F60E08EA165
:1026B0000E94FF1F61E08DA10E94C61F61E08CA1F6
:1026C0000E94C61F4CA150E0FA01E057F94FE49177
:1026D000F0E0EE0FFF1FE255F94F859194919BA317
:1026E0008AA32DA130E0F901E057F94F849190E0E1
:1026F000880F991F8255994FFC01859194919F8F66
:102700008E8FFA01E458F94F44914CA7F901E4582F
:10271000F94F24912DA7898D882379F00E942C1DD3
:102720008CB58C7F8CBD8DB581608DBD8CB58F7D5A
:102730008CBD8CB5837F8CBD41C061E089A50E94B2
:10274000C61F61E08FA10E94C61F60E088A50E949D
:10275000C61F49A550E0FA01E057F94FE491F0E0B7
:10276000EE0FFF1FE255F94FA591B491BD8FAC8FCD
:102770002FA130E0F901E057F94F849190E0880FE4
:10278000991F8255994FFC01859194919B8F8A8F57
:10279000FA01E458F94F44914BA7F901E458F94F75
:1027A00024912AA78C919BA5909589238C93EA8DDF
:1027B000FB8D90818AA580958923808361E08EA11D
:1027C0000E94FF1F65E070E080E090E00E942F1FF4
:1027D00060E08EA10E94FF1F64E170E080E090E065
:1027E0000E942F1F61E08EA10E94FF1F66E970E02A
:1027F00080E090E00E942F1F6FEECE010E94011337
:1028000063E0CE010E942C1360E8CE010E942C13DD
:1028100062E0CE010E942C136FECCE010E940113E6
:1028200060E0CE010E942C1361ECCE010E942C13BB
:1028300060E3CE010E942C136DEECE010E940113C5
:1028400064E6CE010E942C1363E0CE010E942C139B
:1028500062E1CE010E942C1361E8CE010E942C138C
:1028600068EECE010E94011365E8CE010E942C1390
:1028700060E0CE010E942C1368E7CE010E942C1369
:102880006BECCE010E94011369E3CE010E942C1370
:102890006CE2CE010E942C1360E0CE010E942C134A
:1028A00064E3CE010E942C1362E0CE010E942C133F
:1028B00067EFCE010E94011360E2CE010E942C134B
:1028C0006AEECE010E94011360E0CE010E942C133B
:1028D00060E0CE010E942C1360ECCE010E94011337
:1028E00063E2CE010E942C1361ECCE010E94011321
:1028F00060E1CE010E942C1365ECCE010E94011311
:102900006EE3CE010E942C1368E2CE010E942C13CC
:1029100067ECCE010E94011366E8CE010E942C13E1
:1029200066E3CE010E94011368E4CE010E942C13DD
:102930006AE3CE010E94011365E5CE010E942C13CB
:1029400061EBCE010E94011360E0CE010E942C13C6
:1029500068E1CE010E942C1366EBCE010E940113A8
:1029600068E0CE010E942C1362E8CE010E942C1375
:1029700067E2CE010E942C1362EFCE010E94011388
:1029800060E0CE010E942C1366E2CE010E9401138A
:1029900061E0CE010E942C1360EECE010E94011373
:1029A0006FE0CE010E942C1361E3CE010E942C1334
:1029B0006BE2CE010E942C136CE0CE010E942C131E
:1029C0006EE0CE010E942C1368E0CE010E942C1311
:1029D0006EE4CE010E942C1361EFCE010E942C13F5
:1029E00067E3CE010E942C1367E0CE010E942C13F6
:1029F00060E1CE010E942C1363E0CE010E942C13F3
:102A00006EE0CE010E942C1369E0CE010E942C13CF
:102A100060E0CE010E942C1361EECE010E940113F2
:102A200060E0CE010E942C136EE0CE010E942C13B8
:102A300064E1CE010E942C1363E0CE010E942C13AE
:102A400061E1CE010E942C1367E0CE010E942C139D
:102A500061E3CE010E942C1361ECCE010E942C1385
:102A600068E4CE010E942C1368E0CE010E942C1372
:102A70006FE0CE010E942C136CE0CE010E942C135B
:102A800061E3CE010E942C1366E3CE010E942C1359
:102A90006FE0CE010E942C1361E1CE010E94011370
:102AA00068E770E080E090E00E942F1F69E2CE01AD
:102AB000DF91CF910C940113CF92DF92FF920F938D
:102AC0001F93CF93DF9300D000D01F92CDB7DEB716
:102AD0006C01F62E6AE22B833A834D835C83798303
:102AE0000E9401137981672FC6010E942C136F2D5C
:102AF000C6010E942C133A81632FC6010E942C1339
:102B00002B81622FC6010E942C136BE2C6010E942A
:102B100001135C81652FC6010E942C134D81642F27
:102B2000C6010E942C13612FC6010E942C13602F36
:102B3000C6010E942C136CE2C6010F900F900F90FB
:102B40000F900F90DF91CF911F910F91FF90DF9029
:102B5000CF900C940113EF92FF920F931F93CF939A
:102B6000DF93EC01F22EE32E77FD2FC02885398507
:102B70006217730754F557FD28C02A853B85421715
:102B800053071CF58A010F5F1F4F9B012F5F3F4FBB
:102B90000E945C15EE8DFF8D80819DA5892B808321
:102BA000EAA1FBA190818CA58095892380836E2D5D
:102BB000CE010E94D6126F2DCE010E94D612EAA13C
:102BC000FBA180819CA5892B8083DF91CF911F91F0
:102BD0000F91FF90EF900895CF92DF92EF92FF92C6
:102BE0000F931F93CF93DF93EC017901D02EC12E69
:102BF0008885998568177907CCF58A859B8548175C
:102C00005907A4F59A012E0D3F1D821793071CF456
:102C10007C01E41AF50A8A010E0D1F1D01501109ED
:102C20009B01CE010E945C15EE8DFF8D80819DA5DC
:102C3000892B8083EAA1FBA190818CA580958923B3
:102C40008083E114F10461F06C2DCE010E94D61254
:102C50006D2DCE010E94D61281E0E81AF108F1CF65
:102C6000EAA1FBA180819CA5892B8083DF91CF9174
:102C70001F910F91FF90EF90DF90CF900895CF922A
:102C8000DF92EF92FF920F931F93CF93DF93EC01AC
:102C90007901D02EC12E8885998568177907CCF5E2
:102CA0002A853B8542175307A4F59B012E0D3F1D36
:102CB000821793071CF47C01E61AF70A9B012E0D7C
:102CC0003F1D215031098A01CE010E945C15EE8D15
:102CD000FF8D80819DA5892B8083EAA1FBA1908136
:102CE0008CA5809589238083E114F10461F06C2D1B
:102CF000CE010E94D6126D2DCE010E94D61281E027
:102D0000E81AF108F1CFEAA1FBA180819CA5892BEB
:102D10008083DF91CF911F910F91FF90EF90DF9013
:102D2000CF900895AF92BF92CF92DF92EF92FF9231
:102D30000F931F93CF93DF93EC016901580128850E
:102D40003985621773070CF04EC08A859B8548173A
:102D500059070CF048C0FB01EC0DFD1D2E173F0775
:102D60001CF46901C61AD70A9A012A0D3B1D821765
:102D700093071CF45C01A41AB50A8A010A0D1B1DF5
:102D8000015011099B012C0D3D1D21503109CE012F
:102D90000E945C15EE8DFF8D80819DA5892B80831F
:102DA000EAA1FBA190818CA58095892380831A14C8
:102DB0001B049CF48601101611065CF46F2DCE01E5
:102DC0000E94D6126E2DCE010E94D612015011091A
:102DD000F2CF81E0A81AB108EACFEAA1FBA1808175
:102DE0009CA5892B8083DF91CF911F910F91FF903C
:102DF000EF90DF90CF90BF90AF9008951F93CF9347
:102E0000DF93EC01162F66E30E940113612F6370BC
:102E10006D8B623041F0633089F0613011F068E40D
:102E200003C068E20CC068E8CE010E942C1380EF5A
:102E300090E09987888780E491E00AC068EECE012F
:102E40000E942C1380E491E09987888780EF90E0BE
:102E50009B878A87DF91CF911F9108950895FC0188
:102E60008EE297E1928B818B768365831482108248
:102E700089E0818381E0828383830895CF93DF9308
:102E8000EB0167E0CE010E94081D91E02F818213C3
:102E900090E0892FDF91CF910895EF92FF920F93E9
:102EA0001F93CF93DF93EC018B01E42E8D819E81E4
:102EB0000E943B1CF12CB8018D819E810E94701CE8
:102EC000882359F0FE1006C0B801CE010E943E17BB
:102ED000811104C0F394EF1470F780E0DF91CF917B
:102EE0001F910F91FF90EF900895EF92FF920F9333
:102EF0001F93CF93DF9300D0CDB7DEB77C018A015B
:102F0000FC018581968169837A830E94141B698103
:102F10007A81F701858196810E940F1C40E06EEB5B
:102F2000F701858196810E94B11BF7018581968109
:102F30000E94F31BF8018083F701858196810E942E
:102F4000F31BF8018183F701858196810E94F31BB1
:102F5000F8018283F701858196810E94F31BF801B5
:102F60008383F701858196810E94F31BF801848396
:102F7000F701858196810E94F31BF8018583F70193
:102F8000858196810E94F31BF8018683F701858174
:102F900096810E94F31BF8018783F7018581968152
:102FA0000E94F31BF8018087F701858196810F90BD
:102FB0000F90DF91CF911F910F91FF90EF900C94A4
:102FC000141BCF93DF93EA010E94751768E0CE01CE
:102FD0000E94081D91E02885821390E0892FDF91DF
:102FE000CF910895EF92FF920F931F93CF93DF93AA
:102FF000EC017B018A018D819E810E94141BB70127
:103000008D819E810E940F1C40E06EE48D819E8127
:103010000E94B11B40E0F80162818D819E810E9477
:10302000B11B40E0F80163818D819E810E94B11B3C
:10303000F7018081803139F040E0F80164818D81B1
:103040009E810E94B11B8D819E810E94141B48812C
:1030500068E48D819E810E94B11B8881882331F0B4
:103060006AE070E080E090E00E942F1F8D819E81D9
:10307000DF91CF911F910F91FF90EF900C94141B53
:10308000EF92FF921F93CF93DF9300D0CDB7DEB7BF
:103090007C01FC018581968169837A830E94141BDF
:1030A00069817A81F701858196810E940F1C40E039
:1030B00064EBF701858196810E94B11BF701858140
:1030C00096810E94861B182FF701858196810E94A8
:1030D000141B81E0111180E00F900F90DF91CF91D0
:1030E0001F91FF90EF900895EF92FF920F931F931F
:1030F000CF93DF93CDB7DEB72A970FB6F894DEBF34
:103100000FBECDBF7C018B01242FAE014F5F5F4FFF
:103110002A870E94E1172A858823D1F0F80180814F
:103120008031C1F02B3041F02C3021F02A3031F4C5
:103130008FE305C08FE703C08FE501C08FE18D836A
:10314000AE014F5F5F4FB801C7010E94F21702C086
:1031500080E001C081E02A960FB6F894DEBF0FBE72
:10316000CDBFDF91CF911F910F91FF90EF90089508
:10317000EF92FF920F931F93CF93DF93CDB7DEB7FC
:1031800028970FB6F894DEBF0FBECDBF8C01693013
:1031900020F06D3018F06CE001C069E0F801618347
:1031A000E12CF12CF801848190E0E816F9069CF4FA
:1031B0004E2DBE016F5F7F4FC8010E944D17F80171
:1031C0004181BE016F5F7F4FC8010E947418FFEFFD
:1031D000EF1AFF0AE7CF28960FB6F894DEBF0FBEAE
:1031E000CDBFDF91CF911F910F91FF90EF90089588
:1031F000CF93DF93CDB7DEB729970FB6F894DEBF34
:103200000FBECDBFFB0120812031D1F0AE014F5F59
:103210005F4F0E94E117882379F08D818F3351F041
:1032200018F48F3169F008C08F3541F08F3721F4E1
:103230008CE007C08AE005C080E003C08BE001C0DD
:1032400089E029960FB6F894DEBF0FBECDBFDF919F
:10325000CF910895EF92FF920F931F93CF93DF9337
:10326000CDB7DEB761970FB6F894DEBF0FBECDBF06
:103270008C01FC01858196810E943B1CF80114821F
:10328000FF24F394BE01665F7F4FF801858196812C
:103290000E94701C8823C9F1BE01665F7F4FC80180
:1032A0000E943E17882371F3F8018081811108C0C4
:1032B000BE01665F7F4FC8010E944018811122C085
:1032C000AE014F5F5F4FBE01665F7F4FC8010E9436
:1032D0007517F801E180BE01665F7F4FC8010E944B
:1032E000F8188E1518F4F801818106C0BE01665FDA
:1032F0007F4FC8010E94F818F801818384818F5F95
:103300008483C0CFF801F082DBCF61960FB6F894CA
:10331000DEBF0FBECDBFDF91CF911F910F91FF9008
:10332000EF900895CF93DF93CDB7DEB729970FB60F
:10333000F894DEBF0FBECDBFAE014F5F5F4F0E945E
:10334000751781E09981911101C080E029960FB62F
:10335000F894DEBF0FBECDBFDF91CF910895CF921D
:10336000DF92EF92FF920F931F93CF93DF93EC01C5
:103370008B01452BE1F08B818823C9F08881811175
:1033800016C00E94001F6B017C0160E070E0CE015E
:103390000E94921981110BC00E94001F6C197D09B7
:1033A0008E099F096E3E72408105910570F3F80108
:1033B00080818A3049F08B3061F0893079F46EE594
:1033C00070E080E090E00EC06CEB70E080E090E098
:1033D00009C067E771E080E090E004C06EEE72E043
:1033E00080E090E0DF91CF911F910F91FF90EF90DF
:1033F000DF90CF900C942F1FCF93DF93EC018D8142
:103400009E810E94141B8D819E810E94371C4881E1
:1034100064E48D819E810E94B11B8A81882351F0D2
:10342000BE016F5F7F4F40E050E0CE01DF91CF9152
:103430000C94AF19DF91CF9108958F929F92AF9224
:10344000BF92CF92DF92EF92FF921F93CF93DF93C1
:10345000FB01EA01698170E0762F66278881682B7D
:1034600080818232B1F18832A1F1803109F078C0D7
:103470001F8175956795882777FD8095982F0E9405
:10348000332420E030E040E85EE30E942F236B010C
:103490007C01612F70E08E81681B7109882777FDA0
:1034A0008095982F0E9433244B015C01612F70E0BE
:1034B00080E090E00E9431249B01AC01C501B40181
:1034C0000E9498239B01AC01C701B6010E943023E2
:1034D00043C08C818F3381F198F48F3109F040C063
:1034E00093E0759567959A95E1F7882777FD809524
:1034F000982F0E94332420E030E040E05FE32AC0B0
:103500008F3569F08F3761F5882777FD8095982F83
:103510000E94332420E030E040E85DE31BC0759555
:103520006795882777FD8095982F0E94332420E0A7
:1035300030E040E05EE30EC0759567957595679540
:10354000882777FD8095982F0E94332420E030E073
:1035500040E85EE30E94E724562F472F382F292F9B
:10356000652F742F832F922FDF91CF911F91FF90A2
:10357000EF90DF90CF90BF90AF909F908F90089585
:10358000EF92FF920F931F93CF93DF93CDB7DEB7E8
:1035900029970FB6F894DEBF0FBECDBF8C017B011B
:1035A000AE014F5F5F4F0E94E117882341F0AE01EB
:1035B0004F5F5F4FB701C8010E941D1A04C060E051
:1035C00070E08EEF92EC29960FB6F894DEBF0FBE36
:1035D000CDBFDF91CF911F910F91FF90EF90089594
:1035E0000F931F93CF93DF93CDB7DEB728970FB616
:1035F000F894DEBF0FBECDBF8C01462FBE016F5FBA
:103600007F4F0E944D17BE016F5F7F4FC8010E9420
:10361000C01A28960FB6F894DEBF0FBECDBFDF915B
:10362000CF911F910F910895FF920F931F93CF9306
:10363000DF93FC010081C181D281F8948981F02E51
:10364000F0948F21898378941DE7115029F182E04D
:1036500090E00E94571F88818023B9F3F8948A81F3
:103660008F218A838981802B8983789480EE91E0F1
:103670000E94571FF89489818F21898386E490E006
:103680000E94571F8881802311E009F010E0789490
:103690008AE991E00E94571F812FDF91CF911F91FE
:1036A0000F91FF9008951F93CF93DF93FC0110813A
:1036B000C181D281912F909560FF12C0F8948A81C8
:1036C00089238A838981812B89838AE090E00E9403
:1036D000571F8A81812B8A83789487E390E011C0F9
:1036E000F8948A8189238A838981812B898381E463
:1036F00090E00E94571F8A81812B8A83789485E00D
:1037000090E0DF91CF911F910C94571F0F931F935F
:10371000CF93DF93FC011081C181D281F89489811C
:10372000812B89838A81012F009580238A8383E0FE
:1037300090E00E94571F8981802389838AE090E06E
:103740000E94571FC881789485E390E00E94571F1C
:103750001C2381E009F480E0DF91CF911F910F914C
:103760000895CF92DF92EF92FF920F931F93CF9322
:10377000DF931F92CDB7DEB76C01E62E08E010E0B4
:10378000FF24F39461E09F2D9E2109F460E0C601BF
:1037900049830E94531BFF0C0150110949810115F7
:1037A000110581F7411115C0F894D6011196ED91DC
:1037B000FC91129791818C91809589238183119638
:1037C000ED91FC91129792818C918095892382834F
:1037D00078940F90DF91CF911F910F91FF90EF9010
:1037E000DF90CF900895EF92FF920F931F93CF93A6
:1037F000DF938C01C8E0D0E0F12CEE24E394C80103
:103800000E94861B8111FE28EE0C2197C1F78F2D97
:10381000DF91CF911F910F91FF90EF900895CF927C
:10382000DF92FF920F931F93CF93DF931F92CDB739
:10383000DEB78C01F62E40E065E579830E94B11B6E
:10384000CF2C7981D72E88E0F82EF60161916F0197
:1038500040E0C8010E94B11BFA94B9F70F90DF91C4
:10386000CF911F910F91FF90DF90CF90089540E08E
:103870006CEC0C94B11BFC0113861586148627E0B2
:1038800030E0DF01A20FB31F13961C922115310502
:1038900019F021503109F5CF08951F93CF93DF938D
:1038A000EC01162F60E0812F0E94C61F612F70E08F
:1038B000FB01E458F94FE491E883FB01E057F94F2D
:1038C000E491F0E0EE0FFF1FEC55F94F85919491D4
:1038D0009A838983CE01DF91CF911F910C943B1C79
:1038E000AF92BF92CF92DF92EF92FF920F931F930E
:1038F000CF93DF931F92CDB7DEB75C01E62ED72EB4
:10390000FC01858581115DC0C5010E94141B8111D8
:1039100005C0F5011386158614866EC040E060EF81
:10392000C5010E94B11B01E0F12CC12C11E0C501C1
:103930000E94861B682FC50169830E94861B6981CE
:10394000613019F48130B9F433C02F2D30E06813A1
:103950001BC0F5018385181730F4E20FF31F838134
:10396000802349F402C0181731F060E0193058F490
:10397000F501148708C0F501EF0DF11D8381802B3F
:10398000838361E009C0C12EF501E20FF31F83813B
:10399000902F909589238383C5010E94531B1F5F3D
:1039A000000F11F4F39401E0F7E0FF1508F0BFCF2A
:1039B000113438F0F501C386C11018C081E0858745
:1039C00015C0F50113861586148680E0EE2DFD2DB9
:1039D00020E030E0D501A20FB31F13969C91919384
:1039E0002F5F3F4F28303105A9F706C0F5018381CD
:1039F000882339F381E0EACF0F90DF91CF911F91B7
:103A00000F91FF90EF90DF90CF90BF90AF9008950F
:103A1000DC0180E0615038F0ED91E827F0E0E859F2
:103A2000FA4F8491F7CF0895FC0171836083089564
:103A300062E0FC0180810C94C61FCF93DF93EC0100
:103A400088810E94352021E0892B09F420E02A8317
:103A5000822FDF91CF910895CF93CFB7F8948091C3
:103A60002204811127C0EAE9F6E08491E6E8F6E055
:103A70009491E82FF0E0EE0FFF1FE854F94FA59165
:103A8000B4918C91892321F461E08AE00E94FF1FA8
:103A900061E08AE00E94C61F8CB580618CBD8CB548
:103AA00080648CBD61E08DE00E94C61F61E08BE008
:103AB0000E94C61F809122048F5F80932204CFBF93
:103AC000CF910895AF92BF92CF92DF92EF92FF9283
:103AD0000F931F93CF93DF93EC017B016A01590190
:103AE00065E971E002960E94C12265E971E0CE01AC
:103AF00044960E94C12265E971E0CE014E960E9473
:103B0000C122F986E886DB86CA86BD86AC861F8719
:103B10000E87DF91CF911F910F91FF90EF90DF9073
:103B2000CF90BF90AF900895CF93DF93EC014A857B
:103B30005B856885798583E294E00E947E126C85BE
:103B400083E294E00E94841260E070E083E294E0FB
:103B50000E948A124A8D5B8D6C8D7D8D22E030E053
:103B600083E294E0DF91CF910C945122CF93DF93C5
:103B7000EC01488B598B6A8B7B8B0E94941D4A8584
:103B80005B856885798583E294E00E947E126C856E
:103B900083E294E00E9484126E857F8583E294E044
:103BA0000E948A12488959896A897B8922E030E01B
:103BB00083E294E00E94512288899989AA89BB896D
:103BC0008A8F9B8FAC8FBD8FDF91CF910895CF935C
:103BD000DF93EC014A855B856885798583E294E013
:103BE0000E947E126C8583E294E00E94841260E061
:103BF00070E083E294E00E948A12BE01625E7F4F11
:103C000083E294E0DF91CF910C94AE200F931F9349
:103C1000CF93DF93EC018C010C5E1F4FC8010E9413
:103C2000D722CE010E94E71D4A855B85688579858C
:103C300083E294E00E947E126C8583E294E00E940D
:103C400084126E857F8583E294E00E948A12B80117
:103C500083E294E00E94AE20B801CE014E96DF913F
:103C6000CF911F910F910C94D72228E049E06AE090
:103C700083E294E00C94AE128230E8F4E82FF0E096
:103C8000EE0FFF1FEF5AFB4F71836083813041F0CD
:103C9000809169008C7F842B80936900E89A089555
:103CA00080916900440F551F440F551F837F842B5B
:103CB00080936900E99A08951F920F920FB60F92B0
:103CC00011242F933F934F935F936F937F938F9321
:103CD0009F93AF93BF93EF93FF9380915104909183
:103CE0005204892B29F0E0915104F0915204099576
:103CF000FF91EF91BF91AF919F918F917F916F91C4
:103D00005F914F913F912F910F900FBE0F901F9099
:103D100018951F920F920FB60F9211242F933F9375
:103D20004F935F936F937F938F939F93AF93BF93C3
:103D3000EF93FF938091530490915404892B29F0C1
:103D4000E0915304F09154040995FF91EF91BF91D4
:103D5000AF919F918F917F916F915F914F913F9123
:103D60002F910F900FBE0F901F9018951F920F92DA
:103D70000FB60F9211242F933F938F939F93AF937E
:103D8000BF938091560490915704A0915804B0912C
:103D900059043091550423E0230F2D3720F4019668
:103DA000A11DB11D05C026E8230F0296A11DB11D5E
:103DB000209355048093560490935704A09358047D
:103DC000B093590480915A0490915B04A0915C04D3
:103DD000B0915D040196A11DB11D80935A0490938A
:103DE0005B04A0935C04B0935D04BF91AF919F917D
:103DF0008F913F912F910F900FBE0F901F901895AC
:103E00002FB7F8946091560470915704809158042C
:103E1000909159042FBF08953FB7F89480915A04A8
:103E200090915B04A0915C04B0915D0426B5A89BC1
:103E300005C02F3F19F00196A11DB11D3FBF662798
:103E4000782F892F9A2F620F711D811D911D42E0DD
:103E5000660F771F881F991F4A95D1F70895CF9253
:103E6000DF92EF92FF92CF93DF936B017C010E9470
:103E70000C1FEB01C114D104E104F10489F00E948C
:103E80002E230E940C1F6C1B7D0B683E734090F329
:103E900081E0C81AD108E108F108C851DC4FEACF27
:103EA000DF91CF91FF90EF90DF90CF900895823017
:103EB000910538F0880F991F880F991F0597019772
:103EC000F1F70895789484B5826084BD84B58160EB
:103ED00084BD85B5826085BD85B5816085BDEEE612
:103EE000F0E0808181608083E1E8F0E010828081F1
:103EF00082608083808181608083E0E8F0E080815F
:103F000081608083E1EBF0E0808184608083E0EB7E
:103F1000F0E0808181608083EAE7F0E08081846066
:103F200080838081826080838081816080838081C2
:103F3000806880831092C1000895833081F028F456
:103F4000813099F08230A1F008958730A9F088304F
:103F5000B9F08430D1F4809180008F7D03C08091CE
:103F600080008F7780938000089584B58F7702C09A
:103F700084B58F7D84BD08958091B0008F7703C094
:103F80008091B0008F7D8093B0000895CF93DF9330
:103F900090E0FC01E458F94F2491FC01E057F94FFF
:103FA0008491882349F190E0880F991FFC01E8541F
:103FB000F94FA591B4918255994FFC01C591D491C7
:103FC0009FB7611108C0F8948C91209582238C933F
:103FD000888182230AC0623051F4F8948C91322F88
:103FE000309583238C938881822B888304C0F89436
:103FF0008C91822B8C939FBFDF91CF9108950F936B
:104000001F93CF93DF931F92CDB7DEB7282F30E0F9
:10401000F901E859F94F8491F901E458F94F1491E5
:10402000F901E057F94F04910023C9F0882321F0EA
:1040300069830E949D1F6981E02FF0E0EE0FFF1F52
:10404000E255F94FA591B4919FB7F8948C91611105
:1040500003C01095812301C0812B8C939FBF0F90CB
:10406000DF91CF911F910F910895CF93DF93282F68
:1040700030E0F901E859F94F8491F901E458F94F1A
:10408000D491F901E057F94FC491CC2391F08111FB
:104090000E949D1FEC2FF0E0EE0FFF1FEC55F94F33
:1040A000A591B4912C912D2381E090E021F480E042
:1040B00002C080E090E0DF91CF9108950E946727D1
:1040C00008950E94621F0E9460200E94C90CC0E0F7
:1040D000D0E00E94910A2097E1F30E940000F9CFFE
:1040E000CF92DF92EF92FF920F931F93CF93DF93C4
:1040F0006C017A01EB01E60EF71E00E010E0CE1530
:10410000DF0561F06991D601ED91FC910190F0819C
:10411000E02DC6010995080F191FF1CFC801DF91E5
:10412000CF911F910F91FF90EF90DF90CF90089566
:104130006115710581F0DB010D900020E9F7AD01FB
:1041400041505109461B570BDC01ED91FC91028057
:10415000F381E02D099480E090E00895DC01ED9179
:10416000FC91DB0114964D915C9115976D917C91BA
:104170000280F381E02D0994DC01ED91FC91019026
:10418000F081E02D09948F929F92AF92BF92CF92CF
:10419000DF92EF92FF920F931F93CF93DF93CDB7F0
:1041A000DEB7A1970FB6F894DEBF0FBECDBF7C017E
:1041B000C42EE52FCB01D22E19A221E02D1510F02F
:1041C0002AE0D22E8E010F5D1F4F8D2C912CA12C39
:1041D000B12C6C2D7E2FA50194010E944E258C2DB3
:1041E000D29E80191124015011098A3014F4805D87
:1041F00001C0895CF8018083211531054105510515
:1042000021F0C22EE32FCA01E4CFB801C7010E94FA
:104210009820A1960FB6F894DEBF0FBECDBFDF91F8
:10422000CF911F910F91FF90EF90DF90CF90BF90B3
:10423000AF909F908F900895CF92DF92EF92FF9270
:104240000F931F93CF93DF93EC016A017B0121153C
:10425000310579F4E881F9810190F081E02D642F36
:10426000DF91CF911F910F91FF90EF90DF90CF9052
:1042700009942A303105E9F477FF1AC06DE20E94F3
:10428000BC208C0144275527BA014C195D096E09E1
:104290007F092AE0CE010E94C320800F911FDF9189
:1042A000CF911F910F91FF90EF90DF90CF900895E5
:1042B0002AE0B701A601CE01DF91CF911F910F91A6
:1042C000FF90EF90DF90CF900C94C3204F925F92BD
:1042D0006F927F928F929F92AF92BF92CF92DF9216
:1042E000EF92FF920F931F93CF93DF93EC016A013C
:1042F0007B01B22E9A01AB01C701B6010E944A258B
:10430000882319F066E971E027C026013701E89497
:1043100077F82FEF3FEF4FE75FE7C301B2010E944D
:104320004A2581110DC02FEF3FEF4FE75FE7C30133
:10433000B2010E94942318161CF46AE971E00CC0C3
:104340002FEF3FEF4FE75FE4C701B6010E94E32480
:104350001816ACF46EE971E0CE01DF91CF911F9198
:104360000F91FF90EF90DF90CF90BF90AF909F9014
:104370008F907F906F905F904F900C9498202FEFCC
:104380003FEF4FE75FECC701B6010E94942387FD22
:10439000E1CF20E030E0A901C701B6010E949423DB
:1043A00087FF0AC06DE2CE010E94BC208C01F7FAA3
:1043B000F094F7F8F09402C000E010E0A12C60E067
:1043C00070E080E09FE3AB1441F020E030E040E299
:1043D00051E40E949823A394F6CF9B01AC01C7013E
:1043E000B6010E9430236B017C010E9405242B0141
:1043F0003C010E9431249B01AC01C701B6010E941F
:104400002F236B017C012AE0B301A201CE010E949F
:10441000C320080F191FBB2039F062EA71E0CE01FA
:104420000E949820080F191F7B2C772041F120E073
:1044300030E040E251E4C701B6010E94E7246B017D
:104440007C010E9400244B01AA2497FCA094BA2C62
:104450002AE030E0B501A401CE010E941C21080F22
:10446000191FC501B4010E9433249B01AC01C7018F
:10447000B6010E942F236B017C017A94D6CFC8012C
:10448000DF91CF911F910F91FF90EF90DF90CF9030
:10449000BF90AF909F908F907F906F905F904F9064
:1044A00008950C946621FC01808191810C940E2664
:1044B000CF93DF93EC0188819981009711F00E94DE
:1044C0000E26198218821D821C821B821A82DF919D
:1044D000CF9108950F931F93CF93DF93EC018B013E
:1044E0006F5F7F4F888199810E949D26009731F0F0
:1044F000998388831B830A8381E001C080E0DF9178
:10450000CF911F910F910895CF93DF93EC01888194
:104510009981892B29F08A819B818617970760F4FE
:10452000CE010E946A22882341F08C819D81892BD3
:1045300019F4E881F981108281E0DF91CF9108952B
:10454000EF92FF920F931F93CF93DF93EC017B01C8
:104550008A01BA010E948422811104C0CE010E9406
:10456000582207C01D830C83B701888199810E945E
:104570007E27CE01DF91CF911F910F91FF90EF9099
:104580000895FC0111821082138212821582148216
:104590006115710559F0FB0101900020E9F7AF01A9
:1045A00041505109461B570B0C94A0220895CF93FC
:1045B000DF93EC01FB018617970761F06081718141
:1045C0006115710529F0448155810E94A02202C025
:1045D0000E945822CE01DF91CF910895FC011182F3
:1045E000108213821282158214820C94D722CF93E8
:1045F000DF93EC016115710561F0FB010190002072
:10460000E9F7AF0141505109461B570B0E94A02208
:1046100002C00E945822CE01DF91CF910895FC0183
:1046200024813581232B31F421E061157105A1F03E
:10463000FB0108C0FC01808191816115710531F495
:1046400021E0FC018081882339F005C00E94752794
:1046500021E0892B09F020E0822F08950895505819
:10466000BB27AA270ED075C166D130F06BD120F0E0
:1046700031F49F3F11F41EF45BC10EF4E095E7FBAB
:1046800051C1E92F77D180F3BA1762077307840706
:10469000950718F071F49EF58FC10EF4E0950B2E7E
:1046A000BA2FA02D0B01B90190010C01CA01A00184
:1046B0001124FF27591B99F0593F50F4503E68F1DF
:1046C0001A16F040A22F232F342F4427585FF3CF20
:1046D000469537952795A795F0405395C9F77EF4F1
:1046E0001F16BA0B620B730B840BBAF09150A1F03A
:1046F000FF0FBB1F661F771F881FC2F70EC0BA0FC0
:10470000621F731F841F48F4879577956795B79547
:10471000F7959E3F08F0B3CF9395880F08F099273F
:10472000EE0F979587950895D9D008F481E0089504
:104730000CD00FC107D140F0FED030F021F45F3F24
:1047400019F0F0C0511139C1F3C014D198F3992375
:10475000C9F35523B1F3951B550BBB27AA27621745
:104760007307840738F09F5F5F4F220F331F441F8A
:10477000AA1FA9F333D00E2E3AF0E0E830D09150C2
:104780005040E695001CCAF729D0FE2F27D0660FAF
:10479000771F881FBB1F261737074807AB07B0E8EE
:1047A00009F0BB0B802DBF01FF2793585F4F2AF004
:1047B0009E3F510568F0B6C000C15F3FECF3983EE4
:1047C000DCF3869577956795B795F7959F5FC9F761
:1047D000880F911D9695879597F90895E1E0660FEA
:1047E000771F881FBB1F621773078407BA0720F063
:1047F000621B730B840BBA0BEE1F88F7E0950895CC
:1048000004D06894B111D9C00895BCD088F09F57E6
:1048100090F0B92F9927B751A0F0D1F0660F771F0C
:10482000881F991F1AF0BA95C9F712C0B13081F0EC
:10483000C3D0B1E00895C0C0672F782F8827B85F34
:1048400039F0B93FCCF3869577956795B395D9F74D
:104850003EF490958095709561957F4F8F4F9F4F57
:104860000895E89409C097FB3EF490958095709563
:1048700061957F4F8F4F9F4F9923A9F0F92F96E9AC
:10488000BB279395F695879577956795B795F11121
:10489000F8CFFAF4BB0F11F460FF1BC06F5F7F4FBE
:1048A0008F4F9F4F16C0882311F096E911C07723D0
:1048B00021F09EE8872F762F05C0662371F096E8D9
:1048C000862F70E060E02AF09A95660F771F881FA8
:1048D000DAF7880F9695879597F90895990F00084C
:1048E000550FAA0BE0E8FEEF16161706E807F907C2
:1048F000C0F012161306E407F50798F0621B730B5D
:10490000840B950B39F40A2661F0232B242B252BDD
:1049100021F408950A2609F4A140A6958FEF811D80
:10492000811D089597F99F6780E870E060E0089521
:104930009FEF80EC089500240A94161617061806B7
:104940000906089500240A94121613061406050693
:104950000895092E0394000C11F4882352F0BB0F24
:1049600040F4BF2B11F460FF04C06F5F7F4F8F4F87
:104970009F4F089557FD9058440F551F59F05F3FC2
:1049800071F04795880F97FB991F61F09F3F79F071
:1049900087950895121613061406551FF2CF4695F3
:1049A000F1DF08C0161617061806991FF1CF869575
:1049B0007105610508940895E894BB276627772759
:1049C000CB0197F908958ADF08F48FEF08950BD093
:1049D000C0CFB1DF28F0B6DF18F0952309F0A2CFE1
:1049E000A7CF1124EACFC6DFA0F3959FD1F3950F8F
:1049F00050E0551F629FF001729FBB27F00DB11D63
:104A0000639FAA27F00DB11DAA1F649F6627B00DF2
:104A1000A11D661F829F2227B00DA11D621F739FDB
:104A2000B00DA11D621F839FA00D611D221F749FE9
:104A30003327A00D611D231F849F600D211D822F30
:104A4000762F6A2F11249F5750408AF0E1F0882377
:104A50004AF0EE0FFF1FBB1F661F771F881F915084
:104A60005040A9F79E3F510570F05CCFA6CF5F3F45
:104A7000ECF3983EDCF3869577956795B795F795B7
:104A8000E7959F5FC1F7FE2B880F911D969587953F
:104A900097F9089523DF880B990B0895A1E21A2E48
:104AA000AA1BBB1BFD010DC0AA1FBB1FEE1FFF1FD2
:104AB000A217B307E407F50720F0A21BB30BE40B22
:104AC000F50B661F771F881F991F1A9469F7609569
:104AD0007095809590959B01AC01BD01CF01089523
:104AE000EE0FFF1F0590F491E02D0994CF93DF9313
:104AF0008230910510F482E090E0E0916004F09142
:104B0000610420E030E0A0E0B0E0309739F140816E
:104B1000518148175907B8F04817590771F4828135
:104B20009381109729F013969C938E9312972CC023
:104B3000909361048093600427C02115310531F002
:104B40004217530718F0A901DB0101C0EF019A01D8
:104B5000BD01DF010280F381E02DD7CF21153105A2
:104B6000F9F0281B390B2430310580F48A819B81B0
:104B70006115710521F0FB019383828304C090933A
:104B8000610480936004FE01329644C0FE01E20F8E
:104B9000F31F8193919322503109398328833AC0BE
:104BA00020915E0430915F04232B41F42091020197
:104BB0003091030130935F0420935E042091000143
:104BC000309101012115310541F42DB73EB74091D7
:104BD000040150910501241B350BE0915E04F09116
:104BE0005F04E217F307A0F42E1B3F0B28173907C9
:104BF00078F0AC014E5F5F4F2417350748F04E0F39
:104C00005F1F50935F0440935E048193919302C0B1
:104C1000E0E0F0E0CF01DF91CF910895CF93DF93F3
:104C2000009709F487C0FC01329713821282C09169
:104C30006004D0916104209781F420813181280F94
:104C4000391F80915E0490915F048217930779F574
:104C5000F0935F04E0935E046DC0DE0120E030E07D
:104C6000AE17BF0750F412964D915C9113979D01BA
:104C70004115510509F1DA01F3CFB383A2834081D5
:104C80005181840F951F8A179B0771F48D919C9118
:104C90001197840F951F02969183808312968D91B0
:104CA0009C911397938382832115310529F4F09306
:104CB0006104E09360043EC0D9011396FC93EE9327
:104CC00012974D915D91A40FB51FEA17FB0779F478
:104CD00080819181840F951F0296D90111969C9332
:104CE0008E938281938113969C938E931297E0E02A
:104CF000F0E08A819B81009719F0FE01EC01F9CF69
:104D0000CE01029628813981820F931F20915E0483
:104D100030915F042817390769F4309729F410920D
:104D200061041092600402C013821282D0935F0467
:104D3000C0935E04DF91CF910895A0E0B0E0E3EA74
:104D4000F6E20C948927EC01CB01209719F40E941C
:104D50007625B8C0FE01E60FF71F9E0122503109EB
:104D6000E217F30708F4ACC0D9010D911C9111971B
:104D700006171707B8F00530110508F49FC0A80101
:104D8000445051094617570708F498C002501109BA
:104D9000061B170B019311936D937C93CF010E9417
:104DA0000E268CC05B01A01AB10A4E01800E911E26
:104DB000A0916004B0916104612C712C60E070E0FE
:104DC000109709F449C0A815B905C9F5ED90FC90F4
:104DD0001197670142E0C40ED11CCA14DB0478F1BC
:104DE00047018A189B08640142E0C40ED11C129648
:104DF000BC9012971396AC91B5E0CB16D10440F05D
:104E0000B282A38391828082D9018D939C9309C041
:104E10000E5F1F4F0E0D1F1DF90111830083EB2D37
:104E2000FA2F6115710531F0DB011396FC93EE93B7
:104E3000129744C0F0936104E09360043FC06D9109
:104E40007C9111976616770608F43B01BD01129616
:104E50000D90BC91A02DB4CF60915E0470915F0461
:104E600068157905E9F468167906D0F440910001D7
:104E7000509101014115510541F44DB75EB7609164
:104E8000040170910501461B570BE417F507C0F4A8
:104E9000F0935F04E0935E04F901918380830EC078
:104EA0000E9476257C01009759F0A801BE010E945E
:104EB0006C27CE010E940E26C70104C0CE0102C09D
:104EC00080E090E0CDB7DEB7EEE00C94A52781E05E
:104ED00090E0F8940C94BC27FB01DC0102C0019027
:104EE0000D9241505040D8F70895FB01DC018D919F
:104EF000019080190110D9F3990B0895FB01DC0191
:104F000001900D920020E1F708952F923F924F9269
:104F10005F926F927F928F929F92AF92BF92CF9249
:104F2000DF92EF92FF920F931F93CF93DF93CDB752
:104F3000DEB7CA1BDB0B0FB6F894DEBF0FBECDBFCA
:104F400009942A88398848885F846E847D848C849B
:104F50009B84AA84B984C884DF80EE80FD800C81A4
:104F60001B81AA81B981CE0FD11D0FB6F894DEBF87
:104F70000FBECDBFED01089516E0C6ECD6E004C02B
:104F8000FE010E9472252296C83CD107C9F7F89409
:024F9000FFCF51
:104F9200000062048000014F464600434F4F4C0020
:104FA200484541540046414E004578697400436FBC
:104FB2006F6C0048656174004F6666004175746FDE
:104FC200004F6E005377696E67004D6178004D693E
:104FD2006E0053746570004D6F6465005365740014
:104FE20046616E00414D4249454E5400544152477C
:104FF200455400000000002A1270205E20A20FA873
:1050020010BF105910D5100A112811000000002AF3
:10501200127020AB15A20FEC153F16591092169084
:105022001225130D0A006E616E00696E66006F76BE
:0450320066002E00E6
:00000001FF
