:100000000C9465030C94D0220C94FD220C942621B0
:100010000C9426210C9426210C948D030C948D03B2
:100020000C948D030C948D030C948D030C948D0310
:100030000C948D030C948D030C948D030C948D0300
:100040000C942A230C948D030C9419260C944B26A3
:100050000C948D030C948D030C948D030C948D03E0
:100060000C948D030C948D0300000000003E5B4F48
:100070005B3E3E6B4F6B3E1C3E7C3E1C183C7E3C08
:10008000181C577D571C1C5E7F5E1C00183C180016
:10009000FFE7C3E7FF0018241800FFE7DBE7FF30A6
:1000A000483A060E2629792926407F050507407F14
:1000B00005253F5A3CE73C5A7F3E1C1C08081C1C87
:1000C0003E7F14227F22145F5F005F5F06097F017D
:1000D0007F006689956A606060606094A2FFA29468
:1000E00008047E040810207E201008082A1C080836
:1000F0001C2A08081E101010100C1E0C1E0C303884
:100100003E3830060E3E0E06000000000000005F84
:1001100000000007000700147F147F14242A7F2AA0
:100120001223130864623649562050000807030062
:10013000001C2241000041221C002A1C7F1C2A08AE
:10014000083E080800807030000808080808000011
:1001500060600020100804023E5149453E00427F85
:10016000400072494949462141494D331814127FD4
:100170001027454545393C4A494931412111090774
:100180003649494936464949291E000014000000F5
:1001900040340000000814224114141414140041C7
:1001A00022140802015909063E415D594E7C121184
:1001B000127C7F494949363E414141227F414141BC
:1001C0003E7F494949417F090909013E4141517337
:1001D0007F0808087F00417F41002040413F017FA8
:1001E000081422417F404040407F021C027F7F0470
:1001F00008107F3E4141413E7F090909063E4151B9
:10020000215E7F09192946264949493203017F01A8
:10021000033F4040403F1F2040201F3F4038403FA9
:10022000631408146303047804036159494D4300BF
:100230007F4141410204081020004141417F0402F6
:10024000010204404040404000030708002054548D
:1002500078407F284444383844444428384444286B
:100260007F385454541800087E090218A4A49C78BE
:100270007F0804047800447D40002040403D007F1A
:100280001028440000417F40007C047804787C08FA
:100290000404783844444438FC18242418182424CE
:1002A00018FC7C08040408485454542404043F44B3
:1002B000243C4040207C1C2040201C3C4030403CE2
:1002C00044281028444C9090907C4464544C440042
:1002D00008364100000077000000413608000201A6
:1002E0000204023C2623263C1EA1A161123A404092
:1002F000207A38545455592155557941225454780F
:1003000042215554784020545579400C1E527212A7
:100310003955555559395454545939555454580030
:1003200000457C410002457D420001457C407D1234
:1003300011127DF0282528F07C5455450020545496
:100340007C547C0A097F4932494949323A44444441
:100350003A324A4848303A4141217A3A424020787C
:10036000009DA0A07D3D4242423D3D4040403D3C7D
:1003700024FF2424487E4943662B2FFC2F2BFF09A2
:1003800029F620C0887E0903205454794100004496
:100390007D413048484A32384040227A007A0A0A81
:1003A000727D0D19317D2629292F282629292926F4
:1003B00030484D4020380808080808080808382F39
:1003C00010C8ACBA2F102834FA00007B00000814C3
:1003D0002A142222142A14085500550055AA55AA99
:1003E00055AAFF55FF55FF000000FF00101010FF39
:1003F00000141414FF001010FF00FF1010F010F094
:10040000141414FC001414F700FF0000FF00FF1484
:1004100014F404FC141417101F10101F101F1414D0
:10042000141F00101010F0000000001F101010101A
:100430001F10101010F010000000FF10101010100E
:1004400010101010FF10000000FF140000FF00FF4C
:1004500000001F10170000FC04F4141417101714E8
:1004600014F404F40000FF00F7141414141414140A
:10047000F700F7141414171410101F101F1414147D
:10048000F4141010F010F000001F101F0000001FE7
:1004900014000000FC140000F010F01010FF10FF1A
:1004A000141414FF141010101F00000000F010FFAF
:1004B000FFFFFFFFF0F0F0F0F0FFFFFF0000000093
:1004C00000FFFF0F0F0F0F0F3844443844FC4A4A17
:1004D0004A347E02020606027E027E0263554941CC
:1004E000633844443C04407E201E2006027E020203
:1004F00099A5E7A5991C2A492A1C4C7201724C3017
:100500004A4D4D303048784830BC625A463D3E49ED
:100510004949007E0101017E2A2A2A2A2A44445F91
:10052000444440514A444040444A51400000FF0185
:1005300003E080FF000008086B6B08361236243693
:10054000060F090F060000181800000010100030F8
:1005500040FF0101001F01011E00191D1712003C80
:100560003C3C3C0000000000005EBCE2613FDD83DB
:10057000C29C7E20A3FD1F419DC3217FFCA2401E83
:100580005F01E3BD3E6082DC237D9FC1421CFEA073
:10059000E1BF5D0380DE3C62BEE0025CDF81633D63
:1005A0007C22C09E1D43A1FF4618FAA427799BC553
:1005B00084DA3866E5BB5907DB856739BAE4065843
:1005C0001947A5FB7826C49A653BD987045AB8E633
:1005D000A7F91B45C6987A24F8A6441A99C7257B23
:1005E0003A6486D85B05E7B98CD2306EEDB3510F13
:1005F0004E10F2AC2F7193CD114FADF3702ECC9203
:10060000D38D6F31B2EC0E50AFF1134DCE90722CF2
:100610006D33D18F0C52B0EE326C8ED0530DEFB1E2
:10062000F0AE4C1291CF2D73CA947628ABF51749D2
:100630000856B4EA6937D58B5709EBB536688AD4C2
:1006400095CB2977F4AA4816E9B7550B88D6346AB2
:100650002B7597C94A14F6A8742AC896154BA9F7A2
:10066000B6E80A54D7896B35000000080002010083
:10067000000304070000000000000000010204085D
:1006800010204080010204081020010204081020FC
:100690000404040404040404020202020202030328
:1006A00003030303000000002300260029000000CC
:1006B0000000250028002B00000000002400270077
:1006C0002A003C0CA9227B267E0D11241FBECFEFF1
:1006D000D8E0DEBFCDBF11E0A0E0B1E0E4ECFEE584
:1006E00002C005900D92AA3EB107D9F725E0AAEE07
:1006F000B1E001C01D92AB39B207E1F716E0C8ECDA
:10070000D6E004C02297FE010E94CF2CC23CD10744
:10071000C9F70E94BF260C94552F0C940000DC01F1
:10072000ED91FD918081ED91FD919081ED91FD9193
:100730006C9163708E2309F064609F2309F06860F8
:10074000ECEAF3E0E60FF11D659565956D936D910B
:100750007D918D919D91099423C01AC012C016C03D
:1007600010C01EC009C014C013C006C019C009C003
:100770000DC007C00DC014C0625070408040904052
:100780000BC0615070408040904006C06E5F01C059
:100790006F5F7F4F8F4F9F4F9E938E937E936E938D
:1007A000089580917804909179040C948F0380913E
:1007B0007604909177040C948F030F931F9388E035
:1007C00092E00E94F51281110AC00E947423609386
:1007D000000270930102809302029093030288E06A
:1007E00092E00E94F512882301F10E947423609325
:1007F0000402709305028093060290930702009111
:100800000002109101022091020230910302DC01EA
:10081000CB01801B910BA20BB30B8093FC01909337
:10082000FD01A093FE01B093FF018091FC01909126
:10083000FD01A091FE01B091FF0180319742A10519
:10084000B105A8F060E088E092E00E94F2121092F8
:100850000002109201021092020210920302109202
:10086000FC011092FD011092FE011092FF011F91F8
:100870000F910895CF93DF9300D000D000D0CDB773
:10088000DEB781E292E00E9480128130910571F022
:100890002CF4892BF9F46FE071E00DC082309105E2
:1008A00041F00397B9F46DE171E005C063E171E0D7
:1008B00002C068E171E0CE0101960E948F29BE015D
:1008C0006F5F7F4F80EB93E00E947A22CE0101960A
:1008D0000E94212926960FB6F894DEBF0FBECDBF29
:1008E000DF91CF91089580917504823030F4F894AF
:1008F0008AE694E00E948F0301C0F894809171040D
:1009000090917204A0917304B09174047894049748
:10091000A105B1051CF08FEF9FEF1BC080917504FE
:10092000823030F4F8948AE694E00E948F0301C08C
:10093000F8948091710490917204A0917304B09125
:10094000740478948D3F9F4FAF4FBF4F8CF481E07C
:1009500090E09093690480936804F8941092710475
:10096000109272041092730410927404789404C06C
:10097000109269041092680480916804909169044F
:100980000895CF92DF92EF92FF9281309105A1F509
:1009900081E292E00E9476126B017C0181E292E09A
:1009A0000E9440129B01AC01C701B6010E948D2A32
:1009B0006B017C0181E292E00E944C129B01AC0130
:1009C000C701B6010E94402C87FD05C081E292E07C
:1009D0000E944C1249C081E292E00E9476126B01A3
:1009E0007C0181E292E00E9440129B01AC01C701B0
:1009F000B6010E948D2A38C08F3F2FEF920709F071
:100A000051C081E292E00E9476126B017C0181E28A
:100A100092E00E9440129B01AC01C701B6010E9406
:100A20008C2A6B017C0181E292E00E9458129B01AA
:100A3000AC01C701B6010E94F12A18162CF081E220
:100A400092E00E94581210C081E292E00E94761259
:100A50006B017C0181E292E00E9440129B01AC019B
:100A6000C701B6010E948C2AAB01BC0181E292E071
:100A70000E94701281E292E00E947612AB01BC01EA
:100A800088E092E00E94E81281E292E00E947612F1
:100A9000AB01BC0187E893E0FF90EF90DF90CF902F
:100AA0000C942A22892B71F481E292E00E94761242
:100AB000AB01BC0188E092E0FF90EF90DF90CF9017
:100AC0000C94E812FF90EF90DF90CF900895813062
:100AD0009105E1F481E292E00E94401220E030E0D2
:100AE00040E45FE30E94402C18162CF440E050E0F4
:100AF00060E87FE32CC081E292E00E94401220E097
:100B000030E040E85EE30E948D2A1FC08F3F2FEF48
:100B1000920759F581E292E00E94401220E030E015
:100B200040E05FE30E94F12A87FF05C040E050E00B
:100B300060E87EE30CC081E292E00E94401220E077
:100B400030E040E85EE30E948C2AAB01BC0181E208
:100B500092E00E943A1281E292E00E944012AB01C0
:100B6000BC0187E893E00C942A22892B51F481E29E
:100B700092E00E944012AB01BC0181E292E00C9431
:100B80003A12089581309105E1F481E292E00E94E9
:100B9000341220E030E040E45FE30E94402C18165D
:100BA0002CF440E050E060E87FE32CC081E292E06A
:100BB0000E94341220E030E040E85EE30E948D2A7B
:100BC0001FC08F3F2FEF9207A9F581E292E00E94AC
:100BD000341220E030E040E05FE30E94F12A87FF1A
:100BE00005C040E050E060E87EE30CC081E292E0A6
:100BF0000E94341220E030E040E85EE30E948C2A3C
:100C0000AB01BC0181E292E00E942E1281E292E0EF
:100C10000E943412AB01BC0188E092E00E94DC1219
:100C200081E292E00E943412AB01BC0187E893E0BC
:100C30000C942A22892BA1F481E292E00E943412C2
:100C4000AB01BC0181E292E00E942E1281E292E0AF
:100C50000E943412AB01BC0188E092E00C94DC12DB
:100C60000895CF92DF92EF92FF928130910511F5B6
:100C700081E292E00E944C1220E030E048EE51E424
:100C80000E94402C18162CF440E050E060EF71E414
:100C900038C081E292E00E944C126B017C0181E23B
:100CA00092E00E9440129B01AC01C701B6010E9474
:100CB0008D2A25C08F3F2FEF9207A9F581E292E0A0
:100CC0000E944C122DEC3CEC48EC51E40E94F12ABD
:100CD00087FF05C040E050E068EC71E412C081E29B
:100CE00092E00E944C126B017C0181E292E00E9432
:100CF00040129B01AC01C701B6010E948C2AAB01D6
:100D0000BC0181E292E00E94461281E292E00E94E0
:100D10004C12AB01BC0187E893E0FF90EF90DF90AD
:100D2000CF900C942A22892B71F481E292E00E94E8
:100D30004C12AB01BC0181E292E0FF90EF90DF909A
:100D4000CF900C944612FF90EF90DF90CF900895D3
:100D5000CF92DF92EF92FF928130910511F581E2FF
:100D600092E00E94581220E030E048EB51E40E94EB
:100D7000402C18162CF440E050E060EC71E438C0D0
:100D800081E292E00E9458126B017C0181E292E0C4
:100D90000E9440129B01AC01C701B6010E948D2A3E
:100DA00025C08F3F2FEF9207A9F581E292E00E94C4
:100DB00058122DEC3CEC40E951E40E94F12A87FFE7
:100DC00005C040E050E060E971E412C081E292E0C9
:100DD0000E9458126B017C0181E292E00E94401255
:100DE0009B01AC01C701B6010E948C2AAB01BC017A
:100DF00081E292E00E94521281E292E00E94581237
:100E0000AB01BC0187E893E0FF90EF90DF90CF90BB
:100E10000C942A22892B71F481E292E00E945812EC
:100E2000AB01BC0181E292E0FF90EF90DF90CF90A8
:100E30000C945212FF90EF90DF90CF900895CF93D3
:100E4000DF9300D000D000D0CDB7DEB787E893E0C5
:100E50000E9408228EE593E00E945B2268E474E021
:100E6000CE0101960E94BC29BE016F5F7F4F85E3D2
:100E700093E00E947A22CE0101960E9421296EE41D
:100E800074E0CE0101960E94BC29BE016F5F7F4FC6
:100E900083EE92E00E947A22CE0101960E942129DF
:100EA00062E474E0CE0101960E94BC29BE016F5F2E
:100EB0007F4F8CE093E00E947A22CE0101960E943F
:100EC000212968EC70E080E090E00E94A323269640
:100ED0000FB6F894DEBF0FBECDBFDF91CF9108955E
:100EE000CF93DF9300D000D000D0CDB7DEB785E33D
:100EF00093E00E945B2283EE92E00E945B228CE0F2
:100F000093E00E945B2281E292E00E947612AB01A4
:100F1000BC0187E893E00E942A2261E271E0CE01E1
:100F200001960E948F29BE016F5F7F4F8EE593E08F
:100F30000E947A22CE0101960E9421290E943A0441
:100F400068EC70E080E090E00E94A32326960FB644
:100F5000F894DEBF0FBECDBFDF91CF9108950F9300
:100F60001F93CF93DF9300D000D000D0CDB7DEB772
:100F70008C01BC016A5F7F4FCE0101960E94BC29A3
:100F8000BE016F5F7F4F85E393E00E947A22CE011E
:100F900001960E942129B801645F7F4FCE0101961E
:100FA0000E94BC29BE016F5F7F4F83EE92E00E94DA
:100FB0007A22CE0101960E942129B801CE01019624
:100FC0000E94BC29BE016F5F7F4F8CE093E00E94BE
:100FD0007A22CE0101960E94212926960FB6F89416
:100FE000DEBF0FBECDBFDF91CF911F910F9108954E
:100FF000AF92BF92CF92DF92EF92FF920F931F9327
:10100000CF93DF93EC017B01BC018AE594E00E9461
:10101000A529CE0100E010E0570121E0A21AB10895
:101020006C0126E0C20ED11C0A151B053CF4B6016A
:101030000E94A5290F5F1F4FC601F2CF26E02E9D0B
:10104000C0012F9D900D112406976AE574E08C0F66
:101050009D1FDF91CF911F910F91FF90EF90DF9037
:10106000CF90BF90AF900C94A529EF92FF920F9371
:101070001F93CF93DF938C017B0186E0869FE00175
:10108000879FD00D1124BE0166507109600F711F3A
:101090008AE594E00E94A529C00FD11F81E0E81ADB
:1010A000F1082697F7FC07C0BE0166507109CE0112
:1010B0000E94A529F3CF6AE574E0C801DF91CF91C2
:1010C0001F910F91FF90EF900C94A529CF92DF9282
:1010D000EF92FF92CF936B017C0181E292E00E943C
:1010E0004012AB01BC0187E893E00E942A22C1E0D4
:1010F00080916004811132C085E694E00E9417213E
:1011000080930E010E9474236C197D098E099F093A
:10111000603177428105910520F00E947007C093ED
:1011200060040E9473040E94670564E170E080E03F
:1011300090E00E94A32385E694E00E94172181118C
:10114000D7CF80910E01882399F264E170E080E0AE
:1011500090E00E94A323C0936004CACFCF91FF9078
:10116000EF90DF90CF900895CF92DF92EF92FF92B1
:10117000CF936B017C0181E292E00E943412AB01BB
:10118000BC0187E893E00E942A22C1E080916004BC
:10119000811132C085E694E00E94172180930E01F0
:1011A0000E9474236C197D098E099F096031774272
:1011B0008105910520F00E947007C09360040E9491
:1011C00073040E94C20564E170E080E090E00E9438
:1011D000A32385E694E00E9417218111D7CF809147
:1011E0000E01882399F264E170E080E090E00E94B3
:1011F000A323C0936004CACFCF91FF90EF90DF90FC
:10120000CF900895CF92DF92EF92FF92CF936B0130
:101210007C0181E292E00E944C12AB01BC0187E8A4
:1012200093E00E942A22C1E080916004811132C0C3
:1012300085E694E00E94172180930E010E9474239A
:101240006C197D098E099F096031774281059105EE
:1012500020F00E947007C09360040E9473040E94F3
:10126000310664E170E080E090E00E94A32385E60F
:1012700094E00E9417218111D7CF80910E0188231D
:1012800099F264E170E080E090E00E94A323C093B3
:101290006004CACFCF91FF90EF90DF90CF90089578
:1012A000CF92DF92EF92FF92CF936B017C0181E2AC
:1012B00092E00E945812AB01BC0187E893E00E94C3
:1012C0002A22C1E080916004811132C085E694E059
:1012D0000E94172180930E010E9474236C197D09CE
:1012E0008E099F09603177428105910520F00E94A7
:1012F0007007C09360040E9473040E94A80664E112
:1013000070E080E090E00E94A32385E694E00E94D4
:1013100017218111D7CF80910E01882399F264E1C2
:1013200070E080E090E00E94A323C0936004CACFE5
:10133000CF91FF90EF90DF90CF90089560E374E03D
:101340008AE594E00E94A52968E271E08AE594E0CC
:101350000E941C2A81112FC06DE271E08AE594E0A1
:101360000E941C2A811113C062E371E08AE594E0B7
:101370000E941C2A81110EC067E371E08AE594E0A7
:101380000E941C2A8823B9F060E070E005C061E08B
:1013900070E002C062E070E081E292E00E947C12A4
:1013A00081E292E00E948012BC0188E092E00E94FB
:1013B000EE120E943A0481E0809360040895CF9277
:1013C000DF92EF92FF92CF936B017C018AE294E06F
:1013D0000E94AF07C1E080916004811152C085E690
:1013E00094E00E94172180930E010E9474236C19CF
:1013F0007D098E099F09603177428105910520F0B2
:101400000E947007C09360040E9473048F3F2FEF07
:10141000920759F00197A9F460910A0170910B01AC
:101420008AE294E00E94350808C060910A01709138
:101430000B018AE294E00E94F8078AE294E00E949D
:10144000AF0785E694E00E9417218111C4CF8091F7
:101450000E01882309F4BFCF64E170E080E090E0E2
:101460000E94A32385E393E00E945B2283EE92E037
:101470000E945B228CE093E00E945B220E949E0906
:10148000AACFCF91FF90EF90DF90CF90089560E0CA
:1014900074E08AE594E00E94A52968E271E08AE59B
:1014A00094E00E941C2A811124C06BE371E08AE55C
:1014B00094E00E941C2A81110BC060E471E08AE56F
:1014C00094E00E941C2A8823A1F063E070E002C02F
:1014D00060E070E081E292E00E947C1281E292E0A2
:1014E0000E948012BC0188E092E00E94EE120E94ED
:1014F0003A0481E0809360040895CF92DF92EF92E6
:10150000FF92CF936B017C018AEF93E00E94AF07BB
:10151000C1E080916004811152C085E694E00E9490
:10152000172180930E010E9474236C197D098E0986
:101530009F09603177428105910520F00E94700774
:10154000C09360040E9473048F3F2FEF920759F0FD
:101550000197A9F460910601709107018AEF93E069
:101560000E94350808C060910601709107018AEF5A
:1015700093E00E94F8078AEF93E00E94AF0785E6A8
:1015800094E00E9417218111C4CF80910E0188231D
:1015900009F4BFCF64E170E080E090E00E94A323F3
:1015A00085E393E00E945B2283EE92E00E945B223F
:1015B0008CE093E00E945B220E94470AAACFCF9161
:1015C000FF90EF90DF90CF90089562E174E08AE59C
:1015D00094E00E94A52968E271E08AE594E00E9407
:1015E0001C2A811133C063E471E08AE594E00E9413
:1015F0001C2A81111DC069E471E08AE594E00E9413
:101600001C2A81111AC06DE471E08AE594E00E9401
:101610001C2A811117C061E571E08AE594E00E94FF
:101620001C2A882399F00E9474230E9466080EC029
:101630000E9474230E94B40809C00E9474230E946F
:10164000020904C00E9474230E94500981E0809323
:1016500060040895CF92DF92EF92FF92CF936B01D7
:101660007C018CE094E00E94AF07C1E080916004AF
:10167000811152C085E694E00E94172180930E01EB
:101680000E9474236C197D098E099F09603177428D
:101690008105910520F00E947007C09360040E94AC
:1016A00073048F3F2FEF920759F00197A9F46091CF
:1016B0000801709109018CE094E00E94350808C08F
:1016C00060910801709109018CE094E00E94F80794
:1016D0008CE094E00E94AF0785E694E00E94172119
:1016E0008111C4CF80910E01882309F4BFCF64E13A
:1016F00070E080E090E00E94A32385E393E00E94E5
:101700005B2283EE92E00E945B228CE093E00E94D9
:101710005B220E94E50AAACFCF91FF90EF90DF9065
:10172000CF90089568E474E08AE594E00E94A529CA
:1017300068E271E08AE594E00E941C2A811118C0D9
:1017400066E571E08AE594E00E941C2A811114C0CC
:101750006BE571E08AE594E00E941C2A811110C0BB
:101760006FE571E08AE594E00E941C2A81110CC0AB
:1017700081E08093600408950E9474230C94DF0933
:101780000E9474230C942A0B0E9474230C947D0AEB
:10179000CF92DF92EF92FF92CF936B017C01C1E079
:1017A00080916004811152C085E694E00E94172167
:1017B00080930E010E9474236C197D098E099F0984
:1017C000603177428105910520F00E947007C09337
:1017D00060040E9473048F3F2FEF920759F0019726
:1017E000A9F460910C0170910D0182E494E00E94D3
:1017F000350808C060910C0170910D0182E494E0FD
:101800000E94F80782E494E00E94AF0785E694E026
:101810000E9417218111C4CF80910E01882309F401
:10182000BFCF64E170E080E090E00E94A32385E3F5
:1018300093E00E945B2283EE92E00E945B228CE0A8
:1018400093E00E945B220E94920BAACFCF91FF905F
:10185000EF90DF90CF900895CF93DF93EC014E96F9
:101860000E942129CE0144960E942129CE01029690
:10187000DF91CF910C9421290F931F93CF93DF9386
:1018800062E082E00E943A2462E083E00E943A240F
:10189000E2E9F6E0E491F0E0EE0FFF1FEC55F94FBE
:1018A0008591949190936B0480936A04EEE7F6E03F
:1018B000E491E0936E04E3E9F6E0E491F0E0EE0FEA
:1018C000FF1FEC55F94F8591949190936D0480938F
:1018D0006C04EFE7F6E0E491E0936F04109271047A
:1018E00010927204109273041092740480ED97E0C9
:1018F0000E94CB23E0916A04F0916B049081809167
:101900006E04982381E009F480E0E0916C04F0918A
:101910006D04908120916F04922309F0826080937E
:101920007004CAE6D4E0D0937704C093760441E013
:1019300050E067ED73E080E00E94B02281E0809388
:101940007504D0937904C093780441E050E061EDD0
:1019500073E00E94B0228091750490E0019680931C
:10196000750464E070E085E694E00E940E216BED62
:1019700071E08AE594E00E948F29C2E4D4E06BED27
:1019800071E0CE010E948F29269684E0CA35D807DF
:10199000B1F7CAE2D4E06BED71E0CE010E948F296D
:1019A000269684E0C234D807B1F7CCE0D4E06BEDE2
:1019B00071E0CE010E948F29269684E0CA32D807B2
:1019C000B1F7CAEFD3E06BED71E0CE010E948F2931
:1019D000269684E0CC30D807B1F767E08CEE93E030
:1019E0000E9447206CEE73E089ED93E00E94291B72
:1019F0000FEF1FEF24E030E048EC50E068EC70E0BF
:101A000080EB93E00E94D62127E030E044E650E0EE
:101A100062E370E087E893E00E94D62121E030E0A5
:101A20004BE950E069ED70E08EE593E00E94D6212D
:101A300024E030E044E650E064E670E085E393E0C3
:101A40000E94D62122E030E043E750E06AE070E0F7
:101A50008CE093E00E94D62122E030E043E750E0A2
:101A600060EF70E083EE92E00E94D62127E030E044
:101A700044E650E062E370E08AEB92E00E94D621F7
:101A800024E030E044E150E064E170E081E992E07C
:101A90000E94D62121E030E045E350E06FE570E0A0
:101AA00088E692E00E94D62121E030E048E250E052
:101AB00068EC70E08FE392E00E94D62120E130E0F4
:101AC0004EE050E06FE070E088E092E00E94841207
:101AD0006BED71E086EF91E00E948F296BED71E074
:101AE00080EF91E00E948F296BED71E08AEE91E02A
:101AF000DF91CF911F910F910C948F29CF93DF939A
:101B00008AEE91E00E94212980EF91E00E94212934
:101B100086EF91E00E9421298FE392E00E942C0C35
:101B200088E692E00E942C0C81E992E00E942C0C45
:101B30008AEB92E00E942C0C83EE92E00E942C0C27
:101B40008CE093E00E942C0C85E393E00E942C0C27
:101B50008EE593E00E942C0C87E893E00E942C0C09
:101B600080EB93E00E942C0C86E094E00E942129F7
:101B700080E094E00E9421298AEF93E00E942129CD
:101B8000CAE2D4E02697CE010E94212984E0CC301D
:101B9000D807C1F78CE394E00E94212986E394E002
:101BA0000E94212980E394E00E9421298AE294E0A6
:101BB0000E94212984E594E00E9421298EE494E08A
:101BC0000E94212988E494E00E94212982E494E083
:101BD0000E9421298AE594E0DF91CF910C9421297C
:101BE0004F925F926F927F92AF92BF92CF92DF92AD
:101BF000EF92FF920F931F93CF93DF93CDB7DEB792
:101C00002A970FB6F894DEBF0FBECDBF26E040E89E
:101C100055E260E070E08AEF94E00E94B72563E649
:101C200071E08AEF94E00E94372766E571E082E474
:101C300094E00E94C5296BE571E088E494E00E947D
:101C4000C52968E271E08EE494E00E94C5296FE541
:101C500071E084E594E00E94C52962E371E08AE2C4
:101C600094E00E94C5296DE271E080E394E00E9457
:101C7000C52967E371E086E394E00E94C52968E224
:101C800071E08CE394E00E94C52963E471E08CE08C
:101C900094E00E94C52961E571E082E194E00E9430
:101CA000C5296DE471E088E194E00E94C52969E4EA
:101CB00071E08EE194E00E94C52968E271E084E25F
:101CC00094E00E94C52960E471E08AEF93E00E94ED
:101CD000C5296BE371E080E094E00E94C52968E2C9
:101CE00071E086E094E00E94C52981E292E00E94C2
:101CF000FE1181E292E00E94801281E292E00E9455
:101D00006A12162F072FF82EE92E81E292E00E9428
:101D100034125B016C0181E292E00E9476122B0189
:101D20003C0181E292E00E9464129B01AC0181E2DD
:101D300092E02F83388749875A870E948012EF925A
:101D4000FF920F931F93830172012F81388549857C
:101D50005A85BC0188E092E00E948C1289ED93E0E4
:101D60000E94241D8FEB94E00E94491785E694E0C1
:101D70000E94122168EC70E080E090E00E94A323B2
:101D80006BE089ED93E00E94B21C89ED93E00E9424
:101D9000F61D60E070E08FEB94E00E948A1663E02D
:101DA0008FEB94E00E94F81A0E943A0481E292E0DC
:101DB0000E947612AB01BC0187E893E00E942A22C0
:101DC00061E271E0CE0101960E948F29BE016F5F32
:101DD0007F4F8EE593E00E947A22CE0101960E9409
:101DE000212960E089ED93E00E94EA1EAB01BC016D
:101DF00081E292E00E945E1281E292E00E9464120F
:101E0000AB01BC0188E092E00E94E21281E292E024
:101E10000E946412AB01BC0181E992E00E942A2277
:101E200069E671E0CE0101960E948F29BE016F5FC5
:101E30007F4F88E692E00E947A22CE0101960E94AE
:101E400021290F900F900F900F902A960FB6F894BB
:101E5000DEBF0FBECDBFDF91CF911F910F91FF90DD
:101E6000EF90DF90CF90BF90AF907F906F905F909A
:101E70004F9008958F929F92AF92BF92CF92DF9230
:101E8000EF92FF92CF93DF93CDB7DEB72A970FB6CD
:101E9000F894DEBF0FBECDBF8AEF94E00E94D42439
:101EA000892B09F429C26AEF74E0CE0101960E94E1
:101EB0000729BE016F5F7F4F86EF91E00E94A52941
:101EC000CE0101960E94212966EF71E08AEF94E02D
:101ED0000E94252724E030E040E050E066EF71E00A
:101EE000CE0101960E943B2ABE016F5F7F4F80EFBB
:101EF00091E00E94A529CE0101960E94212927E0A8
:101F000030E045E050E066EF71E0CE0101960E94BE
:101F10003B2ABE016F5F7F4F8AEE91E00E94A529A8
:101F2000CE0101960E94212961E771E080EF91E0E6
:101F30000E941C2A8823D9F08AEE91E00E94802A10
:101F40006E31710534F4633171052CF462E170E097
:101F500002C06EE170E0882777FD8095982F0E947F
:101F6000902BAB01BC0181E292E00E94461266E731
:101F700071E080EF91E00E941C2A8823D9F08AEE5C
:101F800091E00E94802A6E31710534F4633171054D
:101F90002CF462E170E002C06EE170E0882777FD0A
:101FA0008095982F0E94902BAB01BC0181E292E0BA
:101FB0000E9452126BE771E080EF91E00E941C2AB0
:101FC000882391F18AEE91E00E94802A62307105A7
:101FD000A1F044F46130710539F540E050E060E86B
:101FE0007EE314C06330710569F064307105E1F47B
:101FF00040E050E060E87FE309C040E050E060E08E
:102000007FE304C040E050E060E47FE381E292E0DF
:102010000E942E1281E292E00E943412AB01BC01B8
:1020200088E092E00E94DC1260E871E080EF91E0CD
:102030000E941C2A882341F18AEE91E00E94802AA6
:1020400062307105A1F044F461307105E9F440E0BB
:1020500050E060E87EE314C06330710569F06430DD
:10206000710591F440E050E060E87FE309C040E092
:1020700050E060E07FE304C040E050E060E47FE3D4
:1020800081E292E00E943A1265E871E080EF91E00F
:102090000E941C2A882379F060E070E081E292E0DF
:1020A0000E947C1281E292E00E948012BC0188E0D2
:1020B00092E00E94EE126AE871E080EF91E00E94E7
:1020C0001C2A882309F46DC08AEE91E00E94802AC0
:1020D0006B017C015B0181E292E00E944C129B014A
:1020E000AC01B601882777FD8095982F2F8338871C
:1020F00049875A870E94902B2F81388549855A85B8
:102100000E94402C87FD07C081E292E00E944C12A1
:102110000E945D2B5B0181E292E00E9458129B01BC
:10212000AC01B501882777FD8095982F2F833887DC
:1021300049875A870E94902B2F81388549855A8577
:102140000E94F12A18163CF081E292E00E94581297
:102150000E945D2B5B01B501882777FD8095982F44
:102160000E94902BAB01BC0181E292E00E947012B0
:1021700081E292E00E947612AB01BC0188E092E01D
:102180000E94E81261E070E081E292E00E947C121D
:1021900081E292E00E948012BC0188E092E00E94FD
:1021A000EE126FE871E080EF91E00E941C2A882314
:1021B00009F471C08AEE91E00E94802A8AEE91E0D3
:1021C0000E94802A6B017C015B0181E292E00E9407
:1021D0004C129B01AC01B601882777FD8095982FA2
:1021E0002F83388749875A870E94902B2F81388503
:1021F00049855A850E94402C87FD07C081E292E004
:102200000E944C120E945D2B5B0181E292E00E94D1
:1022100058129B01AC01B501882777FD8095982F56
:102220002F83388749875A870E94902B2F813885C2
:1022300049855A850E94F12A18163CF081E292E005
:102240000E9458120E945D2B5B01B501882777FD23
:102250008095982F0E94902BAB01BC0181E292E007
:102260000E94701281E292E00E947612AB01BC01E2
:1022700088E092E00E94E81262E070E081E292E081
:102280000E947C1281E292E00E948012BC0188E0F0
:1022900092E00E94EE1264E971E080EF91E00E940A
:1022A0001C2A8823E9F08AEE91E00E94802A8AEEB7
:1022B00091E00E94802A6130710519F463E070E0BA
:1022C00002C060E070E081E292E00E947C1281E254
:1022D00092E00E948012BC0188E092E00E94EE121F
:1022E0000E943A0481E292E00E947612AB01BC01A6
:1022F00087E893E00E942A220E94DD030E94730473
:102300000E94C1048090610490906204A0906304D4
:10231000B090640481E292E00E946A126B017C0139
:10232000C80CD91CEA1CFB1C0E9474236C157D058B
:102330008E059F0568F189ED93E00E94F61D60E02F
:1023400089ED93E00E94EA1EAB01BC0181E292E0BC
:102350000E945E1281E292E00E946412AB01BC0115
:1023600088E092E00E94E21281E292E00E94641210
:10237000AB01BC0181E992E00E942A220E947423F1
:102380006093610470936204809363049093640487
:1023900088E092E00E94F81285E694E00E941721FE
:1023A000811104C080910E01811117C085E694E06F
:1023B0000E94172180930E012A960FB6F894DEBF73
:1023C0000FBECDBFDF91CF91FF90EF90DF90CF9008
:1023D000BF90AF909F908F90089564E170E080E08F
:1023E00090E00E94A3230E941F07109260040E94A5
:1023F00074230E94C80B0E947007D8CFFC0140E0F4
:1024000050E060E07FE340835183628373834483C1
:1024100055836683778340E157E260E070E0448B48
:10242000558B668B778B40E050E068EC71E4408F11
:10243000518F628F738F158E148E40E050E060EFE5
:1024400071E4408751876287738740E050E060E91C
:1024500071E444875587668777870895FC01408338
:102460005183628373830895FC016081718182814D
:1024700093810895FC01448355836683778308958F
:10248000FC0164817581868197810895FC014087F4
:102490005187628773870895FC0160857185828505
:1024A00093850895FC01448755876687778708954B
:1024B000FC0164857585868597850895FC01408BB0
:1024C000518B628B738B0895FC01608971898289BD
:1024D00093890895FC01648975898689978908958F
:1024E000FC01408F518F628F738F0895FC01608DC6
:1024F000718D828D938D0895FC01758F648F089581
:10250000FC01848D958D0895FC0171836083538354
:1025100042833583248308958F929F92AF92BF9216
:10252000CF92DF92EF92FF920F931F93CF93DF939F
:10253000CDB7DEB74C018F859889A989BA89F40196
:10254000778B668B2287338744875587E28AF38AA5
:10255000048B158BA682B782C086D1868687978723
:10256000A08BB18B108E61E080810E943A2460E0E4
:10257000F40180810E94732461E0F40182810E9451
:102580003A2460E0F40182810E94732461E0F40146
:1025900084810E943A2460E0F4018481DF91CF912C
:1025A0001F910F91FF90EF90DF90CF90BF90AF9071
:1025B0009F908F900C947324FC014683578360870F
:1025C00071870895FC014287538764877587089552
:1025D000FC01428B538B648B758B0895FC01778BC8
:1025E000668B0895FC01608F0895FC01808D08952D
:1025F0008F929F92AF92BF92CF92DF92EF92FF9213
:10260000CF93DF93EC018E899F89009711F460E0EE
:1026100073C081309105C9F5CA84DB84EC84FD84E4
:102620002E813F81488559856A897B898C899D895E
:102630000E948D2A4B015C019B01AC01C701B601D0
:102640000E94402C18164CF4888D811106C061E060
:1026500088810E94732461E053C0A5019401C701E1
:10266000B6010E94F12A18160CF45BC060E0888164
:102670000E94732460E08A810E94732460E08C8150
:102680000E94732481E0888F4CC08230910571F5DF
:10269000CA84DB84EC84FD842E813F814885598582
:1026A0006A897B898C899D890E948C2A4B015C01F7
:1026B0009B01AC01C701B6010E94F12A87FF0DC042
:1026C000888D81110AC061E088810E94732460E0D6
:1026D0008A810E94732461E017C0A5019401C7019B
:1026E000B6010E94402C87FD1CC0C0CF0397C9F4DF
:1026F000888D811116C061E088810E94732460E09A
:102700008A810E94732460E08C81DF91CF91FF90D9
:10271000EF90DF90CF90BF90AF909F908F900C94F0
:102720007324DF91CF91FF90EF90DF90CF90BF9017
:10273000AF909F908F9008952F923F924F925F920B
:102740006F927F928F929F92AF92BF92CF92DF92C1
:10275000EF92FF920F931F93CF93DF9300D000D09F
:10276000CDB7DEB74C017C836B836A015901C80188
:102770008701AC014C195D0957FF03C05195419584
:10278000510995016B817C81261B370B37FF03C0F4
:1027900031952195310922242394312C24173507B2
:1027A00014F0212C312C2114310459F03A2D2B2D09
:1027B0005C01832F922F3B812C81DC82CB82C32E44
:1027C000D22EAB81BC81AA16BB065CF43C2D2D2D0C
:1027D0006C01832F922F3B812C81BC82AB82A32E74
:1027E000B22E2501EB81FC814E1A5F0A3C016C1868
:1027F0007D0877FE03C0719461947108720157FEE1
:1028000003C0FFEFEF1AFF0AF594E794C816D90644
:102810002CF421E030E03A83298324C06FEF7FEF6E
:102820007A8369831FC0D401ED91FC910480F58106
:10283000E02D980121143104D9F04B815C81B6015F
:10284000C4010995E618F708F7FE06C0E981FA8188
:10285000CE0EDF1EE40CF51C2B813C812F5F3F4F19
:102860003C832B836B817C81A616B706E4F604C0FB
:10287000A6016B817C81E4CF0F900F900F900F9099
:10288000DF91CF911F910F91FF90EF90DF90CF904C
:10289000BF90AF909F908F907F906F905F904F9080
:1028A0003F902F9008956F927F928F929F92AF9258
:1028B000BF92CF92DF92EF92FF920F931F93CF932D
:1028C000DF93EC015B016A0139014801E881F9817C
:1028D0000284F385E02D87010995E881F981A6013D
:1028E000480D591D415051090284F385E02D930193
:1028F000B501CE010995E881F9810084F185E02DCB
:102900009401A601B501CE010995E881F981B501CF
:10291000660D771D615071090084F185E02D9401E9
:10292000A601CE010995DF91CF911F910F91FF90E4
:10293000EF90DF90CF90BF90AF909F908F907F905F
:102940006F900895EF92FF920F931F93DC01ED912A
:10295000FC91240F351F215031090680F781E02DAD
:10296000780189019B0109951F910F91FF90EF90CC
:102970000895EF92FF920F931F93DC01ED91FC916C
:10298000260F371F215031090680F781E02D78018D
:102990008A0109951F910F91FF90EF9008956F9212
:1029A0007F928F929F92AF92BF92CF92DF92EF92DF
:1029B000FF920F931F93CF93DF935C014A0169014C
:1029C0003801EB01C60ED71ECC15DD0574F4D50118
:1029D000ED91FC910084F185E02D87019301A40124
:1029E000BE01C50109952196EFCFDF91CF911F91CF
:1029F0000F91FF90EF90DF90CF90BF90AF909F909E
:102A00008F907F906F900895EF92FF920F931F9396
:102A1000DC01ED91FC9111971A960D911C911B9779
:102A200018962D913C9119970684F785E02D7B012E
:102A300040E050E060E070E009951F910F91FF9039
:102A4000EF9008950895FC01138212828DE991E0C0
:102A500091838083758364835783468371876087FE
:102A600053874287158A158614861786168621E0B5
:102A7000248B8FEF9FEF938B828B918B808B268B98
:102A8000178A08952F923F924F925F926F927F9292
:102A90008F929F92AF92BF92CF92DF92EF92FF926E
:102AA0000F931F93CF93DF93CDB7DEB72C970FB65D
:102AB000F894DEBF0FBECDBF9C878B873A01188785
:102AC0000F83FA86E986CD82DC0118968D919C9160
:102AD0001997681779070CF09EC01A968D919C91F2
:102AE0001B97481759070CF096C08C2C912CCB01E2
:102AF000B6E0CB9E800D911D1124181619060CF01E
:102B00008AC0C401E3E0880F991FEA95E1F7840FBA
:102B1000951F181619060CF07EC0AB85BC8557961C
:102B20008C91811103C0203B08F02F5F5B016B018A
:102B30001C8258E6452E50E0552E461A570AB5E03D
:102B40002B9F400C511C1124EC81E53031F0F20137
:102B5000EA0DFB1D24912B8301C01B827A826982BE
:102B600013011E823B8130FF13C0AB85BC85ED9104
:102B7000FC91BD81B13031F40480F581E02D2F81CD
:102B8000388519C00684F785E02DEF80F8841EC0D3
:102B9000E985FA852F813885E217F307F9F0AB85CF
:102BA000BC85ED91FC91BD81B13059F40480F58173
:102BB000E02D29853A85A101B5018B859C85099574
:102BC0000DC00684F785E02DE984FA848401940120
:102BD00049815A81B6018B859C850995EB81E695E3
:102BE000EB83FE81FF5FFE8329813A81280D391D29
:102BF0003A8329833FEF231A330AF83009F0B2CF22
:102C00004C814F5F4C83C80CD91C8FEFA81AB80AAF
:102C1000463009F099CF2C960FB6F894DEBF0FBE60
:102C2000CDBFDF91CF911F910F91FF90EF90DF907B
:102C3000CF90BF90AF909F908F907F906F905F905C
:102C40004F903F902F900895CF92EF92FF920F9365
:102C50001F93CF93DF93EC01262F6A3049F42C8920
:102C60008E859F8538E0239F800D911D112432C0F1
:102C70006D30A1F1EA88FB88088919894E855F8546
:102C80006C857D85CC880E9442152C89422F50E0AE
:102C90008C859D8536E0239F800D911D11249D8795
:102CA0008C872E892223D1F06AEF64039001659FFF
:102CB000300D112468857985260F371F28173907AD
:102CC0006CF4F3E0440F551FFA95E1F78E859F856C
:102CD000840F951F9F878E871D861C8681E090E05C
:102CE000DF91CF911F910F91FF90EF90CF900895BA
:102CF000FC0175876487578746870895611101C075
:102D000061E0FC01648B0895FC01738B628B718B15
:102D1000608B0895EF92FF920F931F93DC01ED916A
:102D2000FC9111971A960D911C911B9718962D9155
:102D30003C9119970684F785E02D7B0140E050E037
:102D400060E070E009951F910F91FF90EF9008955A
:102D5000EF92FF920F931F93CF93DF931F92CDB704
:102D6000DEB77C01062F142F40E451E060EF70E0E5
:102D700029830E94231585EB91E0F70191838083DD
:102D800004A315A3298126A381E0818F11A617A290
:102D90000F90DF91CF911F910F91FF90EF900895C9
:102DA000FC01818D811122C088E090E030E8A28D85
:102DB000B38D22A5432F462321F04C91422B4C93F7
:102DC00004C04C91209524232C93A48DB58D2C9177
:102DD00043A5242B2C93A48DB58D4C9123A5209530
:102DE00024232C933695019711F708956EBD0DB4E9
:102DF00007FEFDCF0895CF93DF93EC01EE8DFF8D9D
:102E000090818DA5809589238083EC8DFD8D9081A7
:102E10008BA5809589238083EAA1FBA190818CA555
:102E2000809589238083CE010E94D016EAA1FBA160
:102E300080819CA5892B8083DF91CF9108956623A3
:102E400011F061E201C060E20C94FB16CF93DF93B6
:102E5000EC01EE8DFF8D80819DA5892B8083EC8D0B
:102E6000FD8D90818BA5809589238083EAA1FBA1AC
:102E700090818CA5809589238083CE010E94D016F5
:102E8000EAA1FBA180819CA5892B8083DF91CF9152
:102E90000895CF93DF93EC0161E08EA10E943A2464
:102EA00060E08EA10E94732461E08DA10E943A240B
:102EB00061E08CA10E943A244CA150E0FA01E05755
:102EC000F94FE491F0E0EE0FFF1FE255F94F8591C5
:102ED00094919BA38AA32DA130E0F901E057F94F0B
:102EE000849190E0880F991F8255994FFC0185913C
:102EF00094919F8F8E8FFA01E458F94F44914CA71B
:102F0000F901E458F94F24912DA7898D882379F090
:102F10000E94A0218CB58C7F8CBD8DB581608DBD4C
:102F20008CB58F7D8CBD8CB5837F8CBD41C061E03D
:102F300089A50E943A2461E08FA10E943A2460E0B2
:102F400088A50E943A2449A550E0FA01E057F94FBC
:102F5000E491F0E0EE0FFF1FE255F94FA591B49117
:102F6000BD8FAC8F2FA130E0F901E057F94F84916C
:102F700090E0880F991F8255994FFC01859194919B
:102F80009B8F8A8FFA01E458F94F44914BA7F901BE
:102F9000E458F94F24912AA78C919BA590958923F9
:102FA0008C93EA8DFB8D90818AA5809589238083FF
:102FB00061E08EA10E94732465E070E080E090E003
:102FC0000E94A32360E08EA10E94732464E170E05C
:102FD00080E090E00E94A32361E08EA10E94732410
:102FE00066E970E080E090E00E94A3236FEECE01DE
:102FF0000E94FB1663E0CE010E94261760E8CE0116
:103000000E94261762E0CE010E9426176FECCE01C7
:103010000E94FB1660E0CE010E94261761ECCE01F3
:103020000E94261760E3CE010E9426176DEECE01A6
:103030000E94FB1664E6CE010E94261763E0CE01D3
:103040000E94261762E1CE010E94261761E8CE0198
:103050000E94261768EECE010E94FB1665E8CE019D
:103060000E94261760E0CE010E94261768E7CE0175
:103070000E9426176BECCE010E94FB1669E3CE017D
:103080000E9426176CE2CE010E94261760E0CE0156
:103090000E94261764E3CE010E94261762E0CE014B
:1030A0000E94261767EFCE010E94FB1660E2CE0158
:1030B0000E9426176AEECE010E94FB1660E0CE0148
:1030C0000E94261760E0CE010E94261760ECCE0118
:1030D0000E94FB1663E2CE010E94261761ECCE012E
:1030E0000E94FB1660E1CE010E94261765ECCE011E
:1030F0000E94FB166EE3CE010E94261768E2CE0105
:103100000E94261767ECCE010E94FB1666E8CE01EE
:103110000E94261766E3CE010E94FB1668E4CE01EA
:103120000E9426176AE3CE010E94FB1665E5CE01D8
:103130000E94261761EBCE010E94FB1660E0CE01D3
:103140000E94261768E1CE010E94261766EBCE0189
:103150000E94FB1668E0CE010E94261762E8CE01AD
:103160000E94261767E2CE010E94261762EFCE0169
:103170000E94FB1660E0CE010E94261766E2CE0197
:103180000E94FB1661E0CE010E94261760EECE0180
:103190000E94FB166FE0CE010E94261761E3CE016C
:1031A0000E9426176BE2CE010E9426176CE0CE012A
:1031B0000E9426176EE0CE010E94261768E0CE011D
:1031C0000E9426176EE4CE010E94261761EFCE0101
:1031D0000E94261767E3CE010E94261767E0CE0102
:1031E0000E94261760E1CE010E94261763E0CE01FF
:1031F0000E9426176EE0CE010E94261769E0CE01DC
:103200000E94261760E0CE010E94261761EECE01D3
:103210000E94FB1660E0CE010E9426176EE0CE01F0
:103220000E94261764E1CE010E94261763E0CE01BA
:103230000E94261761E1CE010E94261767E0CE01A9
:103240000E94261761E3CE010E94261761ECCE0191
:103250000E94261768E4CE010E94261768E0CE017E
:103260000E9426176FE0CE010E9426176CE0CE0167
:103270000E94261761E3CE010E94261766E3CE0165
:103280000E9426176FE0CE010E94261761E1CE0151
:103290000E94FB1668E770E080E090E00E94A323A4
:1032A00069E2CE01DF91CF910C94FB16CF92DF92B1
:1032B000FF920F931F93CF93DF9300D000D01F9204
:1032C000CDB7DEB76C01F62E6AE22B833A834D83CD
:1032D0005C8379830E94FB167981672FC6010E9467
:1032E00026176F2DC6010E9426173A81632FC6014B
:1032F0000E9426172B81622FC6010E9426176BE2BF
:10330000C6010E94FB165C81652FC6010E9426172C
:103310004D81642FC6010E942617612FC6010E94AD
:103320002617602FC6010E9426176CE2C6010F9077
:103330000F900F900F900F90DF91CF911F910F91F1
:10334000FF90DF90CF900C94FB16EF92FF920F93BB
:103350001F93CF93DF93EC01F22EE32E77FD2FC066
:10336000288539856217730754F557FD28C02A85CB
:103370003B85421753071CF58A010F5F1F4F9B01C6
:103380002F5F3F4F0E945619EE8DFF8D80819DA5C6
:10339000892B8083EAA1FBA190818CA5809589234C
:1033A00080836E2DCE010E94D0166F2DCE010E941B
:1033B000D016EAA1FBA180819CA5892B8083DF9197
:1033C000CF911F910F91FF90EF900895CF92DF92D0
:1033D000EF92FF920F931F93CF93DF93EC0179014C
:1033E000D02EC12E8885998568177907CCF58A85F6
:1033F0009B8548175907A4F59A012E0D3F1D82178A
:1034000093071CF47C01E41AF50A8A010E0D1F1DB6
:10341000015011099B01CE010E945619EE8DFF8DBE
:1034200080819DA5892B8083EAA1FBA190818CA539
:10343000809589238083E114F10461F06C2DCE0125
:103440000E94D0166D2DCE010E94D01681E0E81AA0
:10345000F108F1CFEAA1FBA180819CA5892B808393
:10346000DF91CF911F910F91FF90EF90DF90CF9060
:103470000895CF92DF92EF92FF920F931F93CF9315
:10348000DF93EC017901D02EC12E888599856817CC
:103490007907CCF52A853B8542175307A4F59B0194
:1034A0002E0D3F1D821793071CF47C01E61AF70AC4
:1034B0009B012E0D3F1D215031098A01CE010E9432
:1034C0005619EE8DFF8D80819DA5892B8083EAA101
:1034D000FBA190818CA5809589238083E114F10460
:1034E00061F06C2DCE010E94D0166D2DCE010E9490
:1034F000D01681E0E81AF108F1CFEAA1FBA18081A2
:103500009CA5892B8083DF91CF911F910F91FF9014
:10351000EF90DF90CF900895AF92BF92CF92DF925D
:10352000EF92FF920F931F93CF93DF93EC0169010A
:10353000580128853985621773070CF04EC08A85BB
:103540009B85481759070CF048C0FB01EC0DFD1D89
:103550002E173F071CF46901C61AD70A9A012A0DD3
:103560003B1D821793071CF45C01A41AB50A8A015B
:103570000A0D1B1D015011099B012C0D3D1D2150F1
:103580003109CE010E945619EE8DFF8D80819DA5D7
:10359000892B8083EAA1FBA190818CA5809589234A
:1035A00080831A141B049CF48601101611065CF427
:1035B0006F2DCE010E94D0166E2DCE010E94D01626
:1035C00001501109F2CF81E0A81AB108EACFEAA1AF
:1035D000FBA180819CA5892B8083DF91CF911F91D6
:1035E0000F91FF90EF90DF90CF90BF90AF90089534
:1035F0001F93CF93DF93EC01162F66E30E94FB1617
:10360000612F63706D8B623041F0633089F06130FF
:1036100011F068E403C068E20CC068E8CE010E94C3
:10362000261780EF90E09987888780E491E00AC0B0
:1036300068EECE010E94261780E491E09987888782
:1036400080EF90E09B878A87DF91CF911F9108954B
:103650000895FC0188E29BE1928B818B76836583E0
:103660001482108289E0818381E0828383830895BC
:10367000CF93DF93EB0167E0CE010E94022191E03E
:103680002F81821390E0892FDF91CF910895EF92DF
:10369000FF920F931F93CF93DF93EC018B01E42EE6
:1036A0008D819E810E943520F12CB8018D819E81F3
:1036B0000E946A20882359F0FE1006C0B801CE018E
:1036C0000E94381B811104C0F394EF1470F780E05E
:1036D000DF91CF911F910F91FF90EF900895EF929E
:1036E000FF920F931F93CF93DF9300D0CDB7DEB738
:1036F0007C018A01FC018581968169837A830E941D
:103700000E1F69817A81F701858196810E940920C7
:1037100040E06EEBF701858196810E94AB1FF701B7
:10372000858196810E94ED1FF8018083F7018581D4
:1037300096810E94ED1FF8018183F70185819681B2
:103740000E94ED1FF8018283F701858196810E9416
:10375000ED1FF8018383F701858196810E94ED1F9B
:10376000F8018483F701858196810E94ED1FF8019D
:103770008583F701858196810E94ED1FF80186837C
:10378000F701858196810E94ED1FF8018783F7017B
:10379000858196810E94ED1FF8018087F701858160
:1037A00096810F900F90DF91CF911F910F91FF9015
:1037B000EF900C940E1FCF93DF93EA010E946F1BD2
:1037C00068E0CE010E94022191E02885821390E0FA
:1037D000892FDF91CF910895EF92FF920F931F935E
:1037E000CF93DF93EC017B018A018D819E810E9442
:1037F0000E1FB7018D819E810E94092040E06EE47A
:103800008D819E810E94AB1F40E0F80162818D8115
:103810009E810E94AB1F40E0F80163818D819E81F3
:103820000E94AB1FF7018081803139F040E0F80140
:1038300064818D819E810E94AB1F8D819E810E943B
:103840000E1F488168E48D819E810E94AB1F888194
:10385000882331F06AE070E080E090E00E94A323CA
:103860008D819E81DF91CF911F910F91FF90EF90FD
:103870000C940E1FEF92FF921F93CF93DF9300D013
:10388000CDB7DEB77C01FC018581968169837A839F
:103890000E940E1F69817A81F701858196810E94BD
:1038A000092040E064EBF701858196810E94AB1FFF
:1038B000F701858196810E94801F182FF70185816D
:1038C00096810E940E1F81E0111180E00F900F90F1
:1038D000DF91CF911F91FF90EF900895EF92FF92AB
:1038E0000F931F93CF93DF93CDB7DEB72A970FB611
:1038F000F894DEBF0FBECDBF7C018B01242FAE013B
:103900004F5F5F4F2A870E94DB1B2A858823D1F0F7
:10391000F80180818031C1F02B3041F02C3021F052
:103920002A3031F48FE305C08FE703C08FE501C073
:103930008FE18D83AE014F5F5F4FB801C7010E94D9
:10394000EC1B02C080E001C081E02A960FB6F8941B
:10395000DEBF0FBECDBFDF91CF911F910F91FF90C2
:10396000EF900895EF92FF920F931F93CF93DF9301
:10397000CDB7DEB728970FB6F894DEBF0FBECDBF28
:103980008C01693020F06D3018F06CE001C069E006
:10399000F8016183E12CF12CF801848190E0E816B4
:1039A000F9069CF44E2DBE016F5F7F4FC8010E9447
:1039B000471BF8014181BE016F5F7F4FC8010E9424
:1039C0006E1CFFEFEF1AFF0AE7CF28960FB6F894A8
:1039D000DEBF0FBECDBFDF91CF911F910F91FF9042
:1039E000EF900895CF93DF93CDB7DEB729970FB649
:1039F000F894DEBF0FBECDBFFB0120812031D1F096
:103A0000AE014F5F5F4F0E94DB1B882379F08D81F1
:103A10008F3351F018F48F3169F008C08F3541F0C1
:103A20008F3721F48CE007C08AE005C080E003C036
:103A30008BE001C089E029960FB6F894DEBF0FBE77
:103A4000CDBFDF91CF910895EF92FF920F931F9317
:103A5000CF93DF93CDB7DEB761970FB6F894DEBF93
:103A60000FBECDBF8C01FC01858196810E9435205F
:103A7000F8011482FF24F394BE01665F7F4FF801C2
:103A8000858196810E946A208823C9F1BE01665F04
:103A90007F4FC8010E94381B882371F3F801808191
:103AA000811108C0BE01665F7F4FC8010E943A1CA9
:103AB000811122C0AE014F5F5F4FBE01665F7F4F35
:103AC000C8010E946F1BF801E180BE01665F7F4F55
:103AD000C8010E94F21C8E1518F4F801818106C0FD
:103AE000BE01665F7F4FC8010E94F21CF80181830E
:103AF00084818F5F8483C0CFF801F082DBCF619631
:103B00000FB6F894DEBF0FBECDBFDF91CF911F91EE
:103B10000F91FF90EF900895CF93DF93CDB7DEB76D
:103B200029970FB6F894DEBF0FBECDBFAE014F5F31
:103B30005F4F0E946F1B81E09981911101C080E06D
:103B400029960FB6F894DEBF0FBECDBFDF91CF919F
:103B50000895CF92DF92EF92FF920F931F93CF932E
:103B6000DF93EC018B01452BE1F08B818823C9F0B9
:103B70008881811116C00E9474236B017C0160E072
:103B800070E0CE010E948C1D81110BC00E94742335
:103B90006C197D098E099F096E3E72408105910561
:103BA00070F3F80180818A3049F08B3061F0893000
:103BB00079F46EE570E080E090E00EC06CEB70E0B0
:103BC00080E090E009C067E771E080E090E004C029
:103BD0006EEE72E080E090E0DF91CF911F910F9147
:103BE000FF90EF90DF90CF900C94A323CF93DF93BF
:103BF000EC018D819E810E940E1F8D819E810E940D
:103C00003120488164E48D819E810E94AB1F8A81AE
:103C1000882351F0BE016F5F7F4F40E050E0CE013E
:103C2000DF91CF910C94A91DDF91CF9108958F92D0
:103C30009F92AF92BF92CF92DF92EF92FF921F932B
:103C4000CF93DF93FB01EA01698170E0762F66274D
:103C50008881682B80818232B1F18832A1F1803174
:103C600009F078C01F8175956795882777FD809545
:103C7000982F0E94902B20E030E040E85EE30E9405
:103C80008C2A6B017C01612F70E08E81681B7109A9
:103C9000882777FD8095982F0E94902B4B015C011F
:103CA000612F70E080E090E00E948E2B9B01AC01C0
:103CB000C501B4010E94F52A9B01AC01C701B60100
:103CC0000E948D2A43C08C818F3381F198F48F310B
:103CD00009F040C093E0759567959A95E1F78827BC
:103CE00077FD8095982F0E94902B20E030E040E0F7
:103CF0005FE32AC08F3569F08F3761F5882777FD3C
:103D00008095982F0E94902B20E030E040E85DE302
:103D10001BC075956795882777FD8095982F0E9421
:103D2000902B20E030E040E05EE30EC07595679593
:103D300075956795882777FD8095982F0E94902B21
:103D400020E030E040E85EE30E94442C562F472FED
:103D5000382F292F652F742F832F922FDF91CF912A
:103D60001F91FF90EF90DF90CF90BF90AF909F900A
:103D70008F900895EF92FF920F931F93CF93DF934D
:103D8000CDB7DEB729970FB6F894DEBF0FBECDBF13
:103D90008C017B01AE014F5F5F4F0E94DB1B8823CC
:103DA00041F0AE014F5F5F4FB701C8010E94171E7F
:103DB00004C060E070E08EEF92EC29960FB6F894A4
:103DC000DEBF0FBECDBFDF91CF911F910F91FF904E
:103DD000EF9008950F931F93CF93DF93CDB7DEB786
:103DE00028970FB6F894DEBF0FBECDBF8C01462FCB
:103DF000BE016F5F7F4F0E94471BBE016F5F7F4F09
:103E0000C8010E94BA1E28960FB6F894DEBF0FBEF6
:103E1000CDBFDF91CF911F910F910895FF920F9326
:103E20001F93CF93DF93FC010081C181D281F8946D
:103E30008981F02EF0948F21898378941DE71150A9
:103E400029F182E090E00E94CB2388818023B9F39E
:103E5000F8948A818F218A838981802B8983789441
:103E600080EE91E00E94CB23F89489818F21898391
:103E700086E490E00E94CB238881802311E009F042
:103E800010E078948AE991E00E94CB23812FDF91A2
:103E9000CF911F910F91FF9008951F93CF93DF93C0
:103EA000FC011081C181D281912F909560FF12C0D9
:103EB000F8948A8189238A838981812B89838AE086
:103EC00090E00E94CB238A81812B8A83789487E3B8
:103ED00090E011C0F8948A8189238A838981812B9B
:103EE000898381E490E00E94CB238A81812B8A839D
:103EF000789485E090E0DF91CF911F910C94CB23D3
:103F00000F931F93CF93DF93FC011081C181D28166
:103F1000F8948981812B89838A81012F00958023E0
:103F20008A8383E090E00E94CB2389818023898368
:103F30008AE090E00E94CB23C881789485E390E0EA
:103F40000E94CB231C2381E009F480E0DF91CF9114
:103F50001F910F910895CF92DF92EF92FF920F93EE
:103F60001F93CF93DF931F92CDB7DEB76C01E62E80
:103F700008E010E0FF24F39461E09F2D9E2109F4F6
:103F800060E0C60149830E944D1FFF0C01501109DA
:103F900049810115110581F7411115C0F894D60129
:103FA0001196ED91FC91129791818C9180958923C6
:103FB00081831196ED91FC91129792818C9180955D
:103FC0008923828378940F90DF91CF911F910F9175
:103FD000FF90EF90DF90CF900895EF92FF920F93B4
:103FE0001F93CF93DF938C01C8E0D0E0F12CEE2437
:103FF000E394C8010E94801F8111FE28EE0C2197D6
:10400000C1F78F2DDF91CF911F910F91FF90EF900E
:104010000895CF92DF92FF920F931F93CF93DF9378
:104020001F92CDB7DEB78C01F62E40E065E57983AF
:104030000E94AB1FCF2C7981D72E88E0F82EF60195
:1040400061916F0140E0C8010E94AB1FFA94B9F77B
:104050000F90DF91CF911F910F91FF90DF90CF9044
:10406000089540E06CEC0C94AB1FFC0113861586A0
:10407000148627E030E0DF01A20FB31F13961C92D5
:104080002115310519F021503109F5CF08951F93FD
:10409000CF93DF93EC01162F60E0812F0E943A242A
:1040A000612F70E0FB01E458F94FE491E883FB01D4
:1040B000E057F94FE491F0E0EE0FFF1FEC55F94F98
:1040C000859194919A838983CE01DF91CF911F913D
:1040D0000C943520AF92BF92CF92DF92EF92FF9275
:1040E0000F931F93CF93DF931F92CDB7DEB75C0181
:1040F000E62ED72EFC01858581115DC0C5010E9489
:104100000E1F811105C0F5011386158614866EC039
:1041100040E060EFC5010E94AB1F01E0F12CC12C13
:1041200011E0C5010E94801F682FC50169830E94AC
:10413000801F6981613019F48130B9F433C02F2DAB
:1041400030E068131BC0F5018385181730F4E20FC7
:10415000F31F8381802349F402C0181731F060E017
:10416000193058F4F501148708C0F501EF0DF11D61
:104170008381802B838361E009C0C12EF501E20FAA
:10418000F31F8381902F909589238383C5010E941B
:104190004D1F1F5F000F11F4F39401E0F7E0FF15CE
:1041A00008F0BFCF113438F0F501C386C11018C034
:1041B00081E0858715C0F50113861586148680E099
:1041C000EE2DFD2D20E030E0D501A20FB31F139698
:1041D0009C9191932F5F3F4F28303105A9F706C07E
:1041E000F5018381882339F381E0EACF0F90DF91D5
:1041F000CF911F910F91FF90EF90DF90CF90BF90E4
:10420000AF900895DC0180E0615038F0ED91E8272F
:10421000F0E0E859FA4F8491F7CF0895FC017183DB
:104220006083089562E0FC0180810C943A24CF936E
:10423000DF93EC0188810E94A92421E0892B09F4F5
:1042400020E02A83822FDF91CF9108951F920F9251
:104250000FB60F9211242F933F934F935F936F9359
:104260007F938F939F93AF93BF93EF93FF93E091CF
:10427000BC04F091BD04309709F451C0868DA68529
:10428000B785958581FF04C08C91892329F447C0A7
:104290008C91892309F043C0A389B4899C918589B5
:1042A000809589238C93868997890197F1F7208DD2
:1042B000318DA685B785758558E040E0C901019725
:1042C000F1F7842F90E095958795482F6C9167239F
:1042D00009F04068515091F7868D81FD409580919D
:1042E0007B0490E001968F73992720917A04281718
:1042F00049F0A0917B04B0E0A458BB4F4C9380934D
:104300007B0403C0868D8160868F828D938D01979B
:10431000F1F7A389B4898C919589892B8C93FF91AE
:10432000EF91BF91AF919F918F917F916F915F912D
:104330004F913F912F910F900FBE0F901F901895A6
:10434000CF93CFB7F8948091BE04811127C0EAE9DA
:10435000F6E08491E6E8F6E09491E82FF0E0EE0FC5
:10436000FF1FE854F94FA591B4918C91892321F452
:1043700061E08AE00E94732461E08AE00E943A24AE
:104380008CB580618CBD8CB580648CBD61E08DE0A6
:104390000E943A2461E08BE00E943A248091BE049E
:1043A0008F5F8093BE04CFBFCF910895AF92BF922D
:1043B000CF92DF92EF92FF920F931F93CF93DF93F1
:1043C000EC017B016A0159016BED71E002960E94DC
:1043D0008F296BED71E0CE0144960E948F296BED21
:1043E00071E0CE014E960E948F29F986E886DB8621
:1043F000CA86BD86AC861F870E87DF91CF911F913D
:104400000F91FF90EF90DF90CF90BF90AF90089505
:10441000CF93DF93EC014A855B85688579858FEBC7
:1044200094E00E9478166C858FEB94E00E947E16D3
:1044300060E070E08FEB94E00E9484164A8D5B8D03
:104440006C8D7D8D22E030E08FEB94E0DF91CF9199
:104450000C94D728CF93DF93EC01488B598B6A8B50
:104460007B8B0E9408224A855B85688579858FEB66
:1044700094E00E9478166C858FEB94E00E947E1683
:104480006E857F858FEB94E00E9484164889598958
:104490006A897B8922E030E08FEB94E00E94D72884
:1044A00088899989AA89BB898A8F9B8FAC8FBD8F98
:1044B000DF91CF910895CF93DF93EC014A855B851F
:1044C000688579858FEB94E00E9478166C858FEB78
:1044D00094E00E947E1660E070E08FEB94E00E9412
:1044E0008416BE01625E7F4F8FEB94E0DF91CF9127
:1044F0000C940C270F931F93CF93DF93EC018C0147
:104500000C5E1F4FC8010E94A529CE010E945B22AC
:104510004A855B85688579858FEB94E00E947816E3
:104520006C858FEB94E00E947E166E857F858FEB05
:1045300094E00E948416B8018FEB94E00E940C274F
:10454000B801CE014E96DF91CF911F910F910C943F
:10455000A52928E049E06AE08FEB94E00C94A816C6
:104560008230E8F4E82FF0E0EE0FFF1FE351FB4F3D
:1045700071836083813041F0809169008C7F842B4E
:1045800080936900E89A089580916900440F551F4F
:10459000440F551F837F842B80936900E99A089507
:1045A0001F920F920FB60F9211242F933F934F93A8
:1045B0005F936F937F938F939F93AF93BF93EF938B
:1045C000FF938091ED049091EE04892B29F0E09106
:1045D000ED04F091EE040995FF91EF91BF91AF9139
:1045E0009F918F917F916F915F914F913F912F910B
:1045F0000F900FBE0F901F9018951F920F920FB63D
:104600000F9211242F933F934F935F936F937F9358
:104610008F939F93AF93BF93EF93FF938091EF049A
:104620009091F004892B29F0E091EF04F091F004CF
:104630000995FF91EF91BF91AF919F918F917F91DC
:104640006F915F914F913F912F910F900FBE0F90FF
:104650001F9018951F920F920FB60F9211242F934F
:104660003F938F939F93AF93BF938091F204909168
:10467000F304A091F404B091F5043091F10423E027
:10468000230F2D3720F40196A11DB11D05C026E88A
:10469000230F0296A11DB11D2093F1048093F20413
:1046A0009093F304A093F404B093F5048091F6047E
:1046B0009091F704A091F804B091F9040196A11D1E
:1046C000B11D8093F6049093F704A093F804B0937F
:1046D000F904BF91AF919F918F913F912F910F90CE
:1046E0000FBE0F901F9018952FB7F8946091F204A9
:1046F0007091F3048091F4049091F5042FBF089514
:104700003FB7F8948091F6049091F704A091F804D3
:10471000B091F90426B5A89B05C02F3F19F001966A
:10472000A11DB11D3FBF6627782F892F9A2F620FD9
:10473000711D811D911D42E0660F771F881F991F13
:104740004A95D1F70895CF92DF92EF92FF92CF93DF
:10475000DF936B017C010E948023EB01C114D10423
:10476000E104F10489F00E948B2A0E9480236C1BD3
:104770007D0B683E734090F381E0C81AD108E108D0
:10478000F108C851DC4FEACFDF91CF91FF90EF9055
:10479000DF90CF9008958230910538F0880F991FEF
:1047A000880F991F05970197F1F70895789484B5BC
:1047B000826084BD84B5816084BD85B5826085BD1D
:1047C00085B5816085BDEEE6F0E080818160808303
:1047D000E1E8F0E0108280818260808380818160E6
:1047E0008083E0E8F0E0808181608083E1EBF0E0AD
:1047F000808184608083E0EBF0E080818160808351
:10480000EAE7F0E080818460808380818260808339
:104810008081816080838081806880831092C10064
:104820000895833081F028F4813099F08230A1F02E
:1048300008958730A9F08830B9F08430D1F48091A0
:1048400080008F7D03C0809180008F7780938000EF
:10485000089584B58F7702C084B58F7D84BD089597
:104860008091B0008F7703C08091B0008F7D8093DE
:10487000B0000895CF93DF9390E0FC01E458F94F26
:104880002491FC01E057F94F8491882349F190E08D
:10489000880F991FFC01E854F94FA591B4918255F6
:1048A000994FFC01C591D4919FB7611108C0F8944C
:1048B0008C91209582238C93888182230AC0623058
:1048C00051F4F8948C91322F309583238C93888106
:1048D000822B888304C0F8948C91822B8C939FBF89
:1048E000DF91CF9108950F931F93CF93DF931F9282
:1048F000CDB7DEB7282F30E0F901E859F94F8491A0
:10490000F901E458F94F1491F901E057F94F049176
:104910000023C9F0882321F069830E941124698152
:10492000E02FF0E0EE0FFF1FE255F94FA591B49193
:104930009FB7F8948C91611103C01095812301C039
:10494000812B8C939FBF0F90DF91CF911F910F917F
:104950000895CF93DF93282F30E0F901E859F94FFC
:104960008491F901E458F94FD491F901E057F94FD6
:10497000C491CC2391F081110E941124EC2FF0E01E
:10498000EE0FFF1FEC55F94FA591B4912C912D23FB
:1049900081E090E021F480E002C080E090E0DF91CF
:1049A000CF9108950E94C42EFC01818D228D90E04C
:1049B000805C9F4F821B91098F7399270895FC019A
:1049C000918D828D981731F0828DE80FF11D858DC4
:1049D00090E008958FEF9FEF0895FC01918D828DF7
:1049E000981761F0828DDF01A80FB11D5D968C9143
:1049F000928D9F5F9F73928F90E008958FEF9FEF4E
:104A0000089581E796E2892B49F080E090E0892BB8
:104A100029F00E94712681110C9400000895FC0178
:104A2000848DDF01A80FB11DA35ABF4F2C91848D37
:104A300090E001968F739927848FA689B7892C936C
:104A4000A089B1898C9180648C93938D848D981307
:104A500006C00288F389E02D80818F7D80830895D0
:104A6000CF93DF93EC01888D8823C9F0EA89FB8915
:104A7000808185FD05C0A889B9898C9186FD0FC00C
:104A80000FB607FCF5CF808185FFF2CFA889B989E1
:104A90008C9185FFEDCFCE010E940F25E7CFDF91EE
:104AA000CF910895CF92DF92FF920F931F93CF93F0
:104AB000DF931F92CDB7DEB76C0181E0D601589627
:104AC0008C9358975B969C915B975C968C915C97C6
:104AD000981307C05096ED91FC915197808185FD08
:104AE0002EC0F601038D10E00F5F1F4F0F731127CB
:104AF000F02EF601848DF81211C00FB607FCF9CF25
:104B0000D6015096ED91FC915197808185FFF1CFB0
:104B1000C60169830E940F256981EBCF838DE80F61
:104B2000F11DE35AFF4F6083D6015B960C935B97B0
:104B30005296ED91FC915397808180620CC0D60112
:104B40005696ED91FC91579760835096ED91FC91AC
:104B5000519780818064808381E090E00F90DF91A5
:104B6000CF911F910F91FF90DF90CF900895BF924A
:104B7000CF92DF92EF92FF92CF93DF93EC016A0125
:104B80007B01B22EE889F98982E08083411581EEAC
:104B9000580761057105A1F060E079E08DE390E0D0
:104BA000A70196010E94AB2C2150310941095109FE
:104BB0005695479537952795211580E1380798F048
:104BC000E889F989108260E874E88EE190E0A70135
:104BD00096010E94AB2C215031094109510956958B
:104BE000479537952795EC85FD853083EE85FF85C4
:104BF0002083188EEC89FD89B082EA89FB89808147
:104C000080618083EA89FB89808188608083EA896A
:104C1000FB89808180688083EA89FB8980818F7D20
:104C20008083DF91CF91FF90EF90DF90CF90BF9086
:104C300008951F920F920FB60F9211242F938F9306
:104C40009F93EF93FF93E0910A05F0910B0580810C
:104C5000E0911005F091110582FD12C090818091C4
:104C600013058F5F8F7320911405821751F0E09127
:104C70001305F0E0E650FB4F958F8093130501C0BC
:104C80008081FF91EF919F918F912F910F900FBE97
:104C90000F901F9018951F920F920FB60F9211242C
:104CA0002F933F934F935F936F937F938F939F9334
:104CB000AF93BF93EF93FF938AEF94E00E940F2589
:104CC000FF91EF91BF91AF919F918F917F916F91E4
:104CD0005F914F913F912F910F900FBE0F901F90BA
:104CE00018958AEF94E00E94D42421E0892B09F4DE
:104CF00020E0822F08951092FD041092FC0488EEAB
:104D000093E0A0E0B0E08093FE049093FF04A093B2
:104D10000005B09301058DEC91E09093FB04809326
:104D2000FA0485EC90E0909307058093060584ECE7
:104D300090E0909309058093080580EC90E09093B3
:104D40000B0580930A0581EC90E090930D0580930C
:104D50000C0582EC90E090930F0580930E0586EC95
:104D600090E0909311058093100510921305109216
:104D700014051092150510921605089508950E94C5
:104D8000D6230E94BE260E94F00DC1E0D5E20E940B
:104D90003A0F2097E1F30E940125F9CFCF92DF92DD
:104DA000EF92FF920F931F93CF93DF936C017A01E1
:104DB000EB01E60EF71E00E010E0CE15DF0561F016
:104DC0006991D601ED91FC910190F081E02DC60131
:104DD0000995080F191FF1CFC801DF91CF911F91DD
:104DE0000F91FF90EF90DF90CF90089561157105BE
:104DF00081F0DB010D900020E9F7AD014150510930
:104E0000461B570BDC01ED91FC910280F381E02DF4
:104E1000099480E090E00895DC01ED91FC91DB01C4
:104E200014964D915C9115976D917C910280F38160
:104E3000E02D0994DC01ED91FC910190F081E02DD1
:104E4000099469ED71E00C94F6260F931F93CF93AC
:104E5000DF93EC010E940C278C01CE010E942127D8
:104E6000800F911FDF91CF911F910F9108950F93A4
:104E70001F93CF93DF93EC010E94F6268C01CE01A5
:104E80000E942127800F911FDF91CF911F910F91D9
:104E900008958F929F92AF92BF92CF92DF92EF923E
:104EA000FF920F931F93CF93DF93CDB7DEB7A197F8
:104EB0000FB6F894DEBF0FBECDBF7C01C42EE52F28
:104EC000CB01D22E19A221E02D1510F02AE0D22E0E
:104ED0008E010F5D1F4F8D2C912CA12CB12C6C2DB0
:104EE0007E2FA50194010E94AB2C8C2DD29E80199F
:104EF0001124015011098A3014F4805D01C0895CCD
:104F0000F8018083211531054105510521F0C22E9C
:104F1000E32FCA01E4CFB801C7010E94F626A1968B
:104F20000FB6F894DEBF0FBECDBFDF91CF911F91BA
:104F30000F91FF90EF90DF90CF90BF90AF909F9038
:104F40008F900895CF92DF92EF92FF920F931F936D
:104F5000CF93DF93EC016A017B012115310579F4D0
:104F6000E881F9810190F081E02D642FDF91CF91EC
:104F70001F910F91FF90EF90DF90CF9009942A300E
:104F80003105E9F477FF1AC06DE20E941A278C01FF
:104F900044275527BA014C195D096E097F092AE09B
:104FA000CE010E944927800F911FDF91CF911F9161
:104FB0000F91FF90EF90DF90CF9008952AE0B70116
:104FC000A601CE01DF91CF911F910F91FF90EF903D
:104FD000DF90CF900C9449274F925F926F927F920F
:104FE0008F929F92AF92BF92CF92DF92EF92FF92F9
:104FF0000F931F93CF93DF93EC016A017B01B22ED5
:105000009A01AB01C701B6010E94A72C882319F0B1
:105010006CED71E027C026013701E89477F82FEF97
:105020003FEF4FE75FE7C301B2010E94A72C811158
:105030000DC02FEF3FEF4FE75FE7C301B2010E94C2
:10504000F12A18161CF460EE71E00CC02FEF3FEF50
:105050004FE75FE4C701B6010E94402C1816ACF47C
:1050600064EE71E0CE01DF91CF911F910F91FF901F
:10507000EF90DF90CF90BF90AF909F908F907F90F8
:105080006F905F904F900C94F6262FEF3FEF4FE715
:105090005FECC701B6010E94F12A87FDE1CF20E055
:1050A00030E0A901C701B6010E94F12A87FF0AC0BA
:1050B0006DE2CE010E941A278C01F7FAF094F7F8FE
:1050C000F09402C000E010E0A12C60E070E080E00D
:1050D0009FE3AB1441F020E030E040E251E40E9455
:1050E000F52AA394F6CF9B01AC01C701B6010E943B
:1050F0008D2A6B017C010E94622B2B013C010E94D6
:105100008E2B9B01AC01C701B6010E948C2A6B015A
:105110007C012AE0B301A201CE010E944927080FB9
:10512000191FBB2039F068EE71E0CE010E94F6260F
:10513000080F191F7B2C772041F120E030E040E27E
:1051400051E4C701B6010E94442C6B017C010E940E
:105150005D2B4B01AA2497FCA094BA2C2AE030E0E6
:10516000B501A401CE010E94A227080F191FC50195
:10517000B4010E94902B9B01AC01C701B6010E94B3
:105180008C2A6B017C017A94D6CFC801DF91CF9134
:105190001F910F91FF90EF90DF90CF90BF90AF9055
:1051A0009F908F907F906F905F904F9008950C9498
:1051B000EC270F931F93CF93DF93EC010E9474238E
:1051C000688779878A879B87E881F9810680F781DC
:1051D000E02DCE01099597FF15C00E947423088524
:1051E00019852A853B85601B710B820B930B0C8103
:1051F0001D812E813F81601771078207930720F37D
:105200008FEF9FEFDF91CF911F910F9108950F9333
:105210001F93CF93DF93EC018B016BED71E00E9444
:105220008F29C8010E94D92897FD05C0682FCE019B
:105230000E94092AF6CFCE01DF91CF911F910F91E5
:105240000895FC01808191810C946B2DCF93DF93A5
:10525000EC0188819981009711F00E946B2D1982D1
:1052600018821D821C821B821A82DF91CF910895C1
:105270000F931F93CF93DF93EC018B016F5F7F4FF1
:10528000888199810E94FA2D009731F09983888353
:105290001B830A8381E001C080E0DF91CF911F91E1
:1052A0000F910895CF93DF93EC0188819981892B29
:1052B00029F08A819B818617970760F4CE010E94AE
:1052C0003829882341F08C819D81892B19F4E8814C
:1052D000F981108281E0DF91CF910895EF92FF92E2
:1052E0000F931F93CF93DF93EC017B018A01BA01E7
:1052F0000E945229811104C0CE010E94262907C0B4
:105300001D830C83B701888199810E94022FCE01F1
:10531000DF91CF911F910F91FF90EF900895FC01C5
:105320001182108213821282158214826115710516
:1053300059F0FB0101900020E9F7AF0141505109FC
:10534000461B570B0C946E290895CF93DF93EC0105
:10535000FB018617970761F0608171816115710506
:1053600029F0448155810E946E2902C00E9426299D
:10537000CE01DF91CF910895FC011182108213823A
:105380001282158214820C94A529CF93DF93EC012D
:105390006115710561F0FB0101900020E9F7AF0193
:1053A00041505109461B570B0E946E2902C00E94B2
:1053B0002629CE01DF91CF910895EF92FF920F93AE
:1053C0001F93CF93DF93EC017B010C811D8161154D
:1053D000710511F480E016C04115510591F0040FDC
:1053E000151FB8010E9452298823A1F32881398111
:1053F0008C819D81B701820F931F0E94022F1D8314
:105400000C8381E0DF91CF911F910F91FF90EF907E
:105410000895CF93DF9300D0CDB7DEB769831A82AA
:1054200041E050E0BE016F5F7F4F0E94DD290F9089
:105430000F90DF91CF910895FC0124813581232BBA
:1054400031F421E061157105A1F0FB0108C0FC01F8
:10545000808191816115710531F421E0FC01808129
:10546000882339F005C00E94F92E21E0892B09F02C
:1054700020E0822F0895BF92CF92DF92EF92FF92A9
:105480000F931F93CF93DF936C017B01EA01890196
:105490002417350720F48D2FE901042F182F6BED09
:1054A00071E0C6010E948F29D70114968D919C91BD
:1054B0001597C817D907C8F48017910708F48C010D
:1054C000D701ED91FC911197E00FF11FB080108290
:1054D0006D917C916C0F7D1FC6010E94C529D7017B
:1054E000ED91FC91E00FF11FB082C601DF91CF91E9
:1054F0001F910F91FF90EF90DF90CF90BF90089594
:10550000FC0180819181009711F00C94C92E60E01C
:1055100070E0CB01089508955058BB27AA270ED0FC
:1055200075C166D130F06BD120F031F49F3F11F49A
:105530001EF45BC10EF4E095E7FB51C1E92F77D172
:1055400080F3BA17620773078407950718F071F4A0
:105550009EF58FC10EF4E0950B2EBA2FA02D0B01F6
:10556000B90190010C01CA01A0011124FF27591BA8
:1055700099F0593F50F4503E68F11A16F040A22FAE
:10558000232F342F4427585FF3CF4695379527951F
:10559000A795F0405395C9F77EF41F16BA0B620B1E
:1055A000730B840BBAF09150A1F0FF0FBB1F661F65
:1055B000771F881FC2F70EC0BA0F621F731F841FA8
:1055C00048F4879577956795B795F7959E3F08F0CE
:1055D000B3CF9395880F08F09927EE0F979587958D
:1055E0000895D9D008F481E008950CD00FC107D1F7
:1055F00040F0FED030F021F45F3F19F0F0C05111BF
:1056000039C1F3C014D198F39923C9F35523B1F3E9
:10561000951B550BBB27AA2762177307840738F021
:105620009F5F5F4F220F331F441FAA1FA9F333D080
:105630000E2E3AF0E0E830D091505040E695001C34
:10564000CAF729D0FE2F27D0660F771F881FBB1FF0
:10565000261737074807AB07B0E809F0BB0B802DCA
:10566000BF01FF2793585F4F2AF09E3F510568F016
:10567000B6C000C15F3FECF3983EDCF386957795AA
:105680006795B795F7959F5FC9F7880F911D969518
:10569000879597F90895E1E0660F771F881FBB1F74
:1056A000621773078407BA0720F0621B730B840B21
:1056B000BA0BEE1F88F7E095089504D06894B111F5
:1056C000D9C00895BCD088F09F5790F0B92F992782
:1056D000B751A0F0D1F0660F771F881F991F1AF0FD
:1056E000BA95C9F712C0B13081F0C3D0B1E00895C6
:1056F000C0C0672F782F8827B85F39F0B93FCCF347
:10570000869577956795B395D9F73EF490958095F2
:10571000709561957F4F8F4F9F4F0895E89409C012
:1057200097FB3EF490958095709561957F4F8F4FD4
:105730009F4F9923A9F0F92F96E9BB279395F695EA
:10574000879577956795B795F111F8CFFAF4BB0F68
:1057500011F460FF1BC06F5F7F4F8F4F9F4F16C0CC
:10576000882311F096E911C0772321F09EE8872F56
:10577000762F05C0662371F096E8862F70E060E012
:105780002AF09A95660F771F881FDAF7880F96958B
:10579000879597F90895990F0008550FAA0BE0E82F
:1057A000FEEF16161706E807F907C0F012161306E3
:1057B000E407F50798F0621B730B840B950B39F423
:1057C0000A2661F0232B242B252B21F408950A2689
:1057D00009F4A140A6958FEF811D811D089597F9C9
:1057E0009F6780E870E060E008959FEF80EC089587
:1057F00000240A94161617061806090608950024B0
:105800000A9412161306140605060895092E039429
:10581000000C11F4882352F0BB0F40F4BF2B11F49D
:1058200060FF04C06F5F7F4F8F4F9F4F089557FDFC
:105830009058440F551F59F05F3F71F04795880FFE
:1058400097FB991F61F09F3F79F087950895121695
:1058500013061406551FF2CF4695F1DF08C0161641
:1058600017061806991FF1CF8695710561050894F2
:105870000895E894BB2766277727CB0197F9089509
:105880008ADF08F48FEF08950BD0C0CFB1DF28F086
:10589000B6DF18F0952309F0A2CFA7CF1124EACFE5
:1058A000C6DFA0F3959FD1F3950F50E0551F629F7F
:1058B000F001729FBB27F00DB11D639FAA27F00D69
:1058C000B11DAA1F649F6627B00DA11D661F829F90
:1058D0002227B00DA11D621F739FB00DA11D621F75
:1058E000839FA00D611D221F749F3327A00D611D92
:1058F000231F849F600D211D822F762F6A2F112474
:105900009F5750408AF0E1F088234AF0EE0FFF1FC6
:10591000BB1F661F771F881F91505040A9F79E3FFD
:10592000510570F05CCFA6CF5F3FECF3983EDCF3FF
:10593000869577956795B795F795E7959F5FC1F73A
:10594000FE2B880F911D9695879597F9089523DF73
:10595000880B990B0895A1E21A2EAA1BBB1BFD010F
:105960000DC0AA1FBB1FEE1FFF1FA217B307E4073E
:10597000F50720F0A21BB30BE40BF50B661F771F96
:10598000881F991F1A9469F7609570958095909576
:105990009B01AC01BD01CF010895EE0FFF1F0590E3
:1059A000F491E02D0994CF93DF938230910510F4A8
:1059B00082E090E0E0919905F0919A0520E030E0D6
:1059C000A0E0B0E0309739F1408151814817590784
:1059D000B8F04817590771F482819381109729F024
:1059E00013969C938E9312972CC090939A05809354
:1059F000990527C02115310531F04217530718F0DA
:105A0000A901DB0101C0EF019A01BD01DF010280A4
:105A1000F381E02DD7CF21153105F9F0281B390B83
:105A20002430310580F48A819B816115710521F054
:105A3000FB019383828304C090939A058093990518
:105A4000FE01329644C0FE01E20FF31F8193919351
:105A500022503109398328833AC02091970530912B
:105A60009805232B41F420910201309103013093DA
:105A7000980520939705209100013091010121158F
:105A8000310541F42DB73EB7409104015091050115
:105A9000241B350BE0919705F0919805E217F30769
:105AA000A0F42E1B3F0B2817390778F0AC014E5F8E
:105AB0005F4F2417350748F04E0F5F1F509398052E
:105AC000409397058193919302C0E0E0F0E0CF010D
:105AD000DF91CF910895CF93DF93009709F487C0AA
