:100000000C9464030C944C1E0C94791E0C948C0379
:100010000C948C030C948C030C948C030C948C0324
:100020000C948C030C948C030C948C030C948C0314
:100030000C948C030C948C030C948C030C948C0304
:100040000C94A61E0C948C030C948C030C948C03BF
:100050000C948C030C948C030C948C030C948C03E4
:100060000C948C030C948C0300000000003E5B4F4A
:100070005B3E3E6B4F6B3E1C3E7C3E1C183C7E3C08
:10008000181C577D571C1C5E7F5E1C00183C180016
:10009000FFE7C3E7FF0018241800FFE7DBE7FF30A6
:1000A000483A060E2629792926407F050507407F14
:1000B00005253F5A3CE73C5A7F3E1C1C08081C1C87
:1000C0003E7F14227F22145F5F005F5F06097F017D
:1000D0007F006689956A606060606094A2FFA29468
:1000E00008047E040810207E201008082A1C080836
:1000F0001C2A08081E101010100C1E0C1E0C303884
:100100003E3830060E3E0E06000000000000005F84
:1001100000000007000700147F147F14242A7F2AA0
:100120001223130864623649562050000807030062
:10013000001C2241000041221C002A1C7F1C2A08AE
:10014000083E080800807030000808080808000011
:1001500060600020100804023E5149453E00427F85
:10016000400072494949462141494D331814127FD4
:100170001027454545393C4A494931412111090774
:100180003649494936464949291E000014000000F5
:1001900040340000000814224114141414140041C7
:1001A00022140802015909063E415D594E7C121184
:1001B000127C7F494949363E414141227F414141BC
:1001C0003E7F494949417F090909013E4141517337
:1001D0007F0808087F00417F41002040413F017FA8
:1001E000081422417F404040407F021C027F7F0470
:1001F00008107F3E4141413E7F090909063E4151B9
:10020000215E7F09192946264949493203017F01A8
:10021000033F4040403F1F2040201F3F4038403FA9
:10022000631408146303047804036159494D4300BF
:100230007F4141410204081020004141417F0402F6
:10024000010204404040404000030708002054548D
:1002500078407F284444383844444428384444286B
:100260007F385454541800087E090218A4A49C78BE
:100270007F0804047800447D40002040403D007F1A
:100280001028440000417F40007C047804787C08FA
:100290000404783844444438FC18242418182424CE
:1002A00018FC7C08040408485454542404043F44B3
:1002B000243C4040207C1C2040201C3C4030403CE2
:1002C00044281028444C9090907C4464544C440042
:1002D00008364100000077000000413608000201A6
:1002E0000204023C2623263C1EA1A161123A404092
:1002F000207A38545455592155557941225454780F
:1003000042215554784020545579400C1E527212A7
:100310003955555559395454545939555454580030
:1003200000457C410002457D420001457C407D1234
:1003300011127DF0282528F07C5455450020545496
:100340007C547C0A097F4932494949323A44444441
:100350003A324A4848303A4141217A3A424020787C
:10036000009DA0A07D3D4242423D3D4040403D3C7D
:1003700024FF2424487E4943662B2FFC2F2BFF09A2
:1003800029F620C0887E0903205454794100004496
:100390007D413048484A32384040227A007A0A0A81
:1003A000727D0D19317D2629292F282629292926F4
:1003B00030484D4020380808080808080808382F39
:1003C00010C8ACBA2F102834FA00007B00000814C3
:1003D0002A142222142A14085500550055AA55AA99
:1003E00055AAFF55FF55FF000000FF00101010FF39
:1003F00000141414FF001010FF00FF1010F010F094
:10040000141414FC001414F700FF0000FF00FF1484
:1004100014F404FC141417101F10101F101F1414D0
:10042000141F00101010F0000000001F101010101A
:100430001F10101010F010000000FF10101010100E
:1004400010101010FF10000000FF140000FF00FF4C
:1004500000001F10170000FC04F4141417101714E8
:1004600014F404F40000FF00F7141414141414140A
:10047000F700F7141414171410101F101F1414147D
:10048000F4141010F010F000001F101F0000001FE7
:1004900014000000FC140000F010F01010FF10FF1A
:1004A000141414FF141010101F00000000F010FFAF
:1004B000FFFFFFFFF0F0F0F0F0FFFFFF0000000093
:1004C00000FFFF0F0F0F0F0F3844443844FC4A4A17
:1004D0004A347E02020606027E027E0263554941CC
:1004E000633844443C04407E201E2006027E020203
:1004F00099A5E7A5991C2A492A1C4C7201724C3017
:100500004A4D4D303048784830BC625A463D3E49ED
:100510004949007E0101017E2A2A2A2A2A44445F91
:10052000444440514A444040444A51400000FF0185
:1005300003E080FF000008086B6B08361236243693
:10054000060F090F060000181800000010100030F8
:1005500040FF0101001F01011E00191D1712003C80
:100560003C3C3C0000000000005EBCE2613FDD83DB
:10057000C29C7E20A3FD1F419DC3217FFCA2401E83
:100580005F01E3BD3E6082DC237D9FC1421CFEA073
:10059000E1BF5D0380DE3C62BEE0025CDF81633D63
:1005A0007C22C09E1D43A1FF4618FAA427799BC553
:1005B00084DA3866E5BB5907DB856739BAE4065843
:1005C0001947A5FB7826C49A653BD987045AB8E633
:1005D000A7F91B45C6987A24F8A6441A99C7257B23
:1005E0003A6486D85B05E7B98CD2306EEDB3510F13
:1005F0004E10F2AC2F7193CD114FADF3702ECC9203
:10060000D38D6F31B2EC0E50AFF1134DCE90722CF2
:100610006D33D18F0C52B0EE326C8ED0530DEFB1E2
:10062000F0AE4C1291CF2D73CA947628ABF51749D2
:100630000856B4EA6937D58B5709EBB536688AD4C2
:1006400095CB2977F4AA4816E9B7550B88D6346AB2
:100650002B7597C94A14F6A8742AC896154BA9F7A2
:10066000B6E80A54D7896B35000000080002010083
:10067000000304070000000000000000010204085D
:1006800010204080010204081020010204081020FC
:100690000404040404040404020202020202030328
:1006A00003030303000000002300260029000000CC
:1006B0000000250028002B00000000002400270077
:1006C0002A002F0B251E5F0C11241FBECFEFD8E090
:1006D000DEBFCDBF11E0A0E0B1E0E2E7FFE402C081
:1006E00005900D92AC3AB107D9F724E0ACEAB1E03D
:1006F00001C01D92AE35B207E1F716E0C6ECD6E0B8
:1007000004C02297FE010E946225C23CD107C9F7AE
:100710000E9451200C94AC270C940000DC01ED9158
:10072000FD918081ED91FD919081ED91FD916C9114
:1007300063708E2309F064609F2309F06860EBEA20
:10074000F3E0E60FF11D659565956D936D917D91D3
:100750008D919D91099423C01AC012C016C010C07B
:100760001EC009C014C013C006C019C009C00DC006
:1007700007C00DC014C062507040804090400BC054
:10078000615070408040904006C06E5F01C06F5F56
:100790007F4F8F4F9F4F9E938E937E936E930895BE
:1007A00080911C0490911D040C948E0380911A0476
:1007B00090911B040C948E03CF93DF9300D000D054
:1007C00000D0CDB7DEB785EC91E00E94820E81307B
:1007D000910571F02CF4892BF9F46FE071E00DC0F4
:1007E0008230910541F00397B9F46DE171E005C0E5
:1007F00063E171E002C068E171E0CE0101960E9400
:10080000B122BE016F5F7F4F87E593E00E94F61D26
:10081000CE0101960E94432226960FB6F894DEBFC1
:100820000FBECDBFDF91CF91089580911904823022
:1008300030F4F8948EE094E00E948E0301C0F894A6
:100840008091150490911604A0911704B09118049A
:1008500078940497A105B1051CF08FEF9FEF1BC0A2
:1008600080911904823030F4F8948EE094E00E9474
:100870008E0301C0F8948091150490911604A09104
:100880001704B091180478948D3F9F4FAF4FBF4F1E
:100890008CF481E090E090930D0480930C04F89424
:1008A0001092150410921604109217041092180456
:1008B000789404C010920D0410920C0480910C04E2
:1008C00090910D040895CF92DF92EF92FF928130C4
:1008D000910589F485EC91E00E94780E6B017C0112
:1008E00085EC91E00E94420E9B01AC01C701B6016C
:1008F0000E94202314C08F3F2FEF920771F585ECE3
:1009000091E00E94780E6B017C0185EC91E00E94E1
:10091000420E9B01AC01C701B6010E941F23AB012F
:10092000BC0185EC91E00E94720E85EC91E00E9482
:10093000780EAB01BC018CEA91E00E94EA0E85ECD6
:1009400091E00E94780EAB01BC018EE293E0FF9033
:10095000EF90DF90CF900C94A61D892B71F485EC5D
:1009600091E00E94780EAB01BC018CEA91E0FF900F
:10097000EF90DF90CF900C94EA0EFF90EF90DF9015
:10098000CF90089581309105E1F485EC91E00E94CB
:10099000420E20E030E040E45FE30E94D3241816CA
:1009A0002CF440E050E060E87FE32CC085EC91E05F
:1009B0000E94420E20E030E040E85EE30E942023E7
:1009C0001FC08F3F2FEF920759F585EC91E00E94F1
:1009D000420E20E030E040E05FE30E94842387FF86
:1009E00005C040E050E060E87EE30CC085EC91E09B
:1009F0000E94420E20E030E040E85EE30E941F23A8
:100A0000AB01BC0185EC91E00E943C0E85EC91E0CD
:100A10000E94420EAB01BC018EE293E00C94A61D35
:100A2000892B51F485EC91E00E94420EAB01BC0190
:100A300085EC91E00C943C0E089581309105E1F431
:100A400085EC91E00E94360E20E030E040E45FE368
:100A50000E94D32418162CF440E050E060E87FE3B5
:100A60002CC085EC91E00E94360E20E030E040E89A
:100A70005EE30E9420231FC08F3F2FEF9207A9F54E
:100A800085EC91E00E94360E20E030E040E05FE32C
:100A90000E94842387FF05C040E050E060E87EE3C9
:100AA0000CC085EC91E00E94360E20E030E040E87A
:100AB0005EE30E941F23AB01BC0185EC91E00E9424
:100AC000300E85EC91E00E94360EAB01BC018CEA41
:100AD00091E00E94DE0E85EC91E00E94360EAB01A3
:100AE000BC018EE293E00C94A61D892BA1F485EC49
:100AF00091E00E94360EAB01BC0185EC91E00E94B2
:100B0000300E85EC91E00E94360EAB01BC018CEA00
:100B100091E00C94DE0E0895CF92DF92EF92FF9257
:100B20008130910511F585EC91E00E944E0E20E098
:100B300030E048EE51E40E94D32418162CF440E033
:100B400050E060EF71E438C085EC91E00E944E0EF9
:100B50006B017C0185EC91E00E94420E9B01AC018F
:100B6000C701B6010E94202325C08F3F2FEF9207B7
:100B7000A9F585EC91E00E944E0E2DEC3CEC48EC82
:100B800051E40E94842387FF05C040E050E068ECF8
:100B900071E412C085EC91E00E944E0E6B017C0165
:100BA00085EC91E00E94420E9B01AC01C701B601A9
:100BB0000E941F23AB01BC0185EC91E00E94480E0E
:100BC00085EC91E00E944E0EAB01BC018EE293E0F9
:100BD000FF90EF90DF90CF900C94A61D892B71F4BD
:100BE00085EC91E00E944E0EAB01BC0185EC91E0DA
:100BF000FF90EF90DF90CF900C94480EFF90EF9015
:100C0000DF90CF900895CF92DF92EF92FF928130E4
:100C1000910511F585EC91E00E945A0E20E030E03C
:100C200048EB51E40E94D32418162CF440E050E025
:100C300060EC71E438C085EC91E00E945A0E6B01C3
:100C40007C0185EC91E00E94420E9B01AC01C70142
:100C5000B6010E94202325C08F3F2FEF9207A9F5F0
:100C600085EC91E00E945A0E2DEC3CEC40E951E4F9
:100C70000E94842387FF05C040E050E060E971E4F2
:100C800012C085EC91E00E945A0E6B017C0185EC4C
:100C900091E00E94420E9B01AC01C701B6010E9487
:100CA0001F23AB01BC0185EC91E00E94540E85EC42
:100CB00091E00E945A0EAB01BC018EE293E0FF90DE
:100CC000EF90DF90CF900C94A61D892B71F485ECEA
:100CD00091E00E945A0EAB01BC0185EC91E0FF90BF
:100CE000EF90DF90CF900C94540EFF90EF90DF9038
:100CF000CF900895CF93DF9300D000D000D0CDB730
:100D0000DEB78EE293E00E94841D85E093E00E94AE
:100D1000D71D6FEE73E0CE0101960E94DE22BE0168
:100D20006F5F7F4F8CED92E00E94F61DCE01019621
:100D30000E94432265EF73E0CE0101960E94DE22FD
:100D4000BE016F5F7F4F8AE892E00E94F61DCE01E0
:100D500001960E94432269EE73E0CE0101960E9443
:100D6000DE22BE016F5F7F4F83EB92E00E94F61D93
:100D7000CE0101960E94432268EC70E080E090E092
:100D80000E941F1F26960FB6F894DEBF0FBECDBF80
:100D9000DF91CF910895CF93DF9300D000D000D0A2
:100DA000CDB7DEB78CED92E00E94D71D8AE892E0C5
:100DB0000E94D71D83EB92E00E94D71D85EC91E045
:100DC0000E94780EAB01BC018EE293E00E94A61D4A
:100DD00061E271E0CE0101960E94B122BE016F5F17
:100DE0007F4F85E093E00E94F61DCE0101960E94A0
:100DF00043220E94DC0368EC70E080E090E00E94F7
:100E00001F1F26960FB6F894DEBF0FBECDBFDF9131
:100E1000CF9108950F931F93CF93DF9300D000D00D
:100E200000D0CDB7DEB78C01BC016A5F7F4FCE0129
:100E300001960E94DE22BE016F5F7F4F8CED92E033
:100E40000E94F61DCE0101960E944322B801645F04
:100E50007F4FCE0101960E94DE22BE016F5F7F4F61
:100E60008AE892E00E94F61DCE0101960E9443227C
:100E7000B801CE0101960E94DE22BE016F5F7F4F56
:100E800083EB92E00E94F61DCE0101960E94432260
:100E900026960FB6F894DEBF0FBECDBFDF91CF917F
:100EA0001F910F910895AF92BF92CF92DF92EF9270
:100EB000FF920F931F93CF93DF93EC017B01BC0153
:100EC00081E094E00E94C722CE0100E010E05701CB
:100ED00021E0A21AB1086C0126E0C20ED11C0A154D
:100EE0001B053CF4B6010E94C7220F5F1F4FC601CD
:100EF000F2CF26E02E9DC0012F9D900D1124069764
:100F000061E074E08C0F9D1FDF91CF911F910F91D5
:100F1000FF90EF90DF90CF90BF90AF900C94C722DE
:100F2000EF92FF920F931F93CF93DF938C017B017E
:100F300086E0869FE001879FD00D1124BE01665098
:100F40007109600F711F81E094E00E94C722C00FF9
:100F5000D11F81E0E81AF1082697F7FC07C0BE010F
:100F600066507109CE010E94C722F3CF61E074E0A0
:100F7000C801DF91CF911F910F91FF90EF900C94DA
:100F8000C722CF9385EC91E00E94420EAB01BC01D9
:100F90008EE293E00E94A61DC1E080910B048111B6
:100FA00023C083EE91E00E940D1D80930E010E94EC
:100FB00015040E94C20464E170E080E090E00E94A9
:100FC0001F1F83EE91E00E940D1D8111E6CF8091DD
:100FD0000E01882311F364E170E080E090E00E944C
:100FE0001F1FC0930B04D9CFCF910895CF9385ECE9
:100FF00091E00E94360EAB01BC018EE293E00E94AC
:10100000A61DC1E080910B04811123C083EE91E005
:101010000E940D1D80930E010E9415040E941D0563
:1010200064E170E080E090E00E941F1F83EE91E099
:101030000E940D1D8111E6CF80910E01882311F3CE
:1010400064E170E080E090E00E941F1FC0930B04F9
:10105000D9CFCF910895CF9385EC91E00E944E0EA9
:10106000AB01BC018EE293E00E94A61DC1E080911D
:101070000B04811123C083EE91E00E940D1D80932B
:101080000E010E9415040E948C0564E170E080E06E
:1010900090E00E941F1F83EE91E00E940D1D8111C0
:1010A000E6CF80910E01882311F364E170E080E0C7
:1010B00090E00E941F1FC0930B04D9CFCF910895D9
:1010C000CF9385EC91E00E945A0EAB01BC018EE2F9
:1010D00093E00E94A61DC1E080910B04811123C002
:1010E00083EE91E00E940D1D80930E010E94150475
:1010F0000E94030664E170E080E090E00E941F1F00
:1011000083EE91E00E940D1D8111E6CF80910E01CA
:10111000882311F364E170E080E090E00E941F1FDB
:10112000C0930B04D9CFCF91089567ED73E081E0B0
:1011300094E00E94C72268E271E081E094E00E949E
:10114000FF2281112FC06DE271E081E094E00E94E6
:10115000FF22811113C062E371E081E094E00E94FC
:10116000FF2281110EC067E371E081E094E00E94EC
:10117000FF228823B9F060E070E005C061E070E014
:1011800002C062E070E085EC91E00E947E0E85EC8A
:1011900091E00E94820EBC018CEA91E00E94F00E68
:1011A0000E94DC0381E080930B04089581ED93E0BD
:1011B0000E940A0780910B04811142C083EE91E0E6
:1011C0000E940D1D80930E010E9415048F3F2FEF8A
:1011D000920759F00197A9F460910A0170910B01EF
:1011E00081ED93E00E94900708C060910A01709120
:1011F0000B0181ED93E00E94530781ED93E00E9483
:101200000A0783EE91E00E940D1D8111D3CF8091DA
:101210000E01882379F264E170E080E090E00E94A2
:101220001F1F8CED92E00E94D71D8AE892E00E9479
:10123000D71D83EB92E00E94D71D0E949508BACF7C
:10124000089567EA73E081E094E00E94C72268E2B3
:1012500071E081E094E00E94FF22811124C06BE3E1
:1012600071E081E094E00E94FF2281110BC060E4F4
:1012700071E081E094E00E94FF228823A1F063E006
:1012800070E002C060E070E085EC91E00E947E0EAC
:1012900085EC91E00E94820EBC018CEA91E00E94F4
:1012A000F00E0E94DC0381E080930B04089581EA34
:1012B00093E00E940A0780910B04811142C083EEE3
:1012C00091E00E940D1D80930E010E9415048F3F36
:1012D0002FEF920759F00197A9F4609106017091E0
:1012E000070181EA93E00E94900708C0609106011F
:1012F0007091070181EA93E00E94530781EA93E02D
:101300000E940A0783EE91E00E940D1D8111D3CF48
:1013100080910E01882379F264E170E080E090E032
:101320000E941F1F8CED92E00E94D71D8AE892E078
:101330000E94D71D83EB92E00E94D71D0E942109D5
:10134000BACF089569EB73E081E094E00E94C72270
:1013500068E271E081E094E00E94FF2281112BC0DD
:1013600063E471E081E094E00E94FF2281111BC0E0
:1013700069E471E081E094E00E94FF22811116C0CF
:101380006DE471E081E094E00E94FF22811111C0C0
:1013900061E571E081E094E00E94FF22882359F02A
:1013A0000E94C10708C00E94F60705C00E942B08D2
:1013B00002C00E94600881E080930B04089583EBD3
:1013C00093E00E940A0780910B04811142C083EED2
:1013D00091E00E940D1D80930E010E9415048F3F25
:1013E0002FEF920759F00197A9F4609108017091CD
:1013F000090183EB93E00E94900708C06091080107
:101400007091090183EB93E00E94530783EB93E013
:101410000E940A0783EE91E00E940D1D8111D3CF37
:1014200080910E01882379F264E170E080E090E021
:101430000E941F1F8CED92E00E94D71D8AE892E067
:101440000E94D71D83EB92E00E94D71D0E94A20943
:10145000BACF08956FEE73E081E094E00E94C72256
:1014600068E271E081E094E00E94FF22811118C0DF
:1014700066E571E081E094E00E94FF22811114C0D2
:101480006BE571E081E094E00E94FF2281110EC0C3
:101490006FE571E081E094E00E94FF22811108C0B5
:1014A00081E080930B0408950C94D6080C94DF0916
:1014B0000C94570980910B04811142C083EE91E096
:1014C0000E940D1D80930E010E9415048F3F2FEF87
:1014D000920759F00197A9F460910C0170910D01E8
:1014E00089EE93E00E94900708C060910C01709112
:1014F0000D0189EE93E00E94530789EE93E00E946C
:101500000A0783EE91E00E940D1D8111D3CF8091D7
:101510000E01882379F264E170E080E090E00E949F
:101520001F1F8CED92E00E94D71D8AE892E00E9476
:10153000D71D83EB92E00E94D71D0E942A0ABACFE2
:1015400008958F929F92AF92BF92CF92DF92EF92C7
:10155000FF920E9415040E946304809007049090FB
:101560000804A0900904B0900A0485EC91E00E9460
:101570006C0E6B017C01C80CD91CEA1CFB1C0E9480
:10158000F01E6C157D058E059F0568F180E893E0DF
:101590000E94EC1960E080E893E00E94E01AAB0141
:1015A000BC0185EC91E00E94600E85EC91E00E9408
:1015B000660EAB01BC018CEA91E00E94E40E85EC62
:1015C00091E00E94660EAB01BC0188E392E00E94AC
:1015D000A61D0E94F01E6093070470930804809378
:1015E000090490930A048CEA91E00E94F40E83EEC1
:1015F00091E00E940D1D811104C080910E018111A6
:101600000FC083EE91E00E940D1D80930E01FF90AC
:10161000EF90DF90CF90BF90AF909F908F90089504
:1016200064E170E080E090E00E941F1F0E947A0653
:1016300010920B040E945A0A0E94CB06E2CFCF936D
:10164000DF93EC014E960E944322CE0144960E9405
:101650004322CE010296DF91CF910C9443220F9347
:101660001F93CF93DF9362E082E00E94B61F62E097
:1016700083E00E94B61FE2E9F6E0E491F0E0EE0FAD
:10168000FF1FEC55F94F8591949190930F0480932F
:101690000E04EEE7F6E0E491E0931204E3E9F6E0ED
:1016A000E491F0E0EE0FFF1FEC55F94F8591949116
:1016B0009093110480931004EFE7F6E0E491E09337
:1016C000130410921504109216041092170410922D
:1016D000180480ED97E00E94471FE0910E04F091FE
:1016E0000F04908180911204982381E009F480E036
:1016F000E0911004F0911104908120911304922341
:1017000009F0826080931404CEE0D4E0D0931B04EF
:10171000C0931A0441E050E066ED73E080E00E945F
:101720002C1E81E080931904D0931D04C0931C04E7
:1017300041E050E060ED73E00E942C1E809119049E
:1017400090E00196809319046DE971E081E094E0E6
:101750000E94B122C9EED3E06DE971E0CE010E9492
:10176000B122269684E0C130D807B1F7C1EDD3E0AD
:101770006DE971E0CE010E94B122269683E0C93E58
:10178000D807B1F7C3EBD3E06DE971E0CE010E9459
:10179000B122269683E0C13DD807B1F7C1EAD3E074
:1017A0006DE971E0CE010E94B122269683E0C33B31
:1017B000D807B1F767E083E993E00E943D1C63E935
:1017C00073E080E893E00E941F170FEF1FEF24E003
:1017D00030E048EC50E068EC70E087E593E00E9470
:1017E000521D27E030E044E650E062E370E08EE214
:1017F00093E00E94521D21E030E04BE950E069ED9A
:1018000070E085E093E00E94521D24E030E044E661
:1018100050E064E670E08CED92E00E94521D22E000
:1018200030E043E750E06AE070E083EB92E00E9432
:10183000521D22E030E043E750E060EF70E08AE8BC
:1018400092E00E94521D27E030E044E650E062E35F
:1018500070E081E692E00E94521D24E030E044E115
:1018600050E064E170E088E392E00E94521D21E0C4
:1018700030E045E350E06FE570E08FE092E00E94D9
:10188000521D21E030E048E250E068EC70E086EE66
:1018900091E00E94521D64E070E083EE91E00E94AE
:1018A000041D20E130E04EE050E06FE070E08CEA93
:1018B00091E0DF91CF911F910F910C94860ECF9301
:1018C000DF9386EE91E00E941F0B8FE092E00E9472
:1018D0001F0B88E392E00E941F0B81E692E00E94BA
:1018E0001F0B8AE892E00E941F0B83EB92E00E949C
:1018F0001F0B8CED92E00E941F0B85E093E00E948D
:101900001F0B8EE293E00E941F0B87E593E00E947D
:101910001F0B8DEA93E00E94432287EA93E00E9426
:10192000432281EA93E00E944322C1EDD3E026974F
:10193000CE010E94432283E0C33BD807C1F783EE68
:1019400093E00E9443228DED93E00E94432287EDB5
:1019500093E00E94432281ED93E00E9443228BEFAB
:1019600093E00E94432285EF93E00E9443228FEE92
:1019700093E00E94432289EE93E00E94432281E09B
:1019800094E0DF91CF910C9443224F925F926F923B
:101990007F92AF92BF92CF92DF92EF92FF920F931E
:1019A0001F93CF93DF93CDB7DEB72A970FB6F89486
:1019B000DEBF0FBECDBF66E571E089EE93E00E9409
:1019C000E7226BE571E08FEE93E00E94E72268E288
:1019D00071E085EF93E00E94E7226FE571E08BEF05
:1019E00093E00E94E72262E371E081ED93E00E94C0
:1019F000E7226DE271E087ED93E00E94E72267E362
:101A000071E08DED93E00E94E72268E271E083EEE1
:101A100093E00E94E72263E471E083EB93E00E948D
:101A2000E72261E571E089EB93E00E94E7226DE433
:101A300071E08FEB93E00E94E72269E471E085ECAE
:101A400093E00E94E72268E271E08BEC93E00E9451
:101A5000E72260E471E081EA93E00E94E7226BE311
:101A600071E087EA93E00E94E72268E271E08DEA84
:101A700093E00E94E72285EC91E00E94000E85EC45
:101A800091E00E94820E85EC91E00E946C0E162F70
:101A9000072FF82EE92E85EC91E00E94360E5B01AF
:101AA0006C0185EC91E00E94780E2B013C0185ECE5
:101AB00091E00E94660E9B01AC0185EC91E02F83C2
:101AC000388749875A870E94820EEF92FF920F93C0
:101AD0001F93830172012F81388549855A85BC0186
:101AE0008CEA91E00E948E0E80E893E00E941A1921
:101AF0008FE194E00E943F1383EE91E00E94081D65
:101B000068EC70E080E090E00E941F1F6BE080E8CE
:101B100093E00E94A81880E893E00E94EC1960E02E
:101B200070E08FE194E00E94801263E08FE194E026
:101B30000E94EE160E94DC0361E271E0CE01019684
:101B40000E94B122BE016F5F7F4F85E093E00E944B
:101B5000F61DCE0101960E94432285EC91E00E9481
:101B6000780EAB01BC018EE293E00E94A61D60E0FE
:101B700080E893E00E94E01AAB01BC0185EC91E0A3
:101B80000E94600E85EC91E00E94660EAB01BC01E4
:101B90008CEA91E00E94E40E85EC91E00E94660ED2
:101BA000AB01BC0188E392E00E94A61D63E671E0F0
:101BB000CE0101960E94B122BE016F5F7F4F8FE080
:101BC00092E00E94F61DCE0101960E9443220F90E2
:101BD0000F900F900F902A960FB6F894DEBF0FBEAD
:101BE000CDBFDF91CF911F910F91FF90EF90DF90CC
:101BF000CF90BF90AF907F906F905F904F9008957F
:101C0000FC0140E050E060E07FE340835183628369
:101C10007383448355836683778340E157E260E0B2
:101C200070E0448B558B668B778B40E050E068EC1E
:101C300071E4408F518F628F738F158E148E40E048
:101C400050E060EF71E4408751876287738740E01E
:101C500050E060E971E44487558766877787089587
:101C6000FC0140835183628373830895FC0160818A
:101C70007181828193810895FC0144835583668339
:101C800077830895FC016481758186819781089529
:101C9000FC0140875187628773870895FC01608546
:101CA0007185828593850895FC01448755876687F1
:101CB00077870895FC0164857585868597850895E5
:101CC000FC01408B518B628B738B0895FC01608902
:101CD0007189828993890895FC016489758986894F
:101CE00097890895FC01408F518F628F738F0895FB
:101CF000FC01608D718D828D938D0895FC01758F2F
:101D0000648F0895FC01848D958D0895FC01718385
:101D10006083538342833583248308958F929F92F7
:101D2000AF92BF92CF92DF92EF92FF920F931F93E9
:101D3000CF93DF93CDB7DEB74C018F859889A98902
:101D4000BA89F401778B668B22873387448755875E
:101D5000E28AF38A048B158BA682B782C086D1866D
:101D600086879787A08BB18B108E61E080810E945F
:101D7000B61F60E0F40180810E94EF1F61E0F40172
:101D800082810E94B61F60E0F40182810E94EF1FF1
:101D900061E0F40184810E94B61F60E0F401848157
:101DA000DF91CF911F910F91FF90EF90DF90CF9037
:101DB000BF90AF909F908F900C94EF1FFC014683D3
:101DC0005783608771870895FC0142875387648732
:101DD00075870895FC01428B538B648B758B089536
:101DE000FC01778B668B08958F929F92AF92BF9282
:101DF000CF92DF92EF92FF92CF93DF93EC018E8927
:101E00009F89009711F460E06DC081309105B1F5B4
:101E1000CA84DB84EC84FD842E813F81488559850A
:101E20006A897B898C899D890E9420234B015C01F2
:101E30009B01AC01C701B6010E94D324181634F4EB
:101E400061E088810E94EF1F61E050C0A50194010C
:101E5000C701B6010E94842318160CF458C060E034
:101E600088810E94EF1F60E08A810E94EF1F60E07E
:101E70008C810E94EF1F81E0888F49C082309105DC
:101E800059F5CA84DB84EC84FD842E813F8148852A
:101E900059856A897B898C899D890E941F234B0102
:101EA0005C019B01AC01C701B6010E94842387FF3E
:101EB0000AC061E088810E94EF1F60E08A810E9471
:101EC000EF1F61E017C0A5019401C701B6010E9490
:101ED000D32487FD1CC0C3CF0397C9F4888D81111B
:101EE00016C061E088810E94EF1F60E08A810E9435
:101EF000EF1F60E08C81DF91CF91FF90EF90DF903A
:101F0000CF90BF90AF909F908F900C94EF1FDF9178
:101F1000CF91FF90EF90DF90CF90BF90AF909F90C8
:101F20008F9008952F923F924F925F926F927F927F
:101F30008F929F92AF92BF92CF92DF92EF92FF92D9
:101F40000F931F93CF93DF9300D000D0CDB7DEB7B0
:101F50004C017C836B836A015901C8018701AC0184
:101F60004C195D0957FF03C05195419551099501E1
:101F70006B817C81261B370B37FF03C03195219580
:101F8000310922242394312C2417350714F0212CF5
:101F9000312C2114310459F03A2D2B2D5C01832F63
:101FA000922F3B812C81DC82CB82C32ED22EAB813F
:101FB000BC81AA16BB065CF43C2D2D2D6C01832F31
:101FC000922F3B812C81BC82AB82A32EB22E2501A5
:101FD000EB81FC814E1A5F0A3C016C187D0877FE8C
:101FE00003C0719461947108720157FE03C0FFEF42
:101FF000EF1AFF0AF594E794C816D9062CF421E0ED
:1020000030E03A83298324C06FEF7FEF7A836983BE
:102010001FC0D401ED91FC910480F581E02D980161
:1020200021143104D9F04B815C81B601C4010995BA
:10203000E618F708F7FE06C0E981FA81CE0EDF1E2A
:10204000E40CF51C2B813C812F5F3F4F3C832B839D
:102050006B817C81A616B706E4F604C0A6016B81ED
:102060007C81E4CF0F900F900F900F90DF91CF9174
:102070001F910F91FF90EF90DF90CF90BF90AF90A6
:102080009F908F907F906F905F904F903F902F9098
:1020900008956F927F928F929F92AF92BF92CF924C
:1020A000DF92EF92FF920F931F93CF93DF93EC0198
:1020B0005B016A0139014801E881F9810284F385F5
:1020C000E02D87010995E881F981A601480D591D88
:1020D000415051090284F385E02D9301B501CE01F1
:1020E0000995E881F9810084F185E02D9401A6012C
:1020F000B501CE010995E881F981B501660D771D1D
:10210000615071090084F185E02D9401A601CE0192
:102110000995DF91CF911F910F91FF90EF90DF9084
:10212000CF90BF90AF909F908F907F906F900895C9
:10213000EF92FF920F931F93DC01ED91FC91240F1E
:10214000351F215031090680F781E02D7801890182
:102150009B0109951F910F91FF90EF900895EF92C9
:10216000FF920F931F93DC01ED91FC91260F371F17
:10217000215031090680F781E02D78018A01099507
:102180001F910F91FF90EF9008956F927F928F9221
:102190009F92AF92BF92CF92DF92EF92FF920F93F6
:1021A0001F93CF93DF935C014A0169013801EB0172
:1021B000C60ED71ECC15DD0574F4D501ED91FC914A
:1021C0000084F185E02D87019301A401BE01C501C2
:1021D00009952196EFCFDF91CF911F910F91FF903D
:1021E000EF90DF90CF90BF90AF909F908F907F90B7
:1021F0006F900895EF92FF920F931F93DC01ED9182
:10220000FC9111971A960D911C911B9718962D9180
:102210003C9119970684F785E02D7B0140E050E062
:1022200060E070E009951F910F91FF90EF90089585
:102230000895FC01138212828FE691E091838083DE
:10224000758364835783468371876087538742878A
:10225000158A158614861786168621E0248B8FEF43
:102260009FEF938B828B918B808B268B178A08959F
:102270002F923F924F925F926F927F928F929F9296
:10228000AF92BF92CF92DF92EF92FF920F931F9384
:10229000CF93DF93CDB7DEB72C970FB6F894DEBFA0
:1022A0000FBECDBF9C878B873A0118870F83FA86B4
:1022B000E986CD82DC0118968D919C91199768175B
:1022C00079070CF09EC01A968D919C911B97481728
:1022D00059070CF096C08C2C912CCB01B6E0CB9E0C
:1022E000800D911D1124181619060CF08AC0C40126
:1022F000E3E0880F991FEA95E1F7840F951F181600
:1023000019060CF07EC0AB85BC8557968C91811167
:1023100003C0203B08F02F5F5B016B011C8258E675
:10232000452E50E0552E461A570AB5E02B9F400C1B
:10233000511C1124EC81E53031F0F201EA0DFB1D56
:1023400024912B8301C01B827A82698213011E8231
:102350003B8130FF13C0AB85BC85ED91FC91BD8105
:10236000B13031F40480F581E02D2F81388519C01A
:102370000684F785E02DEF80F8841EC0E985FA8594
:102380002F813885E217F307F9F0AB85BC85ED9115
:10239000FC91BD81B13059F40480F581E02D29858F
:1023A0003A85A101B5018B859C8509950DC00684F0
:1023B000F785E02DE984FA848401940149815A81EA
:1023C000B6018B859C850995EB81E695EB83FE81B3
:1023D000FF5FFE8329813A81280D391D3A832983C5
:1023E0003FEF231A330AF83009F0B2CF4C814F5F28
:1023F0004C83C80CD91C8FEFA81AB80A463009F0D4
:1024000099CF2C960FB6F894DEBF0FBECDBFDF91EB
:10241000CF911F910F91FF90EF90DF90CF90BF90E1
:10242000AF909F908F907F906F905F904F903F9074
:102430002F900895CF92EF92FF920F931F93CF9317
:10244000DF93EC01262F6A3049F42C898E859F8515
:1024500038E0239F800D911D112432C06D30A1F111
:10246000EA88FB88088919894E855F856C857D859A
:10247000CC880E9438112C89422F50E08C859D8594
:1024800036E0239F800D911D11249D878C872E8916
:102490002223D1F06AEF64039001659F300D11246F
:1024A00068857985260F371F281739076CF4F3E004
:1024B000440F551FFA95E1F78E859F85840F951F70
:1024C0009F878E871D861C8681E090E0DF91CF91EB
:1024D0001F910F91FF90EF90CF900895FC017587A9
:1024E0006487578746870895611101C061E0FC0148
:1024F000648B0895FC01738B628B718B608B0895E4
:10250000EF92FF920F931F93DC01ED91FC911197D5
:102510001A960D911C911B9718962D913C91199725
:102520000684F785E02D7B0140E050E060E070E03C
:1025300009951F910F91FF90EF900895EF92FF92F0
:102540000F931F93CF93DF931F92CDB7DEB77C011C
:10255000062F142F40E451E060EF70E029830E94C1
:10256000191187E891E0F7019183808304A315A3F3
:10257000298126A381E0818F11A617A20F90DF91F8
:10258000CF911F910F91FF90EF900895FC01818DE5
:10259000811122C088E090E030E8A28DB38D22A5A1
:1025A000432F462321F04C91422B4C9304C04C9175
:1025B000209524232C93A48DB58D2C9143A5242BF9
:1025C0002C93A48DB58D4C9123A5209524232C9379
:1025D0003695019711F708956EBD0DB407FEFDCF36
:1025E0000895CF93DF93EC01EE8DFF8D90818DA543
:1025F000809589238083EC8DFD8D90818BA58095BE
:1026000089238083EAA1FBA190818CA580958923F1
:102610008083CE010E94C612EAA1FBA180819CA505
:10262000892B8083DF91CF910895662311F061E2B9
:1026300001C060E20C94F112CF93DF93EC01EE8DB8
:10264000FF8D80819DA5892B8083EC8DFD8D9081F0
:102650008BA5809589238083EAA1FBA190818CA51D
:10266000809589238083CE010E94C612EAA1FBA136
:1026700080819CA5892B8083DF91CF910895CF9392
:10268000DF93EC0161E08EA10E94B61F60E08EA195
:102690000E94EF1F61E08DA10E94B61F61E08CA136
:1026A0000E94B61F4CA150E0FA01E057F94FE491A7
:1026B000F0E0EE0FFF1FE255F94F859194919BA337
:1026C0008AA32DA130E0F901E057F94F849190E001
:1026D000880F991F8255994FFC01859194919F8F86
:1026E0008E8FFA01E458F94F44914CA7F901E45850
:1026F000F94F24912DA7898D882379F00E941C1D04
:102700008CB58C7F8CBD8DB581608DBD8CB58F7D7A
:102710008CBD8CB5837F8CBD41C061E089A50E94D2
:10272000B61F61E08FA10E94B61F60E088A50E94DD
:10273000B61F49A550E0FA01E057F94FE491F0E0E7
:10274000EE0FFF1FE255F94FA591B491BD8FAC8FED
:102750002FA130E0F901E057F94F849190E0880F04
:10276000991F8255994FFC01859194919B8F8A8F77
:10277000FA01E458F94F44914BA7F901E458F94F95
:1027800024912AA78C919BA5909589238C93EA8DFF
:10279000FB8D90818AA580958923808361E08EA13D
:1027A0000E94EF1F65E070E080E090E00E941F1F34
:1027B00060E08EA10E94EF1F64E170E080E090E095
:1027C0000E941F1F61E08EA10E94EF1F66E970E06A
:1027D00080E090E00E941F1F6FEECE010E94F11278
:1027E00063E0CE010E941C1360E8CE010E941C131E
:1027F00062E0CE010E941C136FECCE010E94F11228
:1028000060E0CE010E941C1361ECCE010E941C13FB
:1028100060E3CE010E941C136DEECE010E94F11206
:1028200064E6CE010E941C1363E0CE010E941C13DB
:1028300062E1CE010E941C1361E8CE010E941C13CC
:1028400068EECE010E94F11265E8CE010E941C13D1
:1028500060E0CE010E941C1368E7CE010E941C13A9
:102860006BECCE010E94F11269E3CE010E941C13B1
:102870006CE2CE010E941C1360E0CE010E941C138A
:1028800064E3CE010E941C1362E0CE010E941C137F
:1028900067EFCE010E94F11260E2CE010E941C138C
:1028A0006AEECE010E94F11260E0CE010E941C137C
:1028B00060E0CE010E941C1360ECCE010E94F11278
:1028C00063E2CE010E941C1361ECCE010E94F11262
:1028D00060E1CE010E941C1365ECCE010E94F11252
:1028E0006EE3CE010E941C1368E2CE010E941C130D
:1028F00067ECCE010E94F11266E8CE010E941C1323
:1029000066E3CE010E94F11268E4CE010E941C131E
:102910006AE3CE010E94F11265E5CE010E941C130C
:1029200061EBCE010E94F11260E0CE010E941C1307
:1029300068E1CE010E941C1366EBCE010E94F112E9
:1029400068E0CE010E941C1362E8CE010E941C13B5
:1029500067E2CE010E941C1362EFCE010E94F112C9
:1029600060E0CE010E941C1366E2CE010E94F112CB
:1029700061E0CE010E941C1360EECE010E94F112B4
:102980006FE0CE010E941C1361E3CE010E941C1374
:102990006BE2CE010E941C136CE0CE010E941C135E
:1029A0006EE0CE010E941C1368E0CE010E941C1351
:1029B0006EE4CE010E941C1361EFCE010E941C1335
:1029C00067E3CE010E941C1367E0CE010E941C1336
:1029D00060E1CE010E941C1363E0CE010E941C1333
:1029E0006EE0CE010E941C1369E0CE010E941C1310
:1029F00060E0CE010E941C1361EECE010E94F11234
:102A000060E0CE010E941C136EE0CE010E941C13F8
:102A100064E1CE010E941C1363E0CE010E941C13EE
:102A200061E1CE010E941C1367E0CE010E941C13DD
:102A300061E3CE010E941C1361ECCE010E941C13C5
:102A400068E4CE010E941C1368E0CE010E941C13B2
:102A50006FE0CE010E941C136CE0CE010E941C139B
:102A600061E3CE010E941C1366E3CE010E941C1399
:102A70006FE0CE010E941C1361E1CE010E94F112B1
:102A800068E770E080E090E00E941F1F69E2CE01DD
:102A9000DF91CF910C94F112CF92DF92FF920F93BE
:102AA0001F93CF93DF9300D000D01F92CDB7DEB736
:102AB0006C01F62E6AE22B833A834D835C83798323
:102AC0000E94F1127981672FC6010E941C136F2D9D
:102AD000C6010E941C133A81632FC6010E941C1379
:102AE0002B81622FC6010E941C136BE2C6010E945B
:102AF000F1125C81652FC6010E941C134D81642F69
:102B0000C6010E941C13612FC6010E941C13602F76
:102B1000C6010E941C136CE2C6010F900F900F902B
:102B20000F900F90DF91CF911F910F91FF90DF9049
:102B3000CF900C94F112EF92FF920F931F93CF93CB
:102B4000DF93EC01F22EE32E77FD2FC02885398527
:102B50006217730754F557FD28C02A853B85421735
:102B600053071CF58A010F5F1F4F9B012F5F3F4FDB
:102B70000E944C15EE8DFF8D80819DA5892B808351
:102B8000EAA1FBA190818CA58095892380836E2D7D
:102B9000CE010E94C6126F2DCE010E94C612EAA17C
:102BA000FBA180819CA5892B8083DF91CF911F9110
:102BB0000F91FF90EF900895CF92DF92EF92FF92E6
:102BC0000F931F93CF93DF93EC017901D02EC12E89
:102BD0008885998568177907CCF58A859B8548177C
:102BE0005907A4F59A012E0D3F1D821793071CF477
:102BF0007C01E41AF50A8A010E0D1F1D015011090E
:102C00009B01CE010E944C15EE8DFF8D80819DA50C
:102C1000892B8083EAA1FBA190818CA580958923D3
:102C20008083E114F10461F06C2DCE010E94C61284
:102C30006D2DCE010E94C61281E0E81AF108F1CF95
:102C4000EAA1FBA180819CA5892B8083DF91CF9194
:102C50001F910F91FF90EF90DF90CF900895CF924A
:102C6000DF92EF92FF920F931F93CF93DF93EC01CC
:102C70007901D02EC12E8885998568177907CCF502
:102C80002A853B8542175307A4F59B012E0D3F1D56
:102C9000821793071CF47C01E61AF70A9B012E0D9C
:102CA0003F1D215031098A01CE010E944C15EE8D45
:102CB000FF8D80819DA5892B8083EAA1FBA1908156
:102CC0008CA5809589238083E114F10461F06C2D3B
:102CD000CE010E94C6126D2DCE010E94C61281E067
:102CE000E81AF108F1CFEAA1FBA180819CA5892B0C
:102CF0008083DF91CF911F910F91FF90EF90DF9034
:102D0000CF900895AF92BF92CF92DF92EF92FF9251
:102D10000F931F93CF93DF93EC016901580128852E
:102D20003985621773070CF04EC08A859B8548175A
:102D300059070CF048C0FB01EC0DFD1D2E173F0795
:102D40001CF46901C61AD70A9A012A0D3B1D821785
:102D500093071CF45C01A41AB50A8A010A0D1B1D15
:102D6000015011099B012C0D3D1D21503109CE014F
:102D70000E944C15EE8DFF8D80819DA5892B80834F
:102D8000EAA1FBA190818CA58095892380831A14E8
:102D90001B049CF48601101611065CF46F2DCE0105
:102DA0000E94C6126E2DCE010E94C612015011095A
:102DB000F2CF81E0A81AB108EACFEAA1FBA1808195
:102DC0009CA5892B8083DF91CF911F910F91FF905C
:102DD000EF90DF90CF90BF90AF9008951F93CF9367
:102DE000DF93EC01162F66E30E94F112612F6370EE
:102DF0006D8B623041F0633089F0613011F068E42E
:102E000003C068E20CC068E8CE010E941C1380EF8A
:102E100090E09987888780E491E00AC068EECE014F
:102E20000E941C1380E491E09987888780EF90E0EE
:102E30009B878A87DF91CF911F9108950895FC01A8
:102E40008EE197E1928B818B768365831482108269
:102E500089E0818381E0828383830895CF93DF9328
:102E6000EB0167E0CE010E94F81C91E02F818213F4
:102E700090E0892FDF91CF910895EF92FF920F9309
:102E80001F93CF93DF93EC018B01E42E8D819E8104
:102E90000E942B1CF12CB8018D819E810E94601C28
:102EA000882359F0FE1006C0B801CE010E942E17EB
:102EB000811104C0F394EF1470F780E0DF91CF919B
:102EC0001F910F91FF90EF900895EF92FF920F9353
:102ED0001F93CF93DF9300D0CDB7DEB77C018A017B
:102EE000FC018581968169837A830E94041B698134
:102EF0007A81F701858196810E94FF1B40E06EEB8D
:102F0000F701858196810E94A11BF7018581968139
:102F10000E94E31BF8018083F701858196810E945E
:102F2000E31BF8018183F701858196810E94E31BF1
:102F3000F8018283F701858196810E94E31BF801E5
:102F40008383F701858196810E94E31BF8018483C6
:102F5000F701858196810E94E31BF8018583F701C3
:102F6000858196810E94E31BF8018683F7018581A4
:102F700096810E94E31BF8018783F7018581968182
:102F80000E94E31BF8018087F701858196810F90ED
:102F90000F90DF91CF911F910F91FF90EF900C94C4
:102FA000041BCF93DF93EA010E94651768E0CE010E
:102FB0000E94F81C91E02885821390E0892FDF9110
:102FC000CF910895EF92FF920F931F93CF93DF93CA
:102FD000EC017B018A018D819E810E94041BB70157
:102FE0008D819E810E94FF1B40E06EE48D819E8159
:102FF0000E94A11B40E0F80162818D819E810E94A8
:10300000A11B40E0F80163818D819E810E94A11B7C
:10301000F7018081803139F040E0F80164818D81D1
:103020009E810E94A11B8D819E810E94041B48816C
:1030300068E48D819E810E94A11B8881882331F0E4
:103040006AE070E080E090E00E941F1F8D819E8109
:10305000DF91CF911F910F91FF90EF900C94041B83
:10306000EF92FF921F93CF93DF9300D0CDB7DEB7DF
:103070007C01FC018581968169837A830E94041B0F
:1030800069817A81F701858196810E94FF1B40E06A
:1030900064EBF701858196810E94A11BF701858170
:1030A00096810E94761B182FF701858196810E94D8
:1030B000041B81E0111180E00F900F90DF91CF9100
:1030C0001F91FF90EF900895EF92FF920F931F933F
:1030D000CF93DF93CDB7DEB72A970FB6F894DEBF54
:1030E0000FBECDBF7C018B01242FAE014F5F5F4F20
:1030F0002A870E94D1172A858823D1F0F801808180
:103100008031C1F02B3041F02C3021F02A3031F4E5
:103110008FE305C08FE703C08FE501C08FE18D838A
:10312000AE014F5F5F4FB801C7010E94E21702C0B6
:1031300080E001C081E02A960FB6F894DEBF0FBE92
:10314000CDBFDF91CF911F910F91FF90EF90089528
:10315000EF92FF920F931F93CF93DF93CDB7DEB71C
:1031600028970FB6F894DEBF0FBECDBF8C01693033
:1031700020F06D3018F06CE001C069E0F801618367
:10318000E12CF12CF801848190E0E816F9069CF41A
:103190004E2DBE016F5F7F4FC8010E943D17F801A1
:1031A0004181BE016F5F7F4FC8010E946418FFEF2D
:1031B000EF1AFF0AE7CF28960FB6F894DEBF0FBECE
:1031C000CDBFDF91CF911F910F91FF90EF900895A8
:1031D000CF93DF93CDB7DEB729970FB6F894DEBF54
:1031E0000FBECDBFFB0120812031D1F0AE014F5F7A
:1031F0005F4F0E94D117882379F08D818F3351F072
:1032000018F48F3169F008C08F3541F08F3721F401
:103210008CE007C08AE005C080E003C08BE001C0FD
:1032200089E029960FB6F894DEBF0FBECDBFDF91BF
:10323000CF910895EF92FF920F931F93CF93DF9357
:10324000CDB7DEB761970FB6F894DEBF0FBECDBF26
:103250008C01FC01858196810E942B1CF80114824F
:10326000FF24F394BE01665F7F4FF801858196814C
:103270000E94601C8823C9F1BE01665F7F4FC801B0
:103280000E942E17882371F3F8018081811108C0F4
:10329000BE01665F7F4FC8010E943018811122C0B5
:1032A000AE014F5F5F4FBE01665F7F4FC8010E9456
:1032B0006517F801E180BE01665F7F4FC8010E947B
:1032C000E8188E1518F4F801818106C0BE01665F0A
:1032D0007F4FC8010E94E818F801818384818F5FC5
:1032E0008483C0CFF801F082DBCF61960FB6F894EB
:1032F000DEBF0FBECDBFDF91CF911F910F91FF9029
:10330000EF900895CF93DF93CDB7DEB729970FB62F
:10331000F894DEBF0FBECDBFAE014F5F5F4F0E947E
:10332000651781E09981911101C080E029960FB65F
:10333000F894DEBF0FBECDBFDF91CF910895CF923D
:10334000DF92EF92FF920F931F93CF93DF93EC01E5
:103350008B01452BE1F08B818823C9F08881811195
:1033600016C00E94F01E6B017C0160E070E0CE018F
:103370000E94821981110BC00E94F01E6C197D09F8
:103380008E099F096E3E72408105910570F3F80128
:1033900080818A3049F08B3061F0893079F46EE5B4
:1033A00070E080E090E00EC06CEB70E080E090E0B8
:1033B00009C067E771E080E090E004C06EEE72E063
:1033C00080E090E0DF91CF911F910F91FF90EF90FF
:1033D000DF90CF900C941F1FCF93DF93EC018D8172
:1033E0009E810E94041B8D819E810E94271C488122
:1033F00064E48D819E810E94A11B8A81882351F003
:10340000BE016F5F7F4F40E050E0CE01DF91CF9172
:103410000C949F19DF91CF9108958F929F92AF9254
:10342000BF92CF92DF92EF92FF921F93CF93DF93E1
:10343000FB01EA01698170E0762F66278881682B9D
:1034400080818232B1F18832A1F1803109F078C0F7
:103450001F8175956795882777FD8095982F0E9425
:10346000232420E030E040E85EE30E941F236B014C
:103470007C01612F70E08E81681B7109882777FDC0
:103480008095982F0E9423244B015C01612F70E0EE
:1034900080E090E00E9421249B01AC01C501B401B1
:1034A0000E9488239B01AC01C701B6010E94202322
:1034B00043C08C818F3381F198F48F3109F040C083
:1034C00093E0759567959A95E1F7882777FD809544
:1034D000982F0E94232420E030E040E05FE32AC0E0
:1034E0008F3569F08F3761F5882777FD8095982FA4
:1034F0000E94232420E030E040E85DE31BC0759586
:103500006795882777FD8095982F0E94232420E0D7
:1035100030E040E05EE30EC0759567957595679560
:10352000882777FD8095982F0E94232420E030E0A3
:1035300040E85EE30E94D724562F472F382F292FCB
:10354000652F742F832F922FDF91CF911F91FF90C2
:10355000EF90DF90CF90BF90AF909F908F900895A5
:10356000EF92FF920F931F93CF93DF93CDB7DEB708
:1035700029970FB6F894DEBF0FBECDBF8C017B013B
:10358000AE014F5F5F4F0E94D117882341F0AE011B
:103590004F5F5F4FB701C8010E940D1A04C060E081
:1035A00070E08EEF92EC29960FB6F894DEBF0FBE56
:1035B000CDBFDF91CF911F910F91FF90EF900895B4
:1035C0000F931F93CF93DF93CDB7DEB728970FB636
:1035D000F894DEBF0FBECDBF8C01462FBE016F5FDA
:1035E0007F4F0E943D17BE016F5F7F4FC8010E9451
:1035F000B01A28960FB6F894DEBF0FBECDBFDF918C
:10360000CF911F910F910895FF920F931F93CF9326
:10361000DF93FC010081C181D281F8948981F02E71
:10362000F0948F21898378941DE7115029F182E06D
:1036300090E00E94471F88818023B9F3F8948A8123
:103640008F218A838981802B8983789480EE91E011
:103650000E94471FF89489818F21898386E490E036
:103660000E94471F8881802311E009F010E07894C0
:103670008AE991E00E94471F812FDF91CF911F912E
:103680000F91FF9008951F93CF93DF93FC0110815A
:10369000C181D281912F909560FF12C0F8948A81E8
:1036A00089238A838981812B89838AE090E00E9423
:1036B000471F8A81812B8A83789487E390E011C029
:1036C000F8948A8189238A838981812B898381E483
:1036D00090E00E94471F8A81812B8A83789485E03D
:1036E00090E0DF91CF911F910C94471F0F931F9390
:1036F000CF93DF93FC011081C181D281F89489813D
:10370000812B89838A81012F009580238A8383E01E
:1037100090E00E94471F8981802389838AE090E09E
:103720000E94471FC881789485E390E00E94471F5C
:103730001C2381E009F480E0DF91CF911F910F916C
:103740000895CF92DF92EF92FF920F931F93CF9342
:10375000DF931F92CDB7DEB76C01E62E08E010E0D4
:10376000FF24F39461E09F2D9E2109F460E0C601DF
:1037700049830E94431BFF0C015011094981011527
:10378000110581F7411115C0F894D6011196ED91FC
:10379000FC91129791818C91809589238183119658
:1037A000ED91FC91129792818C918095892382836F
:1037B00078940F90DF91CF911F910F91FF90EF9030
:1037C000DF90CF900895EF92FF920F931F93CF93C6
:1037D000DF938C01C8E0D0E0F12CEE24E394C80123
:1037E0000E94761B8111FE28EE0C2197C1F78F2DC8
:1037F000DF91CF911F910F91FF90EF900895CF929D
:10380000DF92FF920F931F93CF93DF931F92CDB759
:10381000DEB78C01F62E40E065E579830E94A11B9E
:10382000CF2C7981D72E88E0F82EF60161916F01B7
:1038300040E0C8010E94A11BFA94B9F70F90DF91F4
:10384000CF911F910F91FF90DF90CF90089540E0AE
:103850006CEC0C94A11BFC0113861586148627E0E2
:1038600030E0DF01A20FB31F13961C922115310522
:1038700019F021503109F5CF08951F93CF93DF93AD
:10388000EC01162F60E0812F0E94B61F612F70E0BF
:10389000FB01E458F94FE491E883FB01E057F94F4D
:1038A000E491F0E0EE0FFF1FEC55F94F85919491F4
:1038B0009A838983CE01DF91CF911F910C942B1CA9
:1038C000AF92BF92CF92DF92EF92FF920F931F932E
:1038D000CF93DF931F92CDB7DEB75C01E62ED72ED4
:1038E000FC01858581115DC0C5010E94041B811109
:1038F00005C0F5011386158614866EC040E060EFA2
:10390000C5010E94A11B01E0F12CC12C11E0C501F1
:103910000E94761B682FC50169830E94761B69810E
:10392000613019F48130B9F433C02F2D30E06813C1
:103930001BC0F5018385181730F4E20FF31F838154
:10394000802349F402C0181731F060E0193058F4B0
:10395000F501148708C0F501EF0DF11D8381802B5F
:10396000838361E009C0C12EF501E20FF31F83815B
:10397000902F909589238383C5010E94431B1F5F6D
:10398000000F11F4F39401E0F7E0FF1508F0BFCF4A
:10399000113438F0F501C386C11018C081E0858765
:1039A00015C0F50113861586148680E0EE2DFD2DD9
:1039B00020E030E0D501A20FB31F13969C919193A4
:1039C0002F5F3F4F28303105A9F706C0F5018381ED
:1039D000882339F381E0EACF0F90DF91CF911F91D7
:1039E0000F91FF90EF90DF90CF90BF90AF90089530
:1039F000DC0180E0615038F0ED91E827F0E0E85913
:103A0000FA4F8491F7CF0895FC0171836083089584
:103A100062E0FC0180810C94B61FCF93DF93EC0130
:103A200088810E94252021E0892B09F420E02A8347
:103A3000822FDF91CF910895CF93CFB7F8948091E3
:103A40001E04811127C0EAE9F6E08491E6E8F6E079
:103A50009491E82FF0E0EE0FFF1FE854F94FA59185
:103A6000B4918C91892321F461E08AE00E94EF1FD8
:103A700061E08AE00E94B61F8CB580618CBD8CB578
:103A800080648CBD61E08DE00E94B61F61E08BE038
:103A90000E94B61F80911E048F5F80931E04CFBFCB
:103AA000CF910895AF92BF92CF92DF92EF92FF92A3
:103AB0000F931F93CF93DF93EC017B016A015901B0
:103AC0006DE971E002960E94B1226DE971E0CE01CC
:103AD00044960E94B1226DE971E0CE014E960E949B
:103AE000B122F986E886DB86CA86BD86AC861F874A
:103AF0000E87DF91CF911F910F91FF90EF90DF9094
:103B0000CF90BF90AF900895CF93DF93EC014A859B
:103B10005B85688579858FE194E00E946E126C85E3
:103B20008FE194E00E94741260E070E08FE194E015
:103B30000E947A124A8D5B8D6C8D7D8D22E030E083
:103B40008FE194E0DF91CF910C944122CF93DF93EA
:103B5000EC01488B598B6A8B7B8B0E94841D4A85B4
:103B60005B85688579858FE194E00E946E126C8593
:103B70008FE194E00E9474126E857F858FE194E05E
:103B80000E947A12488959896A897B8922E030E04B
:103B90008FE194E00E94412288899989AA89BB8992
:103BA0008A8F9B8FAC8FBD8FDF91CF910895CF937C
:103BB000DF93EC014A855B85688579858FE194E028
:103BC0000E946E126C858FE194E00E94741260E096
:103BD00070E08FE194E00E947A12BE01625E7F4F36
:103BE0008FE194E0DF91CF910C949E200F931F936F
:103BF000CF93DF93EC018C010C5E1F4FC8010E9434
:103C0000C722CE010E94D71D4A855B8568857985CC
:103C10008FE194E00E946E126C858FE194E00E9427
:103C200074126E857F858FE194E00E947A12B8014C
:103C30008FE194E00E949E20B801CE014E96DF9164
:103C4000CF911F910F910C94C72228E049E06AE0C0
:103C50008FE194E00C949E128230E8F4E82FF0E0BB
:103C6000EE0FFF1FE35BFB4F71836083813041F0F8
:103C7000809169008C7F842B80936900E89A089575
:103C800080916900440F551F440F551F837F842B7B
:103C900080936900E99A08951F920F920FB60F92D0
:103CA00011242F933F934F935F936F937F938F9341
:103CB0009F93AF93BF93EF93FF9380914D049091A7
:103CC0004E04892B29F0E0914D04F0914E040995A2
:103CD000FF91EF91BF91AF919F918F917F916F91E4
:103CE0005F914F913F912F910F900FBE0F901F90BA
:103CF00018951F920F920FB60F9211242F933F9396
:103D00004F935F936F937F938F939F93AF93BF93E3
:103D1000EF93FF9380914F0490915004892B29F0E9
:103D2000E0914F04F09150040995FF91EF91BF91FC
:103D3000AF919F918F917F916F915F914F913F9143
:103D40002F910F900FBE0F901F9018951F920F92FA
:103D50000FB60F9211242F933F938F939F93AF939E
:103D6000BF938091520490915304A0915404B09158
:103D700055043091510423E0230F2D3720F4019690
:103D8000A11DB11D05C026E8230F0296A11DB11D7E
:103D9000209351048093520490935304A0935404AD
:103DA000B09355048091560490915704A091580403
:103DB000B09159040196A11DB11D809356049093B2
:103DC0005704A0935804B0935904BF91AF919F91A9
:103DD0008F913F912F910F900FBE0F901F901895CC
:103DE0002FB7F89460915204709153048091540459
:103DF000909155042FBF08953FB7F89480915604D1
:103E000090915704A0915804B091590426B5A89BED
:103E100005C02F3F19F00196A11DB11D3FBF6627B8
:103E2000782F892F9A2F620F711D811D911D42E0FD
:103E3000660F771F881F991F4A95D1F70895CF9273
:103E4000DF92EF92FF92CF93DF936B017C010E9490
:103E5000FC1EEB01C114D104E104F10489F00E94BD
:103E60001E230E94FC1E6C1B7D0B683E734090F36A
:103E700081E0C81AD108E108F108C851DC4FEACF47
:103E8000DF91CF91FF90EF90DF90CF900895823037
:103E9000910538F0880F991F880F991F0597019792
:103EA000F1F70895789484B5826084BD84B581600B
:103EB00084BD85B5826085BD85B5816085BDEEE632
:103EC000F0E0808181608083E1E8F0E01082808111
:103ED00082608083808181608083E0E8F0E080817F
:103EE00081608083E1EBF0E0808184608083E0EB9F
:103EF000F0E0808181608083EAE7F0E08081846087
:103F000080838081826080838081816080838081E2
:103F1000806880831092C1000895833081F028F476
:103F2000813099F08230A1F008958730A9F088306F
:103F3000B9F08430D1F4809180008F7D03C08091EE
:103F400080008F7780938000089584B58F7702C0BA
:103F500084B58F7D84BD08958091B0008F7703C0B4
:103F60008091B0008F7D8093B0000895CF93DF9350
:103F700090E0FC01E458F94F2491FC01E057F94F1F
:103F80008491882349F190E0880F991FFC01E8543F
:103F9000F94FA591B4918255994FFC01C591D491E7
:103FA0009FB7611108C0F8948C91209582238C935F
:103FB000888182230AC0623051F4F8948C91322FA8
:103FC000309583238C938881822B888304C0F89456
:103FD0008C91822B8C939FBFDF91CF9108950F938B
:103FE0001F93CF93DF931F92CDB7DEB7282F30E01A
:103FF000F901E859F94F8491F901E458F94F149106
:10400000F901E057F94F04910023C9F0882321F00A
:1040100069830E948D1F6981E02FF0E0EE0FFF1F82
:10402000E255F94FA591B4919FB7F8948C91611125
:1040300003C01095812301C0812B8C939FBF0F90EB
:10404000DF91CF911F910F910895CF93DF93282F88
:1040500030E0F901E859F94F8491F901E458F94F3A
:10406000D491F901E057F94FC491CC2391F081111B
:104070000E948D1FEC2FF0E0EE0FFF1FEC55F94F63
:10408000A591B4912C912D2381E090E021F480E062
:1040900002C080E090E0DF91CF9108950E94572701
:1040A00008950E94521F0E9450200E94C50CC0E03B
:1040B000D0E00E94A10A2097E1F30E940000F9CF0E
:1040C000CF92DF92EF92FF920F931F93CF93DF93E4
:1040D0006C017A01EB01E60EF71E00E010E0CE1550
:1040E000DF0561F06991D601ED91FC910190F081BD
:1040F000E02DC6010995080F191FF1CFC801DF9106
:10410000CF911F910F91FF90EF90DF90CF90089586
:104110006115710581F0DB010D900020E9F7AD011B
:1041200041505109461B570BDC01ED91FC91028077
:10413000F381E02D099480E090E00895DC01ED9199
:10414000FC91DB0114964D915C9115976D917C91DA
:104150000280F381E02D0994DC01ED91FC91019046
:10416000F081E02D09948F929F92AF92BF92CF92EF
:10417000DF92EF92FF920F931F93CF93DF93CDB710
:10418000DEB7A1970FB6F894DEBF0FBECDBF7C019E
:10419000C42EE52FCB01D22E19A221E02D1510F04F
:1041A0002AE0D22E8E010F5D1F4F8D2C912CA12C59
:1041B000B12C6C2D7E2FA50194010E943E258C2DE3
:1041C000D29E80191124015011098A3014F4805DA7
:1041D00001C0895CF8018083211531054105510535
:1041E00021F0C22EE32FCA01E4CFB801C7010E941B
:1041F0008820A1960FB6F894DEBF0FBECDBFDF9129
:10420000CF911F910F91FF90EF90DF90CF90BF90D3
:10421000AF909F908F900895CF92DF92EF92FF9290
:104220000F931F93CF93DF93EC016A017B0121155C
:10423000310579F4E881F9810190F081E02D642F56
:10424000DF91CF911F910F91FF90EF90DF90CF9072
:1042500009942A303105E9F477FF1AC06DE20E9413
:10426000AC208C0144275527BA014C195D096E0911
:104270007F092AE0CE010E94B320800F911FDF91B9
:10428000CF911F910F91FF90EF90DF90CF90089505
:104290002AE0B701A601CE01DF91CF911F910F91C6
:1042A000FF90EF90DF90CF900C94B3204F925F92ED
:1042B0006F927F928F929F92AF92BF92CF92DF9236
:1042C000EF92FF920F931F93CF93DF93EC016A015C
:1042D0007B01B22E9A01AB01C701B6010E943A25BB
:1042E000882319F06EE971E027C026013701E894B0
:1042F00077F82FEF3FEF4FE75FE7C301B2010E946E
:104300003A2581110DC02FEF3FEF4FE75FE7C30163
:10431000B2010E94842318161CF462EA71E00CC0FA
:104320002FEF3FEF4FE75FE4C701B6010E94D324B0
:104330001816ACF466EA71E0CE01DF91CF911F91BF
:104340000F91FF90EF90DF90CF90BF90AF909F9034
:104350008F907F906F905F904F900C9488202FEFFC
:104360003FEF4FE75FECC701B6010E94842387FD52
:10437000E1CF20E030E0A901C701B6010E9484230B
:1043800087FF0AC06DE2CE010E94AC208C01F7FAD3
:10439000F094F7F8F09402C000E010E0A12C60E087
:1043A00070E080E09FE3AB1441F020E030E040E2B9
:1043B00051E40E948823A394F6CF9B01AC01C7016E
:1043C000B6010E9420236B017C010E94F5232B0182
:1043D0003C010E9421249B01AC01C701B6010E944F
:1043E0001F236B017C012AE0B301A201CE010E94D0
:1043F000B320080F191FBB2039F06AEA71E0CE0123
:104400000E948820080F191F7B2C772041F120E0A3
:1044100030E040E251E4C701B6010E94D7246B01AD
:104420007C010E94F0234B01AA2497FCA094BA2C93
:104430002AE030E0B501A401CE010E940C21080F52
:10444000191FC501B4010E9423249B01AC01C701BF
:10445000B6010E941F236B017C017A94D6CFC8015C
:10446000DF91CF911F910F91FF90EF90DF90CF9050
:10447000BF90AF909F908F907F906F905F904F9084
:1044800008950C945621FC01808191810C94FE25A5
:10449000CF93DF93EC0188819981009711F00E94FE
:1044A000FE25198218821D821C821B821A82DF91CE
:1044B000CF9108950F931F93CF93DF93EC018B015E
:1044C0006F5F7F4F888199810E948D26009731F020
:1044D000998388831B830A8381E001C080E0DF9198
:1044E000CF911F910F910895CF93DF93EC018881B5
:1044F0009981892B29F08A819B818617970760F41F
:10450000CE010E945A22882341F08C819D81892B03
:1045100019F4E881F981108281E0DF91CF9108954B
:10452000EF92FF920F931F93CF93DF93EC017B01E8
:104530008A01BA010E947422811104C0CE010E9436
:10454000482207C01D830C83B701888199810E948E
:104550006E27CE01DF91CF911F910F91FF90EF90C9
:104560000895FC0111821082138212821582148236
:104570006115710559F0FB0101900020E9F7AF01C9
:1045800041505109461B570B0C9490220895CF932C
:10459000DF93EC01FB018617970761F06081718161
:1045A0006115710529F0448155810E94902202C055
:1045B0000E944822CE01DF91CF910895FC01118223
:1045C000108213821282158214820C94C722CF9318
:1045D000DF93EC016115710561F0FB010190002092
:1045E000E9F7AF0141505109461B570B0E94902239
:1045F00002C00E944822CE01DF91CF910895FC01B4
:1046000024813581232B31F421E061157105A1F05E
:10461000FB0108C0FC01808191816115710531F4B5
:1046200021E0FC018081882339F005C00E946527C4
:1046300021E0892B09F020E0822F08950895505839
:10464000BB27AA270ED075C166D130F06BD120F000
:1046500031F49F3F11F41EF45BC10EF4E095E7FBCB
:1046600051C1E92F77D180F3BA1762077307840726
:10467000950718F071F49EF58FC10EF4E0950B2E9E
:10468000BA2FA02D0B01B90190010C01CA01A001A4
:104690001124FF27591B99F0593F50F4503E68F1FF
:1046A0001A16F040A22F232F342F4427585FF3CF40
:1046B000469537952795A795F0405395C9F77EF411
:1046C0001F16BA0B620B730B840BBAF09150A1F05A
:1046D000FF0FBB1F661F771F881FC2F70EC0BA0FE0
:1046E000621F731F841F48F4879577956795B79568
:1046F000F7959E3F08F0B3CF9395880F08F0992760
:10470000EE0F979587950895D9D008F481E0089524
:104710000CD00FC107D140F0FED030F021F45F3F44
:1047200019F0F0C0511139C1F3C014D198F3992395
:10473000C9F35523B1F3951B550BBB27AA27621765
:104740007307840738F09F5F5F4F220F331F441FAA
:10475000AA1FA9F333D00E2E3AF0E0E830D09150E2
:104760005040E695001CCAF729D0FE2F27D0660FCF
:10477000771F881FBB1F261737074807AB07B0E80E
:1047800009F0BB0B802DBF01FF2793585F4F2AF024
:104790009E3F510568F0B6C000C15F3FECF3983E04
:1047A000DCF3869577956795B795F7959F5FC9F781
:1047B000880F911D9695879597F90895E1E0660F0A
:1047C000771F881FBB1F621773078407BA0720F083
:1047D000621B730B840BBA0BEE1F88F7E0950895EC
:1047E00004D06894B111D9C00895BCD088F09F5707
:1047F00090F0B92F9927B751A0F0D1F0660F771F2D
:10480000881F991F1AF0BA95C9F712C0B13081F00C
:10481000C3D0B1E00895C0C0672F782F8827B85F54
:1048200039F0B93FCCF3869577956795B395D9F76D
:104830003EF490958095709561957F4F8F4F9F4F77
:104840000895E89409C097FB3EF490958095709583
:1048500061957F4F8F4F9F4F9923A9F0F92F96E9CC
:10486000BB279395F695879577956795B795F11141
:10487000F8CFFAF4BB0F11F460FF1BC06F5F7F4FDE
:104880008F4F9F4F16C0882311F096E911C07723F0
:1048900021F09EE8872F762F05C0662371F096E8F9
:1048A000862F70E060E02AF09A95660F771F881FC8
:1048B000DAF7880F9695879597F90895990F00086C
:1048C000550FAA0BE0E8FEEF16161706E807F907E2
:1048D000C0F012161306E407F50798F0621B730B7D
:1048E000840B950B39F40A2661F0232B242B252BFE
:1048F00021F408950A2609F4A140A6958FEF811DA1
:10490000811D089597F99F6780E870E060E0089541
:104910009FEF80EC089500240A94161617061806D7
:104920000906089500240A941216130614060506B3
:104930000895092E0394000C11F4882352F0BB0F44
:1049400040F4BF2B11F460FF04C06F5F7F4F8F4FA7
:104950009F4F089557FD9058440F551F59F05F3FE2
:1049600071F04795880F97FB991F61F09F3F79F091
:1049700087950895121613061406551FF2CF469513
:10498000F1DF08C0161617061806991FF1CF869595
:104990007105610508940895E894BB276627772779
:1049A000CB0197F908958ADF08F48FEF08950BD0B3
:1049B000C0CFB1DF28F0B6DF18F0952309F0A2CF01
:1049C000A7CF1124EACFC6DFA0F3959FD1F3950FAF
:1049D00050E0551F629FF001729FBB27F00DB11D83
:1049E000639FAA27F00DB11DAA1F649F6627B00D13
:1049F000A11D661F829F2227B00DA11D621F739FFC
:104A0000B00DA11D621F839FA00D611D221F749F09
:104A10003327A00D611D231F849F600D211D822F50
:104A2000762F6A2F11249F5750408AF0E1F0882397
:104A30004AF0EE0FFF1FBB1F661F771F881F9150A4
:104A40005040A9F79E3F510570F05CCFA6CF5F3F65
:104A5000ECF3983EDCF3869577956795B795F795D7
:104A6000E7959F5FC1F7FE2B880F911D969587955F
:104A700097F9089523DF880B990B0895A1E21A2E68
:104A8000AA1BBB1BFD010DC0AA1FBB1FEE1FFF1FF2
:104A9000A217B307E407F50720F0A21BB30BE40B42
:104AA000F50B661F771F881F991F1A9469F7609589
:104AB0007095809590959B01AC01BD01CF01089543
:104AC000EE0FFF1F0590F491E02D0994CF93DF9333
:104AD0008230910510F482E090E0E0915C04F09166
:104AE0005D0420E030E0A0E0B0E0309739F1408193
:104AF000518148175907B8F04817590771F4828156
:104B00009381109729F013969C938E9312972CC043
:104B100090935D0480935C0427C02115310531F02A
:104B20004217530718F0A901DB0101C0EF019A01F8
:104B3000BD01DF010280F381E02DD7CF21153105C2
:104B4000F9F0281B390B2430310580F48A819B81D0
:104B50006115710521F0FB019383828304C090935A
:104B60005D0480935C04FE01329644C0FE01E20FB6
:104B7000F31F8193919322503109398328833AC0DE
:104B800020915A0430915B04232B41F420910201BF
:104B90003091030130935B0420935A04209100016B
:104BA000309101012115310541F42DB73EB74091F7
:104BB000040150910501241B350BE0915A04F0913A
:104BC0005B04E217F307A0F42E1B3F0B28173907ED
:104BD00078F0AC014E5F5F4F2417350748F04E0F59
:104BE0005F1F50935B0440935A048193919302C0DA
:104BF000E0E0F0E0CF01DF91CF910895CF93DF9314
:104C0000009709F487C0FC01329713821282C09189
:104C10005C04D0915D04209781F420813181280FBC
:104C2000391F80915A0490915B048217930779F59C
:104C3000F0935B04E0935A046DC0DE0120E030E0A5
:104C4000AE17BF0750F412964D915C9113979D01DA
:104C50004115510509F1DA01F3CFB383A2834081F5
:104C60005181840F951F8A179B0771F48D919C9138
:104C70001197840F951F02969183808312968D91D0
:104C80009C911397938382832115310529F4F09326
:104C90005D04E0935C043EC0D9011396FC93EE934F
:104CA00012974D915D91A40FB51FEA17FB0779F498
:104CB00080819181840F951F0296D90111969C9352
:104CC0008E938281938113969C938E931297E0E04A
:104CD000F0E08A819B81009719F0FE01EC01F9CF89
:104CE000CE01029628813981820F931F20915A04A8
:104CF00030915B042817390769F4309729F4109232
:104D00005D0410925C0402C013821282D0935B0493
:104D1000C0935A04DF91CF910895A0E0B0E0E3E999
:104D2000F6E20C947927EC01CB01209719F40E944C
:104D30006625B8C0FE01E60FF71F9E01225031091B
:104D4000E217F30708F4ACC0D9010D911C9111973B
:104D500006171707B8F00530110508F49FC0A80121
:104D6000445051094617570708F498C002501109DA
:104D7000061B170B019311936D937C93CF010E9437
:104D8000FE258CC05B01A01AB10A4E01800E911E57
:104D9000A0915C04B0915D04612C712C60E070E026
:104DA000109709F449C0A815B905C9F5ED90FC9014
:104DB0001197670142E0C40ED11CCA14DB0478F1DC
:104DC00047018A189B08640142E0C40ED11C129668
:104DD000BC9012971396AC91B5E0CB16D10440F07D
:104DE000B282A38391828082D9018D939C9309C062
:104DF0000E5F1F4F0E0D1F1DF90111830083EB2D58
:104E0000FA2F6115710531F0DB011396FC93EE93D7
:104E1000129744C0F0935D04E0935C043FC06D9131
:104E20007C9111976616770608F43B01BD01129636
:104E30000D90BC91A02DB4CF60915A0470915B0489
:104E400068157905E9F468167906D0F440910001F7
:104E5000509101014115510541F44DB75EB7609184
:104E6000040170910501461B570BE417F507C0F4C8
:104E7000F0935B04E0935A04F901918380830EC0A0
:104E80000E9466257C01009759F0A801BE010E948E
:104E90005C27CE010E94FE25C70104C0CE0102C0DE
:104EA00080E090E0CDB7DEB7EEE00C94952781E08E
:104EB00090E0F8940C94AC27FB01DC0102C0019057
:104EC0000D9241505040D8F70895FB01DC018D91BF
:104ED000019080190110D9F3990B0895FB01DC01B1
:104EE00001900D920020E1F708952F923F924F928A
:104EF0005F926F927F928F929F92AF92BF92CF926A
:104F0000DF92EF92FF920F931F93CF93DF93CDB772
:104F1000DEB7CA1BDB0B0FB6F894DEBF0FBECDBFEA
:104F200009942A88398848885F846E847D848C84BB
:104F30009B84AA84B984C884DF80EE80FD800C81C4
:104F40001B81AA81B981CE0FD11D0FB6F894DEBFA7
:104F50000FBECDBFED01089516E0C6ECD6E004C04B
:104F6000FE010E9462252296C83CD107C9F7F89439
:024F7000FFCF71
:104F720000005E0480000300050004000400014FED
:104F8200464600434F4F4C00484541540046414E6F
:104F920000544152474554004578697400436F6F8D
:104FA2006C0048656174004F6666004175746F005D
:104FB2004F6E005377696E67004D6178004D696EE0
:104FC2000053746570004D6F64650053657400464C
:104FD200616E00414D4249454E5400000000001AE6
:104FE2001260204E20920F9810AF104910C510FA8F
:104FF200101811000000001A1260209B15920FDC9D
:10500200152F1649108216801215130D0A006E61B3
:0C5012006E00696E66006F7666002E006E
:00000001FF
